{
  "_format": "hh-sol-artifact-1",
  "contractName": "PatentManagement",
  "sourceName": "contracts/PatentManagement.sol",
  "abi": [
    {
      "inputs": [],
      "stateMutability": "nonpayable",
      "type": "constructor"
    },
    {
      "anonymous": false,
      "inputs": [
        {
          "indexed": true,
          "internalType": "bytes32",
          "name": "patentId",
          "type": "bytes32"
        },
        {
          "indexed": true,
          "internalType": "address",
          "name": "owner",
          "type": "address"
        },
        {
          "indexed": false,
          "internalType": "uint256",
          "name": "expirationDate",
          "type": "uint256"
        }
      ],
      "name": "PatentDraftSubmitted",
      "type": "event"
    },
    {
      "anonymous": false,
      "inputs": [
        {
          "indexed": true,
          "internalType": "bytes32",
          "name": "patentId",
          "type": "bytes32"
        },
        {
          "indexed": true,
          "internalType": "address",
          "name": "owner",
          "type": "address"
        },
        {
          "indexed": false,
          "internalType": "uint256",
          "name": "expirationDate",
          "type": "uint256"
        }
      ],
      "name": "PatentExtended",
      "type": "event"
    },
    {
      "anonymous": false,
      "inputs": [
        {
          "indexed": true,
          "internalType": "bytes32",
          "name": "patentId",
          "type": "bytes32"
        },
        {
          "indexed": true,
          "internalType": "address",
          "name": "owner",
          "type": "address"
        },
        {
          "indexed": false,
          "internalType": "uint256",
          "name": "expirationDate",
          "type": "uint256"
        }
      ],
      "name": "PatentExtensionApproved",
      "type": "event"
    },
    {
      "anonymous": false,
      "inputs": [
        {
          "indexed": true,
          "internalType": "bytes32",
          "name": "patentId",
          "type": "bytes32"
        },
        {
          "indexed": true,
          "internalType": "address",
          "name": "owner",
          "type": "address"
        },
        {
          "indexed": false,
          "internalType": "uint256",
          "name": "expirationDate",
          "type": "uint256"
        }
      ],
      "name": "PatentExtensionRejected",
      "type": "event"
    },
    {
      "anonymous": false,
      "inputs": [
        {
          "indexed": true,
          "internalType": "bytes32",
          "name": "patentId",
          "type": "bytes32"
        },
        {
          "indexed": true,
          "internalType": "address",
          "name": "owner",
          "type": "address"
        },
        {
          "indexed": false,
          "internalType": "uint256",
          "name": "expirationDate",
          "type": "uint256"
        }
      ],
      "name": "PatentGranted",
      "type": "event"
    },
    {
      "anonymous": false,
      "inputs": [
        {
          "indexed": true,
          "internalType": "bytes32",
          "name": "patentId",
          "type": "bytes32"
        },
        {
          "indexed": true,
          "internalType": "address",
          "name": "owner",
          "type": "address"
        },
        {
          "indexed": false,
          "internalType": "uint256",
          "name": "expirationDate",
          "type": "uint256"
        }
      ],
      "name": "PatentRevoked",
      "type": "event"
    },
    {
      "anonymous": false,
      "inputs": [
        {
          "indexed": true,
          "internalType": "bytes32",
          "name": "patentId",
          "type": "bytes32"
        },
        {
          "indexed": true,
          "internalType": "address",
          "name": "lincesedOrgRoyaltyContract",
          "type": "address"
        },
        {
          "indexed": true,
          "internalType": "address",
          "name": "licensee",
          "type": "address"
        }
      ],
      "name": "RoyaltyContractApproved",
      "type": "event"
    },
    {
      "anonymous": false,
      "inputs": [
        {
          "indexed": true,
          "internalType": "bytes32",
          "name": "patentId",
          "type": "bytes32"
        },
        {
          "indexed": true,
          "internalType": "address",
          "name": "licensor",
          "type": "address"
        },
        {
          "indexed": false,
          "internalType": "uint256",
          "name": "royaltyFee",
          "type": "uint256"
        },
        {
          "indexed": false,
          "internalType": "uint256",
          "name": "paymentInterval",
          "type": "uint256"
        },
        {
          "indexed": true,
          "internalType": "address",
          "name": "licensee",
          "type": "address"
        },
        {
          "indexed": false,
          "internalType": "address",
          "name": "royaltyContractAddress",
          "type": "address"
        }
      ],
      "name": "RoyaltyContractCreated",
      "type": "event"
    },
    {
      "anonymous": false,
      "inputs": [
        {
          "indexed": true,
          "internalType": "bytes32",
          "name": "patentId",
          "type": "bytes32"
        },
        {
          "indexed": true,
          "internalType": "address",
          "name": "licensee",
          "type": "address"
        },
        {
          "indexed": true,
          "internalType": "address",
          "name": "lincesedOrgRoyaltyContract",
          "type": "address"
        }
      ],
      "name": "RoyaltyContractDestroyed",
      "type": "event"
    },
    {
      "anonymous": false,
      "inputs": [
        {
          "indexed": true,
          "internalType": "bytes32",
          "name": "patentId",
          "type": "bytes32"
        },
        {
          "indexed": true,
          "internalType": "address",
          "name": "licensee",
          "type": "address"
        },
        {
          "indexed": true,
          "internalType": "address",
          "name": "lincesedOrgRoyaltyContract",
          "type": "address"
        }
      ],
      "name": "RoyaltyContractVerified",
      "type": "event"
    },
    {
      "inputs": [],
      "name": "DRAFT_FEE",
      "outputs": [
        {
          "internalType": "uint256",
          "name": "",
          "type": "uint256"
        }
      ],
      "stateMutability": "view",
      "type": "function"
    },
    {
      "inputs": [],
      "name": "EXNTENSION_DURATION",
      "outputs": [
        {
          "internalType": "uint256",
          "name": "",
          "type": "uint256"
        }
      ],
      "stateMutability": "view",
      "type": "function"
    },
    {
      "inputs": [],
      "name": "EXPIRATION_DURATION",
      "outputs": [
        {
          "internalType": "uint256",
          "name": "",
          "type": "uint256"
        }
      ],
      "stateMutability": "view",
      "type": "function"
    },
    {
      "inputs": [],
      "name": "admin",
      "outputs": [
        {
          "internalType": "address payable",
          "name": "",
          "type": "address"
        }
      ],
      "stateMutability": "view",
      "type": "function"
    },
    {
      "inputs": [
        {
          "internalType": "bytes32",
          "name": "_patentId",
          "type": "bytes32"
        }
      ],
      "name": "approveRoyaltyContract",
      "outputs": [],
      "stateMutability": "nonpayable",
      "type": "function"
    },
    {
      "inputs": [
        {
          "internalType": "bytes32",
          "name": "_patentId",
          "type": "bytes32"
        },
        {
          "internalType": "address",
          "name": "_licensee",
          "type": "address"
        }
      ],
      "name": "checkValidityOfRoyaltyContract",
      "outputs": [],
      "stateMutability": "nonpayable",
      "type": "function"
    },
    {
      "inputs": [
        {
          "internalType": "bytes32",
          "name": "_patentId",
          "type": "bytes32"
        },
        {
          "internalType": "address",
          "name": "_licensee",
          "type": "address"
        },
        {
          "internalType": "uint256",
          "name": "_royaltyFee",
          "type": "uint256"
        },
        {
          "internalType": "uint256",
          "name": "_paymentInterval",
          "type": "uint256"
        },
        {
          "internalType": "uint256",
          "name": "_contractExpirationDate",
          "type": "uint256"
        }
      ],
      "name": "createRoyaltyContract",
      "outputs": [],
      "stateMutability": "nonpayable",
      "type": "function"
    },
    {
      "inputs": [
        {
          "internalType": "bytes32",
          "name": "_patentId",
          "type": "bytes32"
        }
      ],
      "name": "getAllContractsForPatent",
      "outputs": [
        {
          "components": [
            {
              "internalType": "bytes32",
              "name": "patentId",
              "type": "bytes32"
            },
            {
              "internalType": "address",
              "name": "contractAddress",
              "type": "address"
            },
            {
              "internalType": "address",
              "name": "patentOwner",
              "type": "address"
            },
            {
              "internalType": "address",
              "name": "licensee",
              "type": "address"
            },
            {
              "internalType": "uint256",
              "name": "royaltyFee",
              "type": "uint256"
            },
            {
              "internalType": "uint256",
              "name": "paymentInterval",
              "type": "uint256"
            },
            {
              "internalType": "uint256",
              "name": "expirationDate",
              "type": "uint256"
            },
            {
              "internalType": "uint256",
              "name": "paidUntil",
              "type": "uint256"
            },
            {
              "internalType": "bool",
              "name": "approvedForDestroy",
              "type": "bool"
            },
            {
              "internalType": "bool",
              "name": "paused",
              "type": "bool"
            }
          ],
          "internalType": "struct PatentManagement.RoyaltyContractData[]",
          "name": "",
          "type": "tuple[]"
        }
      ],
      "stateMutability": "view",
      "type": "function"
    },
    {
      "inputs": [
        {
          "internalType": "bytes32",
          "name": "_patentId",
          "type": "bytes32"
        },
        {
          "internalType": "address",
          "name": "_licensee",
          "type": "address"
        }
      ],
      "name": "getContractForLicensee",
      "outputs": [
        {
          "components": [
            {
              "internalType": "bytes32",
              "name": "patentId",
              "type": "bytes32"
            },
            {
              "internalType": "address",
              "name": "contractAddress",
              "type": "address"
            },
            {
              "internalType": "address",
              "name": "patentOwner",
              "type": "address"
            },
            {
              "internalType": "address",
              "name": "licensee",
              "type": "address"
            },
            {
              "internalType": "uint256",
              "name": "royaltyFee",
              "type": "uint256"
            },
            {
              "internalType": "uint256",
              "name": "paymentInterval",
              "type": "uint256"
            },
            {
              "internalType": "uint256",
              "name": "expirationDate",
              "type": "uint256"
            },
            {
              "internalType": "uint256",
              "name": "paidUntil",
              "type": "uint256"
            },
            {
              "internalType": "bool",
              "name": "approvedForDestroy",
              "type": "bool"
            },
            {
              "internalType": "bool",
              "name": "paused",
              "type": "bool"
            }
          ],
          "internalType": "struct PatentManagement.RoyaltyContractData",
          "name": "",
          "type": "tuple"
        }
      ],
      "stateMutability": "view",
      "type": "function"
    },
    {
      "inputs": [],
      "name": "getContractsForAllPatents",
      "outputs": [
        {
          "components": [
            {
              "internalType": "bytes32",
              "name": "patentId",
              "type": "bytes32"
            },
            {
              "components": [
                {
                  "internalType": "bytes32",
                  "name": "patentId",
                  "type": "bytes32"
                },
                {
                  "internalType": "address",
                  "name": "contractAddress",
                  "type": "address"
                },
                {
                  "internalType": "address",
                  "name": "patentOwner",
                  "type": "address"
                },
                {
                  "internalType": "address",
                  "name": "licensee",
                  "type": "address"
                },
                {
                  "internalType": "uint256",
                  "name": "royaltyFee",
                  "type": "uint256"
                },
                {
                  "internalType": "uint256",
                  "name": "paymentInterval",
                  "type": "uint256"
                },
                {
                  "internalType": "uint256",
                  "name": "expirationDate",
                  "type": "uint256"
                },
                {
                  "internalType": "uint256",
                  "name": "paidUntil",
                  "type": "uint256"
                },
                {
                  "internalType": "bool",
                  "name": "approvedForDestroy",
                  "type": "bool"
                },
                {
                  "internalType": "bool",
                  "name": "paused",
                  "type": "bool"
                }
              ],
              "internalType": "struct PatentManagement.RoyaltyContractData[]",
              "name": "royaltyContractsData",
              "type": "tuple[]"
            }
          ],
          "internalType": "struct PatentManagement.LicenseDataForPatent[]",
          "name": "",
          "type": "tuple[]"
        }
      ],
      "stateMutability": "view",
      "type": "function"
    },
    {
      "inputs": [
        {
          "internalType": "bytes32",
          "name": "_patentId",
          "type": "bytes32"
        },
        {
          "internalType": "enum PatentManagement.Status",
          "name": "_newExtensionState",
          "type": "uint8"
        }
      ],
      "name": "handlePatentExtensionRequest",
      "outputs": [],
      "stateMutability": "nonpayable",
      "type": "function"
    },
    {
      "inputs": [
        {
          "internalType": "bytes32",
          "name": "_patentId",
          "type": "bytes32"
        },
        {
          "internalType": "enum PatentManagement.Status",
          "name": "_newPatentStatus",
          "type": "uint8"
        }
      ],
      "name": "handlePatentState",
      "outputs": [],
      "stateMutability": "nonpayable",
      "type": "function"
    },
    {
      "inputs": [
        {
          "internalType": "uint256",
          "name": "",
          "type": "uint256"
        }
      ],
      "name": "patents",
      "outputs": [
        {
          "internalType": "bytes32",
          "name": "id",
          "type": "bytes32"
        },
        {
          "internalType": "string",
          "name": "title",
          "type": "string"
        },
        {
          "internalType": "string",
          "name": "ipfsHash",
          "type": "string"
        },
        {
          "internalType": "address",
          "name": "owner",
          "type": "address"
        },
        {
          "internalType": "uint256",
          "name": "expirationDate",
          "type": "uint256"
        },
        {
          "internalType": "enum PatentManagement.Status",
          "name": "expirationExtension",
          "type": "uint8"
        },
        {
          "internalType": "enum PatentManagement.Status",
          "name": "status",
          "type": "uint8"
        }
      ],
      "stateMutability": "view",
      "type": "function"
    },
    {
      "inputs": [
        {
          "internalType": "bytes32",
          "name": "_patentId",
          "type": "bytes32"
        }
      ],
      "name": "requestExtension",
      "outputs": [],
      "stateMutability": "nonpayable",
      "type": "function"
    },
    {
      "inputs": [
        {
          "internalType": "string",
          "name": "_title",
          "type": "string"
        },
        {
          "internalType": "string",
          "name": "_ipfsHash",
          "type": "string"
        }
      ],
      "name": "submitDraftPatent",
      "outputs": [],
      "stateMutability": "payable",
      "type": "function"
    },
    {
      "inputs": [],
      "name": "viewPatents",
      "outputs": [
        {
          "components": [
            {
              "internalType": "bytes32",
              "name": "id",
              "type": "bytes32"
            },
            {
              "internalType": "string",
              "name": "title",
              "type": "string"
            },
            {
              "internalType": "string",
              "name": "ipfsHash",
              "type": "string"
            },
            {
              "internalType": "address",
              "name": "owner",
              "type": "address"
            },
            {
              "internalType": "address[]",
              "name": "licensees",
              "type": "address[]"
            },
            {
              "internalType": "uint256",
              "name": "expirationDate",
              "type": "uint256"
            },
            {
              "internalType": "enum PatentManagement.Status",
              "name": "expirationExtension",
              "type": "uint8"
            },
            {
              "internalType": "enum PatentManagement.Status",
              "name": "status",
              "type": "uint8"
            }
          ],
          "internalType": "struct PatentManagement.Patent[]",
          "name": "",
          "type": "tuple[]"
        }
      ],
      "stateMutability": "view",
      "type": "function"
    }
  ],
  "bytecode": "0x608060405234801561001057600080fd5b50600080546001600160a01b03191633179055613e44806100326000396000f3fe608060405260043610620001075760003560e01c8063c131ffef1162000095578063edc4f6151162000060578063edc4f61514620002d4578063eea2c59c14620002f9578063f422bc68146200031e578063f851a440146200035857600080fd5b8063c131ffef1462000260578063c733aeec146200027a578063c82314851462000291578063caa6e39314620002b657600080fd5b80634bc1867111620000d65780634bc1867114620001b95780635992950114620001de5780638fa848b71462000205578063b8794c09146200023957600080fd5b80631d78a4df146200010c5780632794a63d14620001335780632daa85a0146200016057806334edf2281462000194575b600080fd5b3480156200011957600080fd5b50620001316200012b3660046200296c565b62000393565b005b3480156200014057600080fd5b506200014d632598060081565b6040519081526020015b60405180910390f35b3480156200016d57600080fd5b50620001856200017f3660046200296c565b6200073e565b60405162000157919062002a31565b348015620001a157600080fd5b5062000131620001b336600462002a9d565b62000990565b348015620001c657600080fd5b5062000131620001d836600462002ad0565b62000cb0565b348015620001eb57600080fd5b50620001f662000f3d565b60405162000157919062002bc2565b3480156200021257600080fd5b506200022a6200022436600462002a9d565b620011d3565b60405162000157919062002ccb565b3480156200024657600080fd5b50620002516200156f565b60405162000157919062002cdc565b3480156200026d57600080fd5b506200014d630966018081565b620001316200028b36600462002e37565b620016ab565b3480156200029e57600080fd5b5062000131620002b036600462002ad0565b620019ab565b348015620002c357600080fd5b506200014d6729a2241af62c000081565b348015620002e157600080fd5b5062000131620002f33660046200296c565b62001b32565b3480156200030657600080fd5b50620001316200031836600462002ea2565b62001c68565b3480156200032b57600080fd5b50620003436200033d3660046200296c565b62002075565b60405162000157979695949392919062002eed565b3480156200036557600080fd5b506000546200037a906001600160a01b031681565b6040516001600160a01b03909116815260200162000157565b806000620003a182620021f6565b608001519050620003b3338262002506565b6200042b5760405162461bcd60e51b815260206004820152602d60248201527f4f6e6c7920706174656e74206c6963656e7365652063616e20706572666f726d60448201527f207468697320616374696f6e2e0000000000000000000000000000000000000060648201526084015b60405180910390fd5b60006200043884620021f6565b905060028160e00151600381111562000455576200045562002b89565b14620004a45760405162461bcd60e51b815260206004820152601360248201527f506174656e74206e6f74206772616e7465642e00000000000000000000000000604482015260640162000422565b620004b3426201518062002f74565b8160a0015111620005165760405162461bcd60e51b815260206004820152602660248201527f506174656e742077696c6c2065787069726520696e206c657373207468616e2060448201526518903230bc9760d11b606482015260840162000422565b60008481526001602090815260408083203384528252918290205482517fa00ce37700000000000000000000000000000000000000000000000000000000815292516001600160a01b0390911692839263a00ce377926004808401938290030181865afa1580156200058c573d6000803e3d6000fd5b505050506040513d601f19601f82011682018060405250810190620005b2919062002fa0565b80156200061f5750806001600160a01b031663f2a6f2156040518163ffffffff1660e01b8152600401602060405180830381865afa158015620005f9573d6000803e3d6000fd5b505050506040513d601f19601f820116820180604052508101906200061f919062002fa0565b620006935760405162461bcd60e51b815260206004820152603660248201527f526f79616c747920636f6e7472616374206973206e6f7420696e2070656e646960448201527f6e6720666f7220617070726f76616c2073746174652e00000000000000000000606482015260840162000422565b806001600160a01b03166329e20d5b6040518163ffffffff1660e01b8152600401600060405180830381600087803b158015620006cf57600080fd5b505af1158015620006e4573d6000803e3d6000fd5b50505060008681526001602090815260408083203380855292528083205490519193506001600160a01b03169188917f4be16d196ea0c91556663a891d4a2eab5a2bbb8a0dc8430d276e549e26807cbc9190a45050505050565b606060006200074d83620021f6565b905060028160e0015160038111156200076a576200076a62002b89565b14620007f1576040805160008082526020820190925290620007e9565b604080516101408101825260008082526020808301829052928201819052606082018190526080820181905260a0820181905260c0820181905260e0820181905261010082018190526101208201528252600019909201910181620007875790505b509392505050565b608081015180516000036200088257604080516000808252602082019092529062000879565b604080516101408101825260008082526020808301829052928201819052606082018190526080820181905260a0820181905260c0820181905260e0820181905261010082018190526101208201528252600019909201910181620008175790505b50949350505050565b6000815167ffffffffffffffff811115620008a157620008a162002d8c565b6040519080825280602002602001820160405280156200092257816020015b604080516101408101825260008082526020808301829052928201819052606082018190526080820181905260a0820181905260c0820181905260e0820181905261010082018190526101208201528252600019909201910181620008c05790505b50905060005b825181101562000879576200095a868483815181106200094c576200094c62002fc5565b6020026020010151620011d3565b8282815181106200096f576200096f62002fc5565b60200260200101819052508080620009879062002fdb565b91505062000928565b81336200099d82620021f6565b606001516001600160a01b03161462000a0c5760405162461bcd60e51b815260206004820152602a60248201527f4f6e6c7920706174656e74206f776e65722063616e20706572666f726d20746860448201526934b99030b1ba34b7b71760b11b606482015260840162000422565b600062000a1984620021f6565b9050600062000a288562002574565b905060028260e00151600381111562000a455762000a4562002b89565b1462000a945760405162461bcd60e51b815260206004820152601360248201527f506174656e74206e6f74206772616e7465642e00000000000000000000000000604482015260640162000422565b60008581526001602090815260408083206001600160a01b038089168552925290912054168062000b085760405162461bcd60e51b815260206004820152601f60248201527f526f79616c747920636f6e747261637420646f6573206e6f7420657869737400604482015260640162000422565b6000819050806001600160a01b031663a00ce3776040518163ffffffff1660e01b8152600401602060405180830381865afa15801562000b4c573d6000803e3d6000fd5b505050506040513d601f19601f8201168201806040525081019062000b72919062002fa0565b62000c6557806001600160a01b031663854747286040518163ffffffff1660e01b8152600401600060405180830381600087803b15801562000bb357600080fd5b505af115801562000bc8573d6000803e3d6000fd5b50505060008881526001602090815260408083206001600160a01b038b168452909152902080546001600160a01b031916905550608084015162000c0d908762002617565b608085015262000c1e83856200271c565b816001600160a01b0316866001600160a01b0316887f9d6027a530e82351d1b8fcd1d84d64dc5970b753233c5e6c9c339d193cc0729660405160405180910390a462000ca7565b816001600160a01b0316866001600160a01b0316887f8ceab313e0f6f25256b2fda24fd981578c842fd28aa65d222cc46b42a9f8da3860405160405180910390a45b50505050505050565b6000546001600160a01b0316331462000d185760405162461bcd60e51b815260206004820152602360248201527f4f6e6c792061646d696e2063616e20706572666f726d2074686973206163746960448201526237b71760e91b606482015260840162000422565b600062000d2583620021f6565b9050600062000d348462002574565b905060018260c00151600381111562000d515762000d5162002b89565b1462000daa5760405162461bcd60e51b815260206004820152602160248201527f506174656e74206973206e6f7420696e207265717565737465642073746174656044820152601760f91b606482015260840162000422565b600283600381111562000dc15762000dc162002b89565b0362000eab5762000dd6426201518062002f74565b8260a001511162000e395760405162461bcd60e51b815260206004820152602660248201527f506174656e742077696c6c2065787069726520696e206c657373207468616e2060448201526518903230bc9760d11b606482015260840162000422565b63096601808260a00181815162000e51919062002f74565b9150818152505081606001516001600160a01b0316847f6bcbf68bf6f99ade7ea084c126b4e5b40d157224ea57a7d3c916780d8c828d478460a0015160405162000e9d91815260200190565b60405180910390a362000ef9565b81606001516001600160a01b0316847f726791534415f84e05ba743be4e62982dcfc5fb795d826d2e48a9ad7a1c339618460a0015160405162000ef091815260200190565b60405180910390a35b60c0820183600381111562000f125762000f1262002b89565b9081600381111562000f285762000f2862002b89565b90525062000f3781836200271c565b50505050565b60606002805480602002602001604051908101604052809291908181526020016000905b82821015620011ca5783829060005260206000209060070201604051806101000160405290816000820154815260200160018201805462000fa29062002ff7565b80601f016020809104026020016040519081016040528092919081815260200182805462000fd09062002ff7565b8015620010215780601f1062000ff55761010080835404028352916020019162001021565b820191906000526020600020905b8154815290600101906020018083116200100357829003601f168201915b505050505081526020016002820180546200103c9062002ff7565b80601f01602080910402602001604051908101604052809291908181526020018280546200106a9062002ff7565b8015620010bb5780601f106200108f57610100808354040283529160200191620010bb565b820191906000526020600020905b8154815290600101906020018083116200109d57829003601f168201915b505050918352505060038201546001600160a01b031660208083019190915260048301805460408051828502810185018252828152940193928301828280156200112f57602002820191906000526020600020905b81546001600160a01b0316815260019091019060200180831162001110575b505050918352505060058201546020820152600682015460409091019060ff16600381111562001163576200116362002b89565b600381111562001177576200117762002b89565b81526020016006820160019054906101000a900460ff166003811115620011a257620011a262002b89565b6003811115620011b657620011b662002b89565b815250508152602001906001019062000f61565b50505050905090565b6040805161014081018252600080825260208201819052918101829052606081018290526080810182905260a0810182905260c0810182905260e0810182905261010081018290526101208101919091526200123e826200123485620021f6565b6080015162002506565b620012b25760405162461bcd60e51b815260206004820152602360248201527f4c6963656e736565206e6f7420666f756e6420666f722074686973207061746560448201527f6e742e0000000000000000000000000000000000000000000000000000000000606482015260840162000422565b60008381526001602090815260408083206001600160a01b03868116855292529091205416620013255760405162461bcd60e51b815260206004820181905260248201527f526f79616c747920636f6e747261637420646f6573206e6f742065786973742e604482015260640162000422565b60008381526001602090815260408083206001600160a01b03808716855292528083205481517f7cc1f867000000000000000000000000000000000000000000000000000000008152915192169291829182918291829182918291829182918b91637cc1f867916004808301926101209291908290030181865afa158015620013b2573d6000803e3d6000fd5b505050506040513d601f19601f82011682018060405250810190620013d891906200302d565b985098509850985098509850985098509850620014636040518061014001604052806000801916815260200160006001600160a01b0316815260200160006001600160a01b0316815260200160006001600160a01b03168152602001600081526020016000815260200160008152602001600081526020016000151581526020016000151581525090565b89816000018181525050600160008f815260200190815260200160002060008e6001600160a01b03166001600160a01b0316815260200190815260200160002060009054906101000a90046001600160a01b031681602001906001600160a01b031690816001600160a01b0316815250508881604001906001600160a01b031690816001600160a01b0316815250508781606001906001600160a01b031690816001600160a01b03168152505086816080018181525050858160a0018181525050848160c0018181525050838160e001818152505082816101000190151590811515815250508181610120019015159081151581525050809b5050505050505050505050505b92915050565b60025460609060009067ffffffffffffffff81111562001593576200159362002d8c565b604051908082528060200260200182016040528015620015db57816020015b604080518082019091526000815260606020820152815260200190600190039081620015b25790505b50905060005b600254811015620016a5576002818154811062001602576200160262002fc5565b90600052602060002090600702016000015482828151811062001629576200162962002fc5565b602002602001015160000181815250506200166b6002828154811062001653576200165362002fc5565b9060005260206000209060070201600001546200073e565b82828151811062001680576200168062002fc5565b60200260200101516020018190525080806200169c9062002fdb565b915050620015e1565b50919050565b6000546001600160a01b03163303620017115760405162461bcd60e51b815260206004820152602160248201527f41646d696e2063616e6e6f74207375626d697420647261667420706174656e746044820152601760f91b606482015260840162000422565b6729a2241af62c000034146200176a5760405162461bcd60e51b815260206004820152601360248201527f496e636f72726563742064726166742066656500000000000000000000000000604482015260640162000422565b6040516bffffffffffffffffffffffff193360601b166020820152426034820152600090605401604051602081830303815290604052805190602001209050620017b362002879565b8181526040810183905260208101849052336060820152620017da63259806004262002f74565b60a0820152600160e08201819052600060c08301819052600280549283018155905281517f405787fa12a823e0f2b7631cc41b3ba8828b3321ca811111fa75cd3aa3bb5ace6007909202918201908155602083015183927f405787fa12a823e0f2b7631cc41b3ba8828b3321ca811111fa75cd3aa3bb5acf019062001860908262003115565b506040820151600282019062001877908262003115565b5060608201516003820180546001600160a01b0319166001600160a01b0390921691909117905560808201518051620018bb916004840191602090910190620028dd565b5060a0820151600582015560c082015160068201805460ff19166001836003811115620018ec57620018ec62002b89565b021790555060e082015160068201805461ff00191661010083600381111562001919576200191962002b89565b02179055505050336001600160a01b0316827f0b7e06468bbc1595894d83e9ed1dc240758b3b49ef38665b19d6964d2294f6058360a001516040516200196191815260200190565b60405180910390a3600080546040516001600160a01b03909116913480156108fc02929091818181858888f19350505050158015620019a4573d6000803e3d6000fd5b5050505050565b6000546001600160a01b0316331462001a135760405162461bcd60e51b815260206004820152602360248201527f4f6e6c792061646d696e2063616e20706572666f726d2074686973206163746960448201526237b71760e91b606482015260840162000422565b600062001a2083620021f6565b9050600062001a2f8462002574565b905060e0820183600381111562001a4a5762001a4a62002b89565b9081600381111562001a605762001a6062002b89565b90525062001a6f81836200271c565b600283600381111562001a865762001a8662002b89565b0362001adf5781606001516001600160a01b0316847fb6c2e5af6df126b1e5cd8151444445747245b128daac3756a2b2d3b6ab59dff88460a0015160405162001ad191815260200190565b60405180910390a362000f37565b81606001516001600160a01b0316847f4359dd938d1b13dc419fa9142e7a432f7272e1c903f9ea19d9f71b1e576069d48460a0015160405162001b2491815260200190565b60405180910390a350505050565b803362001b3f82620021f6565b606001516001600160a01b03161462001bae5760405162461bcd60e51b815260206004820152602a60248201527f4f6e6c7920706174656e74206f776e65722063616e20706572666f726d20746860448201526934b99030b1ba34b7b71760b11b606482015260840162000422565b600062001bbb83620021f6565b9050600062001bca8462002574565b905060008260c00151600381111562001be75762001be762002b89565b1462001c5c5760405162461bcd60e51b815260206004820152602360248201527f506174656e7420657874656e73696f6e20616c7265616479207265717565737460448201527f65642e0000000000000000000000000000000000000000000000000000000000606482015260840162000422565b60c08201600162000f12565b843362001c7582620021f6565b606001516001600160a01b03161462001ce45760405162461bcd60e51b815260206004820152602a60248201527f4f6e6c7920706174656e74206f776e65722063616e20706572666f726d20746860448201526934b99030b1ba34b7b71760b11b606482015260840162000422565b600062001cf187620021f6565b9050600062001d008862002574565b905060028260e00151600381111562001d1d5762001d1d62002b89565b1462001d6c5760405162461bcd60e51b815260206004820152601360248201527f506174656e74206e6f74206772616e7465642e00000000000000000000000000604482015260640162000422565b62001d7b426201518062002f74565b8260a001511162001dde5760405162461bcd60e51b815260206004820152602660248201527f506174656e742077696c6c2065787069726520696e206c657373207468616e2060448201526518903230bc9760d11b606482015260840162000422565b62001dee87836080015162002506565b1562001e635760405162461bcd60e51b815260206004820152602860248201527f4c6963656e73656520616c72656164792065786973747320666f72207468697360448201527f20706174656e742e000000000000000000000000000000000000000000000000606482015260840162000422565b600088888888883360405162001e799062002947565b9586526001600160a01b0394851660208701526040860193909352606085019190915260808401521660a082015260c001604051809103906000f08015801562001ec7573d6000803e3d6000fd5b5060008a81526001602081815260408084206001600160a01b038e811686529252832080546001600160a01b031916918516919091179055608086015151929350909162001f159162002f74565b67ffffffffffffffff81111562001f305762001f3062002d8c565b60405190808252806020026020018201604052801562001f5a578160200160208202803683370190505b50905060005b84608001515181101562001fd1578460800151818151811062001f875762001f8762002fc5565b602002602001015182828151811062001fa45762001fa462002fc5565b6001600160a01b03909216602092830291909101909101528062001fc88162002fdb565b91505062001f60565b5088818560800151518151811062001fed5762001fed62002fc5565b6001600160a01b0390921660209283029190910190910152608084018190526200201883856200271c565b60408051898152602081018990526001600160a01b03848116828401529151918b169133918d917f614f6ab40eb754638ac2b892c0d2227b00cce60a04a08331e586ceca1dc1c0289181900360600190a450505050505050505050565b600281815481106200208657600080fd5b60009182526020909120600790910201805460018201805491935090620020ad9062002ff7565b80601f0160208091040260200160405190810160405280929190818152602001828054620020db9062002ff7565b80156200212c5780601f1062002100576101008083540402835291602001916200212c565b820191906000526020600020905b8154815290600101906020018083116200210e57829003601f168201915b505050505090806002018054620021439062002ff7565b80601f0160208091040260200160405190810160405280929190818152602001828054620021719062002ff7565b8015620021c25780601f106200219657610100808354040283529160200191620021c2565b820191906000526020600020905b815481529060010190602001808311620021a457829003601f168201915b505050506003830154600584015460069094015492936001600160a01b039091169290915060ff8082169161010090041687565b6200220062002879565b60005b600254811015620024bc57826002828154811062002225576200222562002fc5565b90600052602060002090600702016000015403620024a7576002818154811062002253576200225362002fc5565b90600052602060002090600702016040518061010001604052908160008201548152602001600182018054620022899062002ff7565b80601f0160208091040260200160405190810160405280929190818152602001828054620022b79062002ff7565b8015620023085780601f10620022dc5761010080835404028352916020019162002308565b820191906000526020600020905b815481529060010190602001808311620022ea57829003601f168201915b50505050508152602001600282018054620023239062002ff7565b80601f0160208091040260200160405190810160405280929190818152602001828054620023519062002ff7565b8015620023a25780601f106200237657610100808354040283529160200191620023a2565b820191906000526020600020905b8154815290600101906020018083116200238457829003601f168201915b505050918352505060038201546001600160a01b031660208083019190915260048301805460408051828502810185018252828152940193928301828280156200241657602002820191906000526020600020905b81546001600160a01b03168152600190910190602001808311620023f7575b505050918352505060058201546020820152600682015460409091019060ff1660038111156200244a576200244a62002b89565b60038111156200245e576200245e62002b89565b81526020016006820160019054906101000a900460ff16600381111562002489576200248962002b89565b60038111156200249d576200249d62002b89565b9052509392505050565b80620024b38162002fdb565b91505062002203565b5060405162461bcd60e51b815260206004820152601060248201527f506174656e74206e6f7420666f756e6400000000000000000000000000000000604482015260640162000422565b6000805b82518110156200256a57836001600160a01b031683828151811062002533576200253362002fc5565b60200260200101516001600160a01b0316036200255557600191505062001569565b80620025618162002fdb565b9150506200250a565b5060009392505050565b6000805b600254811015620025cd5782600282815481106200259a576200259a62002fc5565b90600052602060002090600702016000015403620025b85792915050565b80620025c48162002fdb565b91505062002578565b5060405162461bcd60e51b815260206004820152601660248201527f506174656e7420696e646578206e6f7420666f756e6400000000000000000000604482015260640162000422565b60606000805b84518110156200267b57836001600160a01b031685828151811062002646576200264662002fc5565b60200260200101516001600160a01b03160362002666578091506200267b565b80620026728162002fdb565b9150506200261d565b5083518110156200271457805b60018551620026989190620031e2565b8110156200270b5784620026ae82600162002f74565b81518110620026c157620026c162002fc5565b6020026020010151858281518110620026de57620026de62002fc5565b6001600160a01b039092166020928302919091019091015280620027028162002fdb565b91505062002688565b50600184510384525b509192915050565b60025482106200276f5760405162461bcd60e51b815260206004820152600d60248201527f496e76616c696420696e64657800000000000000000000000000000000000000604482015260640162000422565b806002838154811062002786576200278662002fc5565b9060005260206000209060070201600082015181600001556020820151816001019081620027b5919062003115565b5060408201516002820190620027cc908262003115565b5060608201516003820180546001600160a01b0319166001600160a01b039092169190911790556080820151805162002810916004840191602090910190620028dd565b5060a0820151600582015560c082015160068201805460ff1916600183600381111562002841576200284162002b89565b021790555060e082015160068201805461ff0019166101008360038111156200286e576200286e62002b89565b021790555050505050565b60405180610100016040528060008019168152602001606081526020016060815260200160006001600160a01b03168152602001606081526020016000815260200160006003811115620028d157620028d162002b89565b81526020016000905290565b82805482825590600052602060002090810192821562002935579160200282015b828111156200293557825182546001600160a01b0319166001600160a01b03909116178255602090920191600190910190620028fe565b506200294392915062002955565b5090565b610c1680620031f983390190565b5b8082111562002943576000815560010162002956565b6000602082840312156200297f57600080fd5b5035919050565b805182526020810151620029a560208401826001600160a01b03169052565b506040810151620029c160408401826001600160a01b03169052565b506060810151620029dd60608401826001600160a01b03169052565b506080810151608083015260a081015160a083015260c081015160c083015260e081015160e08301526101008082015162002a1b8285018215159052565b5050610120818101518015158483015262000f37565b6020808252825182820181905260009190848201906040850190845b8181101562002a785762002a6383855162002986565b92840192610140929092019160010162002a4d565b50909695505050505050565b6001600160a01b038116811462002a9a57600080fd5b50565b6000806040838503121562002ab157600080fd5b82359150602083013562002ac58162002a84565b809150509250929050565b6000806040838503121562002ae457600080fd5b8235915060208301356004811062002ac557600080fd5b6000815180845260005b8181101562002b235760208185018101518683018201520162002b05565b506000602082860101526020601f19601f83011685010191505092915050565b600081518084526020808501945080840160005b8381101562002b7e5781516001600160a01b03168752958201959082019060010162002b57565b509495945050505050565b634e487b7160e01b600052602160045260246000fd5b6004811062002bbe57634e487b7160e01b600052602160045260246000fd5b9052565b60006020808301818452808551808352604092508286019150828160051b87010184880160005b8381101562002cbd57603f1989840301855281516101008151855288820151818a87015262002c1b8287018262002afb565b915050878201518582038987015262002c35828262002afb565b91505060608083015162002c53828801826001600160a01b03169052565b50506080808301518683038288015262002c6e838262002b43565b9250505060a080830151818701525060c08083015162002c918288018262002b9f565b505060e0918201519162002ca88682018462002b9f565b50958801959350509086019060010162002be9565b509098975050505050505050565b610140810162001569828462002986565b60006020808301818452808551808352604092508286019150828160051b8701018488016000805b8481101562002d7d57898403603f19018652825180518552880151888501889052805188860181905290890190839060608701905b8083101562002d675762002d4f82855162002986565b610140820191508b8401935060018301925062002d39565b50978a0197955050509187019160010162002d04565b50919998505050505050505050565b634e487b7160e01b600052604160045260246000fd5b600082601f83011262002db457600080fd5b813567ffffffffffffffff8082111562002dd25762002dd262002d8c565b604051601f8301601f19908116603f0116810190828211818310171562002dfd5762002dfd62002d8c565b8160405283815286602085880101111562002e1757600080fd5b836020870160208301376000602085830101528094505050505092915050565b6000806040838503121562002e4b57600080fd5b823567ffffffffffffffff8082111562002e6457600080fd5b62002e728683870162002da2565b9350602085013591508082111562002e8957600080fd5b5062002e988582860162002da2565b9150509250929050565b600080600080600060a0868803121562002ebb57600080fd5b85359450602086013562002ecf8162002a84565b94979496505050506040830135926060810135926080909101359150565b87815260e06020820152600062002f0860e083018962002afb565b828103604084015262002f1c818962002afb565b9150506001600160a01b038616606083015284608083015262002f4360a083018562002b9f565b62002f5260c083018462002b9f565b98975050505050505050565b634e487b7160e01b600052601160045260246000fd5b8082018082111562001569576200156962002f5e565b8051801515811462002f9b57600080fd5b919050565b60006020828403121562002fb357600080fd5b62002fbe8262002f8a565b9392505050565b634e487b7160e01b600052603260045260246000fd5b60006001820162002ff05762002ff062002f5e565b5060010190565b600181811c908216806200300c57607f821691505b602082108103620016a557634e487b7160e01b600052602260045260246000fd5b60008060008060008060008060006101208a8c0312156200304d57600080fd5b8951985060208a0151620030618162002a84565b60408b0151909850620030748162002a84565b8097505060608a0151955060808a0151945060a08a0151935060c08a01519250620030a260e08b0162002f8a565b9150620030b36101008b0162002f8a565b90509295985092959850929598565b601f8211156200311057600081815260208120601f850160051c81016020861015620030eb5750805b601f850160051c820191505b818110156200310c57828155600101620030f7565b5050505b505050565b815167ffffffffffffffff81111562003132576200313262002d8c565b6200314a8162003143845462002ff7565b84620030c2565b602080601f831160018114620031825760008415620031695750858301515b600019600386901b1c1916600185901b1785556200310c565b600085815260208120601f198616915b82811015620031b35788860151825594840194600190910190840162003192565b5085821015620031d25787850151600019600388901b60f8161c191681555b5050505050600190811b01905550565b8181038181111562001569576200156962002f5e56fe608060405234801561001057600080fd5b50604051610c16380380610c1683398101604081905261002f916101d2565b6000805460ff19169055610042336100bb565b6008869055600180546001600160a01b0319166001600160a01b03871617905560038490556004839055600582905561007b8342610232565b600655610086610114565b6007805460ff19169055600280546001600160a01b0319166001600160a01b0392909216919091179055506102599350505050565b600080546001600160a01b03838116610100818102610100600160a81b0319851617855560405193049190911692909183917f8be0079c531659141344cd1fd0a4f28419497f9722a3daafe3b4186f6b6457e091a35050565b61011c61016e565b6000805460ff191660011790557f62e78cea01bee320cd4e420270b5ea74000d11b0c9f74754ebdbfc544b05a2586101513390565b6040516001600160a01b03909116815260200160405180910390a1565b60005460ff16156101b85760405162461bcd60e51b815260206004820152601060248201526f14185d5cd8589b194e881c185d5cd95960821b604482015260640160405180910390fd5b565b6001600160a01b03811681146101cf57600080fd5b50565b60008060008060008060c087890312156101eb57600080fd5b8651955060208701516101fd816101ba565b8095505060408701519350606087015192506080870151915060a0870151610224816101ba565b809150509295509295509295565b8082018082111561025357634e487b7160e01b600052601160045260246000fd5b92915050565b6109ae806102686000396000f3fe60806040526004361061012d5760003560e01c806385474728116100a55780638f813d6411610074578063b8997a9711610059578063b8997a971461032a578063f2a6f21514610340578063f2fde38b1461035557600080fd5b80638f813d64146102fb578063a00ce3771461031557600080fd5b806385474728146102975780638654aa34146102ac5780638da5cb5b146102c25780638f620487146102e557600080fd5b80635c975abb116100fc578063715018a6116100e1578063715018a6146102035780637826a4e4146102185780637cc1f8671461022e57600080fd5b80635c975abb146101bf5780635e3044cb146101e357600080fd5b80631cc1cf4614610141578063212d67231461016a57806329e20d5b14610172578063567ad9841461018757600080fd5b3661013c5761013a610375565b005b600080fd5b34801561014d57600080fd5b5061015760045481565b6040519081526020015b60405180910390f35b61013a610375565b34801561017e57600080fd5b5061013a610581565b34801561019357600080fd5b506002546101a7906001600160a01b031681565b6040516001600160a01b039091168152602001610161565b3480156101cb57600080fd5b5060005460ff165b6040519015158152602001610161565b3480156101ef57600080fd5b506001546101a7906001600160a01b031681565b34801561020f57600080fd5b5061013a61059b565b34801561022457600080fd5b5061015760065481565b34801561023a57600080fd5b506102436105ad565b60408051998a526001600160a01b0398891660208b015296909716958801959095526060870193909352608086019190915260a085015260c0840152151560e0830152151561010082015261012001610161565b3480156102a357600080fd5b5061013a610618565b3480156102b857600080fd5b5061015760085481565b3480156102ce57600080fd5b5060005461010090046001600160a01b03166101a7565b3480156102f157600080fd5b5061015760055481565b34801561030757600080fd5b506007546101d39060ff1681565b34801561032157600080fd5b506101d3610630565b34801561033657600080fd5b5061015760035481565b34801561034c57600080fd5b506101d3610660565b34801561036157600080fd5b5061013a610370366004610908565b610674565b61037d610704565b6001546001600160a01b031633146104025760405162461bcd60e51b815260206004820152602260248201527f4f6e6c79206c6963656e7365652063616e207061792074686520726f79616c7460448201527f792e00000000000000000000000000000000000000000000000000000000000060648201526084015b60405180910390fd5b60035434146104535760405162461bcd60e51b815260206004820152601460248201527f496e636f7272656374206665652076616c75652e00000000000000000000000060448201526064016103f9565b6005546004546006546104669190610938565b11156104da5760405162461bcd60e51b815260206004820152603760248201527f546865207061796d656e7420657874656e73696f6e20696e74657276616c206560448201527f7863656564732065787069726174696f6e20646174652e00000000000000000060648201526084016103f9565b6002546040516001600160a01b03909116903480156108fc02916000818181858888f19350505050158015610513573d6000803e3d6000fd5b506004546006546105249190610938565b60068190556001546008546003546040516001600160a01b039093169330937f8df6c78c9e8b798b59502f3ab101992987a00e18af9e99e7ddc005375be490c59261057792908252602082015260400190565b60405180910390a4565b610589610757565b6105916107b7565b610599610809565b565b6105a3610757565b610599600061085b565b60008060008060008060008060006105c3610757565b6008546002546001546003546004546005546006546007546001600160a01b0396871696959095169460ff166105fb60005460ff1690565b985098509850985098509850985098509850909192939495969798565b610620610757565b610628610704565b6105996108cb565b600061063a610757565b60055442111561064a5750600090565b60065442111561065a5750600090565b50600190565b600061066a610757565b5060005460ff1690565b61067c610757565b6001600160a01b0381166106f85760405162461bcd60e51b815260206004820152602660248201527f4f776e61626c653a206e6577206f776e657220697320746865207a65726f206160448201527f646472657373000000000000000000000000000000000000000000000000000060648201526084016103f9565b6107018161085b565b50565b60005460ff16156105995760405162461bcd60e51b815260206004820152601060248201527f5061757361626c653a207061757365640000000000000000000000000000000060448201526064016103f9565b6000546001600160a01b036101009091041633146105995760405162461bcd60e51b815260206004820181905260248201527f4f776e61626c653a2063616c6c6572206973206e6f7420746865206f776e657260448201526064016103f9565b60005460ff166105995760405162461bcd60e51b815260206004820152601460248201527f5061757361626c653a206e6f742070617573656400000000000000000000000060448201526064016103f9565b6108116107b7565b6000805460ff191690557f5db9ee0a495bf2e6ff9c91a7834c1ba4fdd244a5e8aa4e537bd38aeae4b073aa335b6040516001600160a01b03909116815260200160405180910390a1565b600080546001600160a01b038381166101008181027fffffffffffffffffffffff0000000000000000000000000000000000000000ff851617855560405193049190911692909183917f8be0079c531659141344cd1fd0a4f28419497f9722a3daafe3b4186f6b6457e091a35050565b6108d3610704565b6000805460ff191660011790557f62e78cea01bee320cd4e420270b5ea74000d11b0c9f74754ebdbfc544b05a25861083e3390565b60006020828403121561091a57600080fd5b81356001600160a01b038116811461093157600080fd5b9392505050565b80820180821115610972577f4e487b7100000000000000000000000000000000000000000000000000000000600052601160045260246000fd5b9291505056fea26469706673582212206abfa231417b384efcdd17e06e891d4d76eda09ee810d13d23815a79f9c3abf264736f6c63430008120033a2646970667358221220a9a62ad77be778c716e8e60399d3597e2b4a97997df0828771f33d1b8b61714764736f6c63430008120033",
  "linkReferences": {},
  "deployedLinkReferences": {}
}