{
  "_format": "hh-sol-artifact-1",
  "contractName": "PatentManagement",
  "sourceName": "contracts/PatentManagement.sol",
  "abi": [
    {
      "inputs": [],
      "stateMutability": "nonpayable",
      "type": "constructor"
    },
    {
      "anonymous": false,
      "inputs": [
        {
          "indexed": true,
          "internalType": "bytes32",
          "name": "patentId",
          "type": "bytes32"
        },
        {
          "indexed": true,
          "internalType": "address",
          "name": "owner",
          "type": "address"
        },
        {
          "indexed": false,
          "internalType": "uint256",
          "name": "expirationDate",
          "type": "uint256"
        }
      ],
      "name": "PatentDraftSubmitted",
      "type": "event"
    },
    {
      "anonymous": false,
      "inputs": [
        {
          "indexed": true,
          "internalType": "bytes32",
          "name": "patentId",
          "type": "bytes32"
        },
        {
          "indexed": true,
          "internalType": "address",
          "name": "owner",
          "type": "address"
        },
        {
          "indexed": false,
          "internalType": "uint256",
          "name": "expirationDate",
          "type": "uint256"
        }
      ],
      "name": "PatentExtended",
      "type": "event"
    },
    {
      "anonymous": false,
      "inputs": [
        {
          "indexed": true,
          "internalType": "bytes32",
          "name": "patentId",
          "type": "bytes32"
        },
        {
          "indexed": true,
          "internalType": "address",
          "name": "owner",
          "type": "address"
        },
        {
          "indexed": false,
          "internalType": "uint256",
          "name": "expirationDate",
          "type": "uint256"
        }
      ],
      "name": "PatentExtensionApproved",
      "type": "event"
    },
    {
      "anonymous": false,
      "inputs": [
        {
          "indexed": true,
          "internalType": "bytes32",
          "name": "patentId",
          "type": "bytes32"
        },
        {
          "indexed": true,
          "internalType": "address",
          "name": "owner",
          "type": "address"
        },
        {
          "indexed": false,
          "internalType": "uint256",
          "name": "expirationDate",
          "type": "uint256"
        }
      ],
      "name": "PatentExtensionRejected",
      "type": "event"
    },
    {
      "anonymous": false,
      "inputs": [
        {
          "indexed": true,
          "internalType": "bytes32",
          "name": "patentId",
          "type": "bytes32"
        },
        {
          "indexed": true,
          "internalType": "address",
          "name": "owner",
          "type": "address"
        },
        {
          "indexed": false,
          "internalType": "uint256",
          "name": "expirationDate",
          "type": "uint256"
        }
      ],
      "name": "PatentGranted",
      "type": "event"
    },
    {
      "anonymous": false,
      "inputs": [
        {
          "indexed": true,
          "internalType": "bytes32",
          "name": "patentId",
          "type": "bytes32"
        },
        {
          "indexed": true,
          "internalType": "address",
          "name": "owner",
          "type": "address"
        },
        {
          "indexed": false,
          "internalType": "uint256",
          "name": "expirationDate",
          "type": "uint256"
        }
      ],
      "name": "PatentRevoked",
      "type": "event"
    },
    {
      "anonymous": false,
      "inputs": [
        {
          "indexed": true,
          "internalType": "bytes32",
          "name": "patentId",
          "type": "bytes32"
        },
        {
          "indexed": true,
          "internalType": "address",
          "name": "lincesedOrgRoyaltyContract",
          "type": "address"
        },
        {
          "indexed": true,
          "internalType": "address",
          "name": "licensee",
          "type": "address"
        }
      ],
      "name": "RoyaltyContractApproved",
      "type": "event"
    },
    {
      "anonymous": false,
      "inputs": [
        {
          "indexed": true,
          "internalType": "bytes32",
          "name": "patentId",
          "type": "bytes32"
        },
        {
          "indexed": true,
          "internalType": "address",
          "name": "licensor",
          "type": "address"
        },
        {
          "indexed": false,
          "internalType": "uint256",
          "name": "royaltyFee",
          "type": "uint256"
        },
        {
          "indexed": false,
          "internalType": "uint256",
          "name": "paymentInterval",
          "type": "uint256"
        },
        {
          "indexed": true,
          "internalType": "address",
          "name": "licensee",
          "type": "address"
        },
        {
          "indexed": false,
          "internalType": "address",
          "name": "royaltyContractAddress",
          "type": "address"
        }
      ],
      "name": "RoyaltyContractCreated",
      "type": "event"
    },
    {
      "anonymous": false,
      "inputs": [
        {
          "indexed": true,
          "internalType": "bytes32",
          "name": "patentId",
          "type": "bytes32"
        },
        {
          "indexed": true,
          "internalType": "address",
          "name": "licensee",
          "type": "address"
        },
        {
          "indexed": true,
          "internalType": "address",
          "name": "lincesedOrgRoyaltyContract",
          "type": "address"
        }
      ],
      "name": "RoyaltyContractDestroyed",
      "type": "event"
    },
    {
      "anonymous": false,
      "inputs": [
        {
          "indexed": true,
          "internalType": "bytes32",
          "name": "patentId",
          "type": "bytes32"
        },
        {
          "indexed": true,
          "internalType": "address",
          "name": "licensee",
          "type": "address"
        },
        {
          "indexed": true,
          "internalType": "address",
          "name": "lincesedOrgRoyaltyContract",
          "type": "address"
        }
      ],
      "name": "RoyaltyContractVerified",
      "type": "event"
    },
    {
      "inputs": [],
      "name": "DRAFT_FEE",
      "outputs": [
        {
          "internalType": "uint256",
          "name": "",
          "type": "uint256"
        }
      ],
      "stateMutability": "view",
      "type": "function"
    },
    {
      "inputs": [],
      "name": "EXNTENSION_DURATION",
      "outputs": [
        {
          "internalType": "uint256",
          "name": "",
          "type": "uint256"
        }
      ],
      "stateMutability": "view",
      "type": "function"
    },
    {
      "inputs": [],
      "name": "EXPIRATION_DURATION",
      "outputs": [
        {
          "internalType": "uint256",
          "name": "",
          "type": "uint256"
        }
      ],
      "stateMutability": "view",
      "type": "function"
    },
    {
      "inputs": [],
      "name": "admin",
      "outputs": [
        {
          "internalType": "address payable",
          "name": "",
          "type": "address"
        }
      ],
      "stateMutability": "view",
      "type": "function"
    },
    {
      "inputs": [
        {
          "internalType": "bytes32",
          "name": "_patentId",
          "type": "bytes32"
        }
      ],
      "name": "approveRoyaltyContract",
      "outputs": [],
      "stateMutability": "nonpayable",
      "type": "function"
    },
    {
      "inputs": [
        {
          "internalType": "bytes32",
          "name": "_patentId",
          "type": "bytes32"
        },
        {
          "internalType": "address",
          "name": "_licensee",
          "type": "address"
        }
      ],
      "name": "checkValidityOfRoyaltyContract",
      "outputs": [],
      "stateMutability": "nonpayable",
      "type": "function"
    },
    {
      "inputs": [
        {
          "internalType": "bytes32",
          "name": "_patentId",
          "type": "bytes32"
        },
        {
          "internalType": "address",
          "name": "_licensee",
          "type": "address"
        },
        {
          "internalType": "uint256",
          "name": "_royaltyFee",
          "type": "uint256"
        },
        {
          "internalType": "uint256",
          "name": "_paymentInterval",
          "type": "uint256"
        },
        {
          "internalType": "uint256",
          "name": "_contractExpirationPeriod",
          "type": "uint256"
        }
      ],
      "name": "createRoyaltyContract",
      "outputs": [],
      "stateMutability": "nonpayable",
      "type": "function"
    },
    {
      "inputs": [
        {
          "internalType": "bytes32",
          "name": "_patentId",
          "type": "bytes32"
        },
        {
          "internalType": "address",
          "name": "_licensee",
          "type": "address"
        }
      ],
      "name": "destroyRoyaltyContract",
      "outputs": [],
      "stateMutability": "nonpayable",
      "type": "function"
    },
    {
      "inputs": [
        {
          "internalType": "bytes32",
          "name": "_patentId",
          "type": "bytes32"
        }
      ],
      "name": "extendExpirationDateOfPatent",
      "outputs": [],
      "stateMutability": "nonpayable",
      "type": "function"
    },
    {
      "inputs": [
        {
          "internalType": "bytes32",
          "name": "_patentId",
          "type": "bytes32"
        },
        {
          "internalType": "address",
          "name": "_licensee",
          "type": "address"
        }
      ],
      "name": "getContractAddressForLicensee",
      "outputs": [
        {
          "internalType": "address",
          "name": "",
          "type": "address"
        }
      ],
      "stateMutability": "view",
      "type": "function"
    },
    {
      "inputs": [
        {
          "internalType": "bytes32",
          "name": "_patentId",
          "type": "bytes32"
        }
      ],
      "name": "getPatentData",
      "outputs": [
        {
          "internalType": "bytes32",
          "name": "",
          "type": "bytes32"
        },
        {
          "internalType": "string",
          "name": "",
          "type": "string"
        },
        {
          "internalType": "address",
          "name": "",
          "type": "address"
        },
        {
          "internalType": "address[]",
          "name": "",
          "type": "address[]"
        },
        {
          "internalType": "uint256",
          "name": "",
          "type": "uint256"
        },
        {
          "internalType": "enum PatentManagement.Status",
          "name": "",
          "type": "uint8"
        },
        {
          "internalType": "enum PatentManagement.Status",
          "name": "",
          "type": "uint8"
        }
      ],
      "stateMutability": "view",
      "type": "function"
    },
    {
      "inputs": [
        {
          "internalType": "bytes32",
          "name": "_patentId",
          "type": "bytes32"
        },
        {
          "internalType": "enum PatentManagement.Status",
          "name": "_newExtensionState",
          "type": "uint8"
        }
      ],
      "name": "handlePatentExtensionRequest",
      "outputs": [],
      "stateMutability": "nonpayable",
      "type": "function"
    },
    {
      "inputs": [
        {
          "internalType": "bytes32",
          "name": "_patentId",
          "type": "bytes32"
        },
        {
          "internalType": "enum PatentManagement.Status",
          "name": "_newPatentStatus",
          "type": "uint8"
        }
      ],
      "name": "handlePatentState",
      "outputs": [],
      "stateMutability": "nonpayable",
      "type": "function"
    },
    {
      "inputs": [
        {
          "internalType": "uint256",
          "name": "",
          "type": "uint256"
        }
      ],
      "name": "patents",
      "outputs": [
        {
          "internalType": "bytes32",
          "name": "id",
          "type": "bytes32"
        },
        {
          "internalType": "string",
          "name": "title",
          "type": "string"
        },
        {
          "internalType": "address",
          "name": "owner",
          "type": "address"
        },
        {
          "internalType": "uint256",
          "name": "expirationDate",
          "type": "uint256"
        },
        {
          "internalType": "enum PatentManagement.Status",
          "name": "expirationExtension",
          "type": "uint8"
        },
        {
          "internalType": "enum PatentManagement.Status",
          "name": "status",
          "type": "uint8"
        }
      ],
      "stateMutability": "view",
      "type": "function"
    },
    {
      "inputs": [
        {
          "internalType": "bytes32",
          "name": "_patentId",
          "type": "bytes32"
        }
      ],
      "name": "requestExtension",
      "outputs": [],
      "stateMutability": "nonpayable",
      "type": "function"
    },
    {
      "inputs": [
        {
          "internalType": "string",
          "name": "_title",
          "type": "string"
        }
      ],
      "name": "submitDraftPatent",
      "outputs": [],
      "stateMutability": "payable",
      "type": "function"
    },
    {
      "inputs": [],
      "name": "viewPatents",
      "outputs": [
        {
          "components": [
            {
              "internalType": "bytes32",
              "name": "id",
              "type": "bytes32"
            },
            {
              "internalType": "string",
              "name": "title",
              "type": "string"
            },
            {
              "internalType": "address",
              "name": "owner",
              "type": "address"
            },
            {
              "internalType": "address[]",
              "name": "licensees",
              "type": "address[]"
            },
            {
              "internalType": "uint256",
              "name": "expirationDate",
              "type": "uint256"
            },
            {
              "internalType": "enum PatentManagement.Status",
              "name": "expirationExtension",
              "type": "uint8"
            },
            {
              "internalType": "enum PatentManagement.Status",
              "name": "status",
              "type": "uint8"
            }
          ],
          "internalType": "struct PatentManagement.Patent[]",
          "name": "",
          "type": "tuple[]"
        }
      ],
      "stateMutability": "view",
      "type": "function"
    }
  ],
  "bytecode": "0x608060405234801561001057600080fd5b50600080546001600160a01b03191633179055613684806100326000396000f3fe608060405260043610620001245760003560e01c8063b4a8964811620000b2578063e42030d6116200007d578063eea2c59c1162000060578063eea2c59c146200034e578063f422bc681462000373578063f851a44014620003ac57600080fd5b8063e42030d61462000312578063edc4f615146200032957600080fd5b8063b4a896481462000290578063c131ffef14620002b5578063c823148514620002cf578063caa6e39314620002f457600080fd5b806342fc1ffb11620000f357806342fc1ffb14620001e15780634bc18671146200021f5780635992950114620002445780639c6cabb2146200026b57600080fd5b80631c4b109914620001295780631d78a4df146200016c5780632794a63d146200019357806334edf22814620001bc575b600080fd5b3480156200013657600080fd5b506200014e62000148366004620023e5565b620003ce565b604051620001639796959493929190620024c6565b60405180910390f35b3480156200017957600080fd5b50620001916200018b366004620023e5565b6200041f565b005b348015620001a057600080fd5b50620001ad632598060081565b60405190815260200162000163565b348015620001c957600080fd5b5062000191620001db36600462002554565b6200067a565b348015620001ee57600080fd5b50620002066200020036600462002554565b620009ab565b6040516001600160a01b03909116815260200162000163565b3480156200022c57600080fd5b50620001916200023e36600462002583565b620009d7565b3480156200025157600080fd5b506200025c62000bd3565b604051620001639190620025b9565b3480156200027857600080fd5b50620001916200028a36600462002554565b62000dce565b3480156200029d57600080fd5b5062000191620002af366004620023e5565b62001131565b348015620002c257600080fd5b50620001ad630966018081565b348015620002dc57600080fd5b5062000191620002ee36600462002583565b62001392565b3480156200030157600080fd5b50620001ad6729a2241af62c000081565b6200019162000323366004620026b1565b62001567565b3480156200033657600080fd5b506200019162000348366004620023e5565b62001842565b3480156200035b57600080fd5b50620001916200036d3660046200276c565b6200197f565b3480156200038057600080fd5b506200039862000392366004620023e5565b62001c3e565b6040516200016396959493929190620027b5565b348015620003b957600080fd5b5060005462000206906001600160a01b031681565b6000606060006060600080600080620003e78962001d29565b8051602082015160408301516060840151608085015160a086015160c090960151949f939e50919c509a509850919650945092505050565b8060006200042d8262001d29565b6060015190506200043f338262001f9e565b620004b75760405162461bcd60e51b815260206004820152602d60248201527f4f6e6c7920706174656e74206c6963656e7365652063616e20706572666f726d60448201527f207468697320616374696f6e2e0000000000000000000000000000000000000060648201526084015b60405180910390fd5b6000620004c48462001d29565b905060028160c001516003811115620004e157620004e16200248d565b14620005265760405162461bcd60e51b81526020600482015260136024820152722830ba32b73a103737ba1033b930b73a32b21760691b6044820152606401620004ae565b62000535426201518062002826565b816080015111620005985760405162461bcd60e51b815260206004820152602660248201527f506174656e742077696c6c2065787069726520696e206c657373207468616e2060448201526518903230bc9760d11b6064820152608401620004ae565b60008481526001602090815260408083203384529091528082205481517f29e20d5b00000000000000000000000000000000000000000000000000000000815291516001600160a01b039091169283926329e20d5b926004808301939282900301818387803b1580156200060b57600080fd5b505af115801562000620573d6000803e3d6000fd5b50505060008681526001602090815260408083203380855292528083205490519193506001600160a01b03169188917f4be16d196ea0c91556663a891d4a2eab5a2bbb8a0dc8430d276e549e26807cbc9190a45050505050565b8133620006878262001d29565b604001516001600160a01b031614620006f65760405162461bcd60e51b815260206004820152602a60248201527f4f6e6c7920706174656e74206f776e65722063616e20706572666f726d20746860448201526934b99030b1ba34b7b71760b11b6064820152608401620004ae565b6000620007038462001d29565b9050600062000712856200200c565b905060028260c0015160038111156200072f576200072f6200248d565b14620007745760405162461bcd60e51b81526020600482015260136024820152722830ba32b73a103737ba1033b930b73a32b21760691b6044820152606401620004ae565b60008581526001602090815260408083206001600160a01b0380891685529252909120541680620007e85760405162461bcd60e51b815260206004820152601f60248201527f526f79616c747920636f6e747261637420646f6573206e6f74206578697374006044820152606401620004ae565b80620007f8426201518062002826565b846080015110806200086c5750806001600160a01b031663a00ce3776040518163ffffffff1660e01b8152600401602060405180830381865afa15801562000844573d6000803e3d6000fd5b505050506040513d601f19601f820116820180604052508101906200086a91906200283c565b155b156200096057806001600160a01b031663854747286040518163ffffffff1660e01b8152600401600060405180830381600087803b158015620008ae57600080fd5b505af1158015620008c3573d6000803e3d6000fd5b50505060008881526001602090815260408083206001600160a01b038b168452909152902080546001600160a01b0319169055506060840151620009089087620020af565b6060850152620009198385620021b4565b816001600160a01b0316866001600160a01b0316887f9d6027a530e82351d1b8fcd1d84d64dc5970b753233c5e6c9c339d193cc0729660405160405180910390a4620009a2565b816001600160a01b0316866001600160a01b0316887f8ceab313e0f6f25256b2fda24fd981578c842fd28aa65d222cc46b42a9f8da3860405160405180910390a45b50505050505050565b60008281526001602090815260408083206001600160a01b038086168552925290912054165b92915050565b6000546001600160a01b0316331462000a3f5760405162461bcd60e51b815260206004820152602360248201527f4f6e6c792061646d696e2063616e20706572666f726d2074686973206163746960448201526237b71760e91b6064820152608401620004ae565b600062000a4c8362001d29565b9050600062000a5b846200200c565b905060018260a00151600381111562000a785762000a786200248d565b1462000ad15760405162461bcd60e51b815260206004820152602160248201527f506174656e74206973206e6f7420696e207265717565737465642073746174656044820152601760f91b6064820152608401620004ae565b60a0820183600381111562000aea5762000aea6200248d565b9081600381111562000b005762000b006200248d565b90525062000b0f8183620021b4565b600283600381111562000b265762000b266200248d565b0362000b7f5781604001516001600160a01b0316847f6bcbf68bf6f99ade7ea084c126b4e5b40d157224ea57a7d3c916780d8c828d47846080015160405162000b7191815260200190565b60405180910390a362000bcd565b81604001516001600160a01b0316847f726791534415f84e05ba743be4e62982dcfc5fb795d826d2e48a9ad7a1c33961846080015160405162000bc491815260200190565b60405180910390a35b50505050565b60606002805480602002602001604051908101604052809291908181526020016000905b8282101562000dc557838290600052602060002090600602016040518060e00160405290816000820154815260200160018201805462000c379062002867565b80601f016020809104026020016040519081016040528092919081815260200182805462000c659062002867565b801562000cb65780601f1062000c8a5761010080835404028352916020019162000cb6565b820191906000526020600020905b81548152906001019060200180831162000c9857829003601f168201915b505050918352505060028201546001600160a01b0316602080830191909152600383018054604080518285028101850182528281529401939283018282801562000d2a57602002820191906000526020600020905b81546001600160a01b0316815260019091019060200180831162000d0b575b505050918352505060048201546020820152600582015460409091019060ff16600381111562000d5e5762000d5e6200248d565b600381111562000d725762000d726200248d565b81526020016005820160019054906101000a900460ff16600381111562000d9d5762000d9d6200248d565b600381111562000db15762000db16200248d565b815250508152602001906001019062000bf7565b50505050905090565b813362000ddb8262001d29565b604001516001600160a01b03161462000e4a5760405162461bcd60e51b815260206004820152602a60248201527f4f6e6c7920706174656e74206f776e65722063616e20706572666f726d20746860448201526934b99030b1ba34b7b71760b11b6064820152608401620004ae565b600062000e578462001d29565b9050600062000e66856200200c565b905060028260c00151600381111562000e835762000e836200248d565b1462000ec85760405162461bcd60e51b81526020600482015260136024820152722830ba32b73a103737ba1033b930b73a32b21760691b6044820152606401620004ae565b60008581526001602090815260408083206001600160a01b038089168552925290912054168062000f3c5760405162461bcd60e51b815260206004820152601f60248201527f526f79616c747920636f6e747261637420646f6573206e6f74206578697374006044820152606401620004ae565b6000819050806001600160a01b03166328f4ddae6040518163ffffffff1660e01b8152600401602060405180830381865afa15801562000f80573d6000803e3d6000fd5b505050506040513d601f19601f8201168201806040525081019062000fa691906200283c565b620010405760405162461bcd60e51b815260206004820152604160248201527f4c6963656e73656520686173206e6f7420617070726f7665642074686520646560448201527f737472756374696f6e206f662074686520726f79616c747920636f6e7472616360648201527f7400000000000000000000000000000000000000000000000000000000000000608482015260a401620004ae565b806001600160a01b031663854747286040518163ffffffff1660e01b8152600401600060405180830381600087803b1580156200107c57600080fd5b505af115801562001091573d6000803e3d6000fd5b50505060008881526001602090815260408083206001600160a01b038b168452909152902080546001600160a01b0319169055506060840151620010d69087620020af565b6060850152620010e78385620021b4565b816001600160a01b0316866001600160a01b0316887f9d6027a530e82351d1b8fcd1d84d64dc5970b753233c5e6c9c339d193cc0729660405160405180910390a450505050505050565b6000546001600160a01b03163314620011995760405162461bcd60e51b815260206004820152602360248201527f4f6e6c792061646d696e2063616e20706572666f726d2074686973206163746960448201526237b71760e91b6064820152608401620004ae565b6000620011a68262001d29565b90506000620011b5836200200c565b905060028260c001516003811115620011d257620011d26200248d565b14620012175760405162461bcd60e51b81526020600482015260136024820152722830ba32b73a103737ba1033b930b73a32b21760691b6044820152606401620004ae565b60018260a0015160038111156200123257620012326200248d565b14620012a75760405162461bcd60e51b815260206004820152602660248201527f506174656e7420657874656e73696f6e206e6f7420696e2050656e64696e672060448201527f73746174652e00000000000000000000000000000000000000000000000000006064820152608401620004ae565b620012b6426201518062002826565b826080015111620013195760405162461bcd60e51b815260206004820152602660248201527f506174656e742077696c6c2065787069726520696e206c657373207468616e2060448201526518903230bc9760d11b6064820152608401620004ae565b63096601808260800181815162001331919062002826565b905250620013408183620021b4565b81604001516001600160a01b0316837ff98eed706510d9a1701d066e60f7a5cab98976e98aca8cc5b0498fe2cf89272a84608001516040516200138591815260200190565b60405180910390a3505050565b6000546001600160a01b03163314620013fa5760405162461bcd60e51b815260206004820152602360248201527f4f6e6c792061646d696e2063616e20706572666f726d2074686973206163746960448201526237b71760e91b6064820152608401620004ae565b6000620014078362001d29565b9050600062001416846200200c565b905060018260c0015160038111156200143357620014336200248d565b14620014825760405162461bcd60e51b815260206004820152601f60248201527f506174656e74206973206e6f7420696e2050656e64696e672073746174652e006044820152606401620004ae565b60c082018360038111156200149b576200149b6200248d565b90816003811115620014b157620014b16200248d565b905250620014c08183620021b4565b6002836003811115620014d757620014d76200248d565b03620015225781604001516001600160a01b0316847fb6c2e5af6df126b1e5cd8151444445747245b128daac3756a2b2d3b6ab59dff8846080015160405162000b7191815260200190565b81604001516001600160a01b0316847f4359dd938d1b13dc419fa9142e7a432f7272e1c903f9ea19d9f71b1e576069d4846080015160405162000bc491815260200190565b6000546001600160a01b03163303620015cd5760405162461bcd60e51b815260206004820152602160248201527f41646d696e2063616e6e6f74207375626d697420647261667420706174656e746044820152601760f91b6064820152608401620004ae565b6729a2241af62c00003414620016265760405162461bcd60e51b815260206004820152601360248201527f496e636f727265637420647261667420666565000000000000000000000000006044820152606401620004ae565b6040516bffffffffffffffffffffffff193360601b1660208201524260348201526000906054016040516020818303038152906040528051906020012090506200166f620022fa565b818152602081018390523360408201526200168f63259806004262002826565b6080820152600160c08201819052600060a08301819052600280549283018155905281517f405787fa12a823e0f2b7631cc41b3ba8828b3321ca811111fa75cd3aa3bb5ace6006909202918201908155602083015183927f405787fa12a823e0f2b7631cc41b3ba8828b3321ca811111fa75cd3aa3bb5acf0190620017159082620028f6565b5060408201516002820180546001600160a01b0319166001600160a01b03909216919091179055606082015180516200175991600384019160209091019062002356565b506080820151600482015560a082015160058201805460ff191660018360038111156200178a576200178a6200248d565b021790555060c082015160058201805461ff001916610100836003811115620017b757620017b76200248d565b02179055505050336001600160a01b0316827f0b7e06468bbc1595894d83e9ed1dc240758b3b49ef38665b19d6964d2294f6058360800151604051620017ff91815260200190565b60405180910390a3600080546040516001600160a01b03909116913480156108fc02929091818181858888f1935050505015801562000bcd573d6000803e3d6000fd5b80336200184f8262001d29565b604001516001600160a01b031614620018be5760405162461bcd60e51b815260206004820152602a60248201527f4f6e6c7920706174656e74206f776e65722063616e20706572666f726d20746860448201526934b99030b1ba34b7b71760b11b6064820152608401620004ae565b6000620018cb8362001d29565b90506000620018da846200200c565b905060008260a001516003811115620018f757620018f76200248d565b146200196c5760405162461bcd60e51b815260206004820152602360248201527f506174656e7420657874656e73696f6e20616c7265616479207265717565737460448201527f65642e00000000000000000000000000000000000000000000000000000000006064820152608401620004ae565b600160c083015262000bcd8183620021b4565b84336200198c8262001d29565b604001516001600160a01b031614620019fb5760405162461bcd60e51b815260206004820152602a60248201527f4f6e6c7920706174656e74206f776e65722063616e20706572666f726d20746860448201526934b99030b1ba34b7b71760b11b6064820152608401620004ae565b600062001a088762001d29565b9050600062001a17886200200c565b905060028260c00151600381111562001a345762001a346200248d565b1462001a795760405162461bcd60e51b81526020600482015260136024820152722830ba32b73a103737ba1033b930b73a32b21760691b6044820152606401620004ae565b62001a88426201518062002826565b82608001511162001aeb5760405162461bcd60e51b815260206004820152602660248201527f506174656e742077696c6c2065787069726520696e206c657373207468616e2060448201526518903230bc9760d11b6064820152608401620004ae565b600088888888883360405162001b0190620023c0565b9586526001600160a01b0394851660208701526040860193909352606085019190915260808401521660a082015260c001604051809103906000f08015801562001b4f573d6000803e3d6000fd5b5060008a81526001602081815260408084206001600160a01b038e81168652925290922080546001600160a01b03191692841692909217909155606085015180519293508a92909162001ba3919062002826565b8151811062001bb65762001bb6620029c3565b60200260200101906001600160a01b031690816001600160a01b03168152505062001be28284620021b4565b60408051888152602081018890526001600160a01b03838116828401529151918a169133918c917f614f6ab40eb754638ac2b892c0d2227b00cce60a04a08331e586ceca1dc1c0289181900360600190a4505050505050505050565b6002818154811062001c4f57600080fd5b6000918252602090912060069091020180546001820180549193509062001c769062002867565b80601f016020809104026020016040519081016040528092919081815260200182805462001ca49062002867565b801562001cf55780601f1062001cc95761010080835404028352916020019162001cf5565b820191906000526020600020905b81548152906001019060200180831162001cd757829003601f168201915b505050506002830154600484015460059094015492936001600160a01b039091169290915060ff8082169161010090041686565b62001d33620022fa565b60005b60025481101562001f5457826002828154811062001d585762001d58620029c3565b9060005260206000209060060201600001540362001f3f576002818154811062001d865762001d86620029c3565b90600052602060002090600602016040518060e00160405290816000820154815260200160018201805462001dbb9062002867565b80601f016020809104026020016040519081016040528092919081815260200182805462001de99062002867565b801562001e3a5780601f1062001e0e5761010080835404028352916020019162001e3a565b820191906000526020600020905b81548152906001019060200180831162001e1c57829003601f168201915b505050918352505060028201546001600160a01b0316602080830191909152600383018054604080518285028101850182528281529401939283018282801562001eae57602002820191906000526020600020905b81546001600160a01b0316815260019091019060200180831162001e8f575b505050918352505060048201546020820152600582015460409091019060ff16600381111562001ee25762001ee26200248d565b600381111562001ef65762001ef66200248d565b81526020016005820160019054906101000a900460ff16600381111562001f215762001f216200248d565b600381111562001f355762001f356200248d565b9052509392505050565b8062001f4b81620029d9565b91505062001d36565b5060405162461bcd60e51b815260206004820152601060248201527f506174656e74206e6f7420666f756e64000000000000000000000000000000006044820152606401620004ae565b6000805b82518110156200200257836001600160a01b031683828151811062001fcb5762001fcb620029c3565b60200260200101516001600160a01b03160362001fed576001915050620009d1565b8062001ff981620029d9565b91505062001fa2565b5060009392505050565b6000805b60025481101562002065578260028281548110620020325762002032620029c3565b90600052602060002090600602016000015403620020505792915050565b806200205c81620029d9565b91505062002010565b5060405162461bcd60e51b815260206004820152601660248201527f506174656e7420696e646578206e6f7420666f756e64000000000000000000006044820152606401620004ae565b60606000805b84518110156200211357836001600160a01b0316858281518110620020de57620020de620029c3565b60200260200101516001600160a01b031603620020fe5780915062002113565b806200210a81620029d9565b915050620020b5565b508351811015620021ac57805b60018551620021309190620029f5565b811015620021a357846200214682600162002826565b81518110620021595762002159620029c3565b6020026020010151858281518110620021765762002176620029c3565b6001600160a01b0390921660209283029190910190910152806200219a81620029d9565b91505062002120565b50600184510384525b509192915050565b6002548210620022075760405162461bcd60e51b815260206004820152600d60248201527f496e76616c696420696e646578000000000000000000000000000000000000006044820152606401620004ae565b80600283815481106200221e576200221e620029c3565b90600052602060002090600602016000820151816000015560208201518160010190816200224d9190620028f6565b5060408201516002820180546001600160a01b0319166001600160a01b03909216919091179055606082015180516200229191600384019160209091019062002356565b506080820151600482015560a082015160058201805460ff19166001836003811115620022c257620022c26200248d565b021790555060c082015160058201805461ff001916610100836003811115620022ef57620022ef6200248d565b021790555050505050565b6040518060e00160405280600080191681526020016060815260200160006001600160a01b031681526020016060815260200160008152602001600060038111156200234a576200234a6200248d565b81526020016000905290565b828054828255906000526020600020908101928215620023ae579160200282015b82811115620023ae57825182546001600160a01b0319166001600160a01b0390911617825560209092019160019091019062002377565b50620023bc929150620023ce565b5090565b610c438062002a0c83390190565b5b80821115620023bc5760008155600101620023cf565b600060208284031215620023f857600080fd5b5035919050565b6000815180845260005b81811015620024275760208185018101518683018201520162002409565b506000602082860101526020601f19601f83011685010191505092915050565b600081518084526020808501945080840160005b83811015620024825781516001600160a01b0316875295820195908201906001016200245b565b509495945050505050565b634e487b7160e01b600052602160045260246000fd5b60048110620024c257634e487b7160e01b600052602160045260246000fd5b9052565b87815260e060208201526000620024e160e0830189620023ff565b6001600160a01b0388166040840152828103606084015262002504818862002447565b9150508460808301526200251c60a0830185620024a3565b6200252b60c0830184620024a3565b98975050505050505050565b80356001600160a01b03811681146200254f57600080fd5b919050565b600080604083850312156200256857600080fd5b823591506200257a6020840162002537565b90509250929050565b600080604083850312156200259757600080fd5b82359150602083013560048110620025ae57600080fd5b809150509250929050565b60006020808301818452808551808352604092508286019150828160051b87010184880160005b838110156200268d57603f19898403018552815160e08151855288820151818a8701526200261182870182620023ff565b9150506001600160a01b03888301511688860152606080830151868303828801526200263e838262002447565b92505050608080830151818701525060a0808301516200266182880182620024a3565b505060c091820151916200267886820184620024a3565b509588019593505090860190600101620025e0565b509098975050505050505050565b634e487b7160e01b600052604160045260246000fd5b600060208284031215620026c457600080fd5b813567ffffffffffffffff80821115620026dd57600080fd5b818401915084601f830112620026f257600080fd5b8135818111156200270757620027076200269b565b604051601f8201601f19908116603f011681019083821181831017156200273257620027326200269b565b816040528281528760208487010111156200274c57600080fd5b826020860160208301376000928101602001929092525095945050505050565b600080600080600060a086880312156200278557600080fd5b85359450620027976020870162002537565b94979496505050506040830135926060810135926080909101359150565b86815260c060208201526000620027d060c0830188620023ff565b90506001600160a01b0386166040830152846060830152620027f66080830185620024a3565b6200280560a0830184620024a3565b979650505050505050565b634e487b7160e01b600052601160045260246000fd5b80820180821115620009d157620009d162002810565b6000602082840312156200284f57600080fd5b815180151581146200286057600080fd5b9392505050565b600181811c908216806200287c57607f821691505b6020821081036200289d57634e487b7160e01b600052602260045260246000fd5b50919050565b601f821115620028f157600081815260208120601f850160051c81016020861015620028cc5750805b601f850160051c820191505b81811015620028ed57828155600101620028d8565b5050505b505050565b815167ffffffffffffffff8111156200291357620029136200269b565b6200292b8162002924845462002867565b84620028a3565b602080601f8311600181146200296357600084156200294a5750858301515b600019600386901b1c1916600185901b178555620028ed565b600085815260208120601f198616915b82811015620029945788860151825594840194600190910190840162002973565b5085821015620029b35787850151600019600388901b60f8161c191681555b5050505050600190811b01905550565b634e487b7160e01b600052603260045260246000fd5b600060018201620029ee57620029ee62002810565b5060010190565b81810381811115620009d157620009d16200281056fe608060405234801561001057600080fd5b50604051610c43380380610c4383398101604081905261002f916101da565b6000805460ff19169055610042336100c3565b6008869055600180546001600160a01b0319166001600160a01b03871617905560038490556004839055610076824261023a565b600555610083834261023a565b60065561008e61011c565b6007805460ff19169055600280546001600160a01b0319166001600160a01b0392909216919091179055506102619350505050565b600080546001600160a01b03838116610100818102610100600160a81b0319851617855560405193049190911692909183917f8be0079c531659141344cd1fd0a4f28419497f9722a3daafe3b4186f6b6457e091a35050565b610124610176565b6000805460ff191660011790557f62e78cea01bee320cd4e420270b5ea74000d11b0c9f74754ebdbfc544b05a2586101593390565b6040516001600160a01b03909116815260200160405180910390a1565b60005460ff16156101c05760405162461bcd60e51b815260206004820152601060248201526f14185d5cd8589b194e881c185d5cd95960821b604482015260640160405180910390fd5b565b6001600160a01b03811681146101d757600080fd5b50565b60008060008060008060c087890312156101f357600080fd5b865195506020870151610205816101c2565b8095505060408701519350606087015192506080870151915060a087015161022c816101c2565b809150509295509295509295565b8082018082111561025b57634e487b7160e01b600052601160045260246000fd5b92915050565b6109d3806102706000396000f3fe6080604052600436106101295760003560e01c806385474728116100a55780638f813d6411610074578063a18d8f0311610059578063a18d8f03146102c9578063b8997a97146102de578063f2fde38b146102f457600080fd5b80638f813d641461029a578063a00ce377146102b457600080fd5b806385474728146102365780638654aa341461024b5780638897cad3146102615780638da5cb5b1461027757600080fd5b8063567ad984116100fc5780635e3044cb116100e15780635e3044cb146101eb578063715018a61461020b5780637826a4e41461022057600080fd5b8063567ad9841461019b5780635c975abb146101d357600080fd5b80631cc1cf461461012e578063212d67231461015757806328f4ddae1461016157806329e20d5b14610186575b600080fd5b34801561013a57600080fd5b5061014460045481565b6040519081526020015b60405180910390f35b61015f610314565b005b34801561016d57600080fd5b50610176610520565b604051901515815260200161014e565b34801561019257600080fd5b5061015f61053c565b3480156101a757600080fd5b506002546101bb906001600160a01b031681565b6040516001600160a01b03909116815260200161014e565b3480156101df57600080fd5b5060005460ff16610176565b3480156101f757600080fd5b506001546101bb906001600160a01b031681565b34801561021757600080fd5b5061015f610556565b34801561022c57600080fd5b5061014460065481565b34801561024257600080fd5b5061015f610568565b34801561025757600080fd5b5061014460085481565b34801561026d57600080fd5b5061014460055481565b34801561028357600080fd5b5060005461010090046001600160a01b03166101bb565b3480156102a657600080fd5b506007546101769060ff1681565b3480156102c057600080fd5b50610176610580565b3480156102d557600080fd5b5061015f6105b8565b3480156102ea57600080fd5b5061014460035481565b34801561030057600080fd5b5061015f61030f36600461092d565b610699565b61031c610729565b6001546001600160a01b031633146103a15760405162461bcd60e51b815260206004820152602260248201527f4f6e6c79206c6963656e7365652063616e207061792074686520726f79616c7460448201527f792e00000000000000000000000000000000000000000000000000000000000060648201526084015b60405180910390fd5b60035434146103f25760405162461bcd60e51b815260206004820152601460248201527f496e636f7272656374206665652076616c75652e0000000000000000000000006044820152606401610398565b600554600454600654610405919061095d565b11156104795760405162461bcd60e51b815260206004820152603760248201527f546865207061796d656e7420657874656e73696f6e20696e74657276616c206560448201527f7863656564732065787069726174696f6e20646174652e0000000000000000006064820152608401610398565b6002546040516001600160a01b03909116903480156108fc02916000818181858888f193505050501580156104b2573d6000803e3d6000fd5b506004546006546104c3919061095d565b60068190556001546008546003546040516001600160a01b039093169330937f8df6c78c9e8b798b59502f3ab101992987a00e18af9e99e7ddc005375be490c59261051692908252602082015260400190565b60405180910390a4565b600061052a61077c565b610532610729565b5060075460ff1690565b61054461077c565b61054c6107dc565b61055461082e565b565b61055e61077c565b6105546000610880565b61057061077c565b610578610729565b6105546108f0565b600061058a61077c565b610592610729565b6005544211156105a25750600090565b6006544211156105b25750600090565b50600190565b6105c0610729565b6001546001600160a01b031633146106405760405162461bcd60e51b815260206004820152602660248201527f4f6e6c79206c6963656e7365652063616e20617070726f766520666f7220646560448201527f7374726f792e00000000000000000000000000000000000000000000000000006064820152608401610398565b6007805460ff1916600190811790915560025460085491546040516001600160a01b039182168152309391909216917f8dcee96114f2f589ff7f6bf56545cd0fb370ffadb7596e90bbdd1df53683c2d390602001610516565b6106a161077c565b6001600160a01b03811661071d5760405162461bcd60e51b815260206004820152602660248201527f4f776e61626c653a206e6577206f776e657220697320746865207a65726f206160448201527f64647265737300000000000000000000000000000000000000000000000000006064820152608401610398565b61072681610880565b50565b60005460ff16156105545760405162461bcd60e51b815260206004820152601060248201527f5061757361626c653a20706175736564000000000000000000000000000000006044820152606401610398565b6000546001600160a01b036101009091041633146105545760405162461bcd60e51b815260206004820181905260248201527f4f776e61626c653a2063616c6c6572206973206e6f7420746865206f776e65726044820152606401610398565b60005460ff166105545760405162461bcd60e51b815260206004820152601460248201527f5061757361626c653a206e6f74207061757365640000000000000000000000006044820152606401610398565b6108366107dc565b6000805460ff191690557f5db9ee0a495bf2e6ff9c91a7834c1ba4fdd244a5e8aa4e537bd38aeae4b073aa335b6040516001600160a01b03909116815260200160405180910390a1565b600080546001600160a01b038381166101008181027fffffffffffffffffffffff0000000000000000000000000000000000000000ff851617855560405193049190911692909183917f8be0079c531659141344cd1fd0a4f28419497f9722a3daafe3b4186f6b6457e091a35050565b6108f8610729565b6000805460ff191660011790557f62e78cea01bee320cd4e420270b5ea74000d11b0c9f74754ebdbfc544b05a2586108633390565b60006020828403121561093f57600080fd5b81356001600160a01b038116811461095657600080fd5b9392505050565b80820180821115610997577f4e487b7100000000000000000000000000000000000000000000000000000000600052601160045260246000fd5b9291505056fea2646970667358221220c87d3772b4eea2f260d4a524cdd18137ec66d530a3635a2c3e8c48f1988e91c664736f6c63430008120033a2646970667358221220879119b6d25736da9cb6fbc016b5b3d00efdc0baf7387ad1528701a27211284b64736f6c63430008120033",
  "linkReferences": {},
  "deployedLinkReferences": {}
}