{
    "_format": "hh-sol-artifact-1",
    "contractName": "PatentManagement",
    "sourceName": "contracts/PatentManagement.sol",
    "abi": [
        {
            "inputs": [],
            "stateMutability": "nonpayable",
            "type": "constructor"
        },
        {
            "anonymous": false,
            "inputs": [
                {
                    "indexed": true,
                    "internalType": "bytes32",
                    "name": "patentId",
                    "type": "bytes32"
                },
                {
                    "indexed": true,
                    "internalType": "address",
                    "name": "owner",
                    "type": "address"
                },
                {
                    "indexed": false,
                    "internalType": "uint256",
                    "name": "expirationDate",
                    "type": "uint256"
                }
            ],
            "name": "PatentDraftSubmitted",
            "type": "event"
        },
        {
            "anonymous": false,
            "inputs": [
                {
                    "indexed": true,
                    "internalType": "bytes32",
                    "name": "patentId",
                    "type": "bytes32"
                },
                {
                    "indexed": true,
                    "internalType": "address",
                    "name": "owner",
                    "type": "address"
                },
                {
                    "indexed": false,
                    "internalType": "uint256",
                    "name": "expirationDate",
                    "type": "uint256"
                }
            ],
            "name": "PatentExtended",
            "type": "event"
        },
        {
            "anonymous": false,
            "inputs": [
                {
                    "indexed": true,
                    "internalType": "bytes32",
                    "name": "patentId",
                    "type": "bytes32"
                },
                {
                    "indexed": true,
                    "internalType": "address",
                    "name": "owner",
                    "type": "address"
                },
                {
                    "indexed": false,
                    "internalType": "uint256",
                    "name": "expirationDate",
                    "type": "uint256"
                }
            ],
            "name": "PatentExtensionApproved",
            "type": "event"
        },
        {
            "anonymous": false,
            "inputs": [
                {
                    "indexed": true,
                    "internalType": "bytes32",
                    "name": "patentId",
                    "type": "bytes32"
                },
                {
                    "indexed": true,
                    "internalType": "address",
                    "name": "owner",
                    "type": "address"
                },
                {
                    "indexed": false,
                    "internalType": "uint256",
                    "name": "expirationDate",
                    "type": "uint256"
                }
            ],
            "name": "PatentExtensionRejected",
            "type": "event"
        },
        {
            "anonymous": false,
            "inputs": [
                {
                    "indexed": true,
                    "internalType": "bytes32",
                    "name": "patentId",
                    "type": "bytes32"
                },
                {
                    "indexed": true,
                    "internalType": "address",
                    "name": "owner",
                    "type": "address"
                },
                {
                    "indexed": false,
                    "internalType": "uint256",
                    "name": "expirationDate",
                    "type": "uint256"
                }
            ],
            "name": "PatentGranted",
            "type": "event"
        },
        {
            "anonymous": false,
            "inputs": [
                {
                    "indexed": true,
                    "internalType": "bytes32",
                    "name": "patentId",
                    "type": "bytes32"
                },
                {
                    "indexed": true,
                    "internalType": "address",
                    "name": "owner",
                    "type": "address"
                },
                {
                    "indexed": false,
                    "internalType": "uint256",
                    "name": "expirationDate",
                    "type": "uint256"
                }
            ],
            "name": "PatentRevoked",
            "type": "event"
        },
        {
            "anonymous": false,
            "inputs": [
                {
                    "indexed": true,
                    "internalType": "bytes32",
                    "name": "patentId",
                    "type": "bytes32"
                },
                {
                    "indexed": true,
                    "internalType": "address",
                    "name": "lincesedOrgRoyaltyContract",
                    "type": "address"
                },
                {
                    "indexed": true,
                    "internalType": "address",
                    "name": "licensee",
                    "type": "address"
                }
            ],
            "name": "RoyaltyContractApproved",
            "type": "event"
        },
        {
            "anonymous": false,
            "inputs": [
                {
                    "indexed": true,
                    "internalType": "bytes32",
                    "name": "patentId",
                    "type": "bytes32"
                },
                {
                    "indexed": true,
                    "internalType": "address",
                    "name": "licensor",
                    "type": "address"
                },
                {
                    "indexed": false,
                    "internalType": "uint256",
                    "name": "royaltyFee",
                    "type": "uint256"
                },
                {
                    "indexed": false,
                    "internalType": "uint256",
                    "name": "paymentInterval",
                    "type": "uint256"
                },
                {
                    "indexed": true,
                    "internalType": "address",
                    "name": "licensee",
                    "type": "address"
                },
                {
                    "indexed": false,
                    "internalType": "address",
                    "name": "royaltyContractAddress",
                    "type": "address"
                }
            ],
            "name": "RoyaltyContractCreated",
            "type": "event"
        },
        {
            "anonymous": false,
            "inputs": [
                {
                    "indexed": true,
                    "internalType": "bytes32",
                    "name": "patentId",
                    "type": "bytes32"
                },
                {
                    "indexed": true,
                    "internalType": "address",
                    "name": "licensee",
                    "type": "address"
                },
                {
                    "indexed": true,
                    "internalType": "address",
                    "name": "lincesedOrgRoyaltyContract",
                    "type": "address"
                }
            ],
            "name": "RoyaltyContractDestroyed",
            "type": "event"
        },
        {
            "anonymous": false,
            "inputs": [
                {
                    "indexed": true,
                    "internalType": "bytes32",
                    "name": "patentId",
                    "type": "bytes32"
                },
                {
                    "indexed": true,
                    "internalType": "address",
                    "name": "licensee",
                    "type": "address"
                },
                {
                    "indexed": true,
                    "internalType": "address",
                    "name": "lincesedOrgRoyaltyContract",
                    "type": "address"
                }
            ],
            "name": "RoyaltyContractVerified",
            "type": "event"
        },
        {
            "inputs": [],
            "name": "DRAFT_FEE",
            "outputs": [
                {
                    "internalType": "uint256",
                    "name": "",
                    "type": "uint256"
                }
            ],
            "stateMutability": "view",
            "type": "function"
        },
        {
            "inputs": [],
            "name": "EXNTENSION_DURATION",
            "outputs": [
                {
                    "internalType": "uint256",
                    "name": "",
                    "type": "uint256"
                }
            ],
            "stateMutability": "view",
            "type": "function"
        },
        {
            "inputs": [],
            "name": "EXPIRATION_DURATION",
            "outputs": [
                {
                    "internalType": "uint256",
                    "name": "",
                    "type": "uint256"
                }
            ],
            "stateMutability": "view",
            "type": "function"
        },
        {
            "inputs": [],
            "name": "admin",
            "outputs": [
                {
                    "internalType": "address payable",
                    "name": "",
                    "type": "address"
                }
            ],
            "stateMutability": "view",
            "type": "function"
        },
        {
            "inputs": [
                {
                    "internalType": "bytes32",
                    "name": "_patentId",
                    "type": "bytes32"
                }
            ],
            "name": "approveRoyaltyContract",
            "outputs": [],
            "stateMutability": "nonpayable",
            "type": "function"
        },
        {
            "inputs": [
                {
                    "internalType": "bytes32",
                    "name": "_patentId",
                    "type": "bytes32"
                },
                {
                    "internalType": "address",
                    "name": "_licensee",
                    "type": "address"
                }
            ],
            "name": "checkValidityOfRoyaltyContract",
            "outputs": [],
            "stateMutability": "nonpayable",
            "type": "function"
        },
        {
            "inputs": [
                {
                    "internalType": "bytes32",
                    "name": "_patentId",
                    "type": "bytes32"
                },
                {
                    "internalType": "address",
                    "name": "_licensee",
                    "type": "address"
                },
                {
                    "internalType": "uint256",
                    "name": "_royaltyFee",
                    "type": "uint256"
                },
                {
                    "internalType": "uint256",
                    "name": "_paymentInterval",
                    "type": "uint256"
                },
                {
                    "internalType": "uint256",
                    "name": "_contractExpirationPeriod",
                    "type": "uint256"
                }
            ],
            "name": "createRoyaltyContract",
            "outputs": [],
            "stateMutability": "nonpayable",
            "type": "function"
        },
        {
            "inputs": [
                {
                    "internalType": "bytes32",
                    "name": "_patentId",
                    "type": "bytes32"
                },
                {
                    "internalType": "address",
                    "name": "_licensee",
                    "type": "address"
                }
            ],
            "name": "destroyRoyaltyContract",
            "outputs": [],
            "stateMutability": "nonpayable",
            "type": "function"
        },
        {
            "inputs": [
                {
                    "internalType": "bytes32",
                    "name": "_patentId",
                    "type": "bytes32"
                },
                {
                    "internalType": "address",
                    "name": "_licensee",
                    "type": "address"
                }
            ],
            "name": "getContractAddressForLicensee",
            "outputs": [
                {
                    "internalType": "address",
                    "name": "",
                    "type": "address"
                }
            ],
            "stateMutability": "view",
            "type": "function"
        },
        {
            "inputs": [
                {
                    "internalType": "bytes32",
                    "name": "_patentId",
                    "type": "bytes32"
                }
            ],
            "name": "getPatentData",
            "outputs": [
                {
                    "internalType": "bytes32",
                    "name": "",
                    "type": "bytes32"
                },
                {
                    "internalType": "string",
                    "name": "",
                    "type": "string"
                },
                {
                    "internalType": "address",
                    "name": "",
                    "type": "address"
                },
                {
                    "internalType": "address[]",
                    "name": "",
                    "type": "address[]"
                },
                {
                    "internalType": "uint256",
                    "name": "",
                    "type": "uint256"
                },
                {
                    "internalType": "enum PatentManagement.Status",
                    "name": "",
                    "type": "uint8"
                },
                {
                    "internalType": "enum PatentManagement.Status",
                    "name": "",
                    "type": "uint8"
                }
            ],
            "stateMutability": "view",
            "type": "function"
        },
        {
            "inputs": [
                {
                    "internalType": "bytes32",
                    "name": "_patentId",
                    "type": "bytes32"
                },
                {
                    "internalType": "enum PatentManagement.Status",
                    "name": "_newExtensionState",
                    "type": "uint8"
                }
            ],
            "name": "handlePatentExtensionRequest",
            "outputs": [],
            "stateMutability": "nonpayable",
            "type": "function"
        },
        {
            "inputs": [
                {
                    "internalType": "bytes32",
                    "name": "_patentId",
                    "type": "bytes32"
                },
                {
                    "internalType": "enum PatentManagement.Status",
                    "name": "_newPatentStatus",
                    "type": "uint8"
                }
            ],
            "name": "handlePatentState",
            "outputs": [],
            "stateMutability": "nonpayable",
            "type": "function"
        },
        {
            "inputs": [
                {
                    "internalType": "uint256",
                    "name": "",
                    "type": "uint256"
                }
            ],
            "name": "patents",
            "outputs": [
                {
                    "internalType": "bytes32",
                    "name": "id",
                    "type": "bytes32"
                },
                {
                    "internalType": "string",
                    "name": "title",
                    "type": "string"
                },
                {
                    "internalType": "address",
                    "name": "owner",
                    "type": "address"
                },
                {
                    "internalType": "uint256",
                    "name": "expirationDate",
                    "type": "uint256"
                },
                {
                    "internalType": "enum PatentManagement.Status",
                    "name": "expirationExtension",
                    "type": "uint8"
                },
                {
                    "internalType": "enum PatentManagement.Status",
                    "name": "status",
                    "type": "uint8"
                }
            ],
            "stateMutability": "view",
            "type": "function"
        },
        {
            "inputs": [
                {
                    "internalType": "bytes32",
                    "name": "_patentId",
                    "type": "bytes32"
                }
            ],
            "name": "requestExtension",
            "outputs": [],
            "stateMutability": "nonpayable",
            "type": "function"
        },
        {
            "inputs": [
                {
                    "internalType": "string",
                    "name": "_title",
                    "type": "string"
                }
            ],
            "name": "submitDraftPatent",
            "outputs": [],
            "stateMutability": "payable",
            "type": "function"
        },
        {
            "inputs": [],
            "name": "viewPatents",
            "outputs": [
                {
                    "components": [
                        {
                            "internalType": "bytes32",
                            "name": "id",
                            "type": "bytes32"
                        },
                        {
                            "internalType": "string",
                            "name": "title",
                            "type": "string"
                        },
                        {
                            "internalType": "address",
                            "name": "owner",
                            "type": "address"
                        },
                        {
                            "internalType": "address[]",
                            "name": "licensees",
                            "type": "address[]"
                        },
                        {
                            "internalType": "uint256",
                            "name": "expirationDate",
                            "type": "uint256"
                        },
                        {
                            "internalType": "enum PatentManagement.Status",
                            "name": "expirationExtension",
                            "type": "uint8"
                        },
                        {
                            "internalType": "enum PatentManagement.Status",
                            "name": "status",
                            "type": "uint8"
                        }
                    ],
                    "internalType": "struct PatentManagement.Patent[]",
                    "name": "",
                    "type": "tuple[]"
                }
            ],
            "stateMutability": "view",
            "type": "function"
        }
    ],
    "bytecode": "0x608060405234801561001057600080fd5b50600080546001600160a01b03191633179055613415806100326000396000f3fe608060405260043610620001075760003560e01c8063c131ffef1162000095578063edc4f6151162000060578063edc4f61514620002e7578063eea2c59c146200030c578063f422bc681462000331578063f851a440146200036a57600080fd5b8063c131ffef1462000273578063c8231485146200028d578063caa6e39314620002b2578063e42030d614620002d057600080fd5b806342fc1ffb11620000d657806342fc1ffb14620001c45780634bc1867114620002025780635992950114620002275780639c6cabb2146200024e57600080fd5b80631c4b1099146200010c5780631d78a4df146200014f5780632794a63d146200017657806334edf228146200019f575b600080fd5b3480156200011957600080fd5b50620001316200012b36600462002176565b6200038c565b60405162000146979695949392919062002257565b60405180910390f35b3480156200015c57600080fd5b50620001746200016e36600462002176565b620003dd565b005b3480156200018357600080fd5b5062000190632598060081565b60405190815260200162000146565b348015620001ac57600080fd5b5062000174620001be366004620022e5565b62000638565b348015620001d157600080fd5b50620001e9620001e3366004620022e5565b62000969565b6040516001600160a01b03909116815260200162000146565b3480156200020f57600080fd5b50620001746200022136600462002314565b62000995565b3480156200023457600080fd5b506200023f62000c1a565b6040516200014691906200234a565b3480156200025b57600080fd5b50620001746200026d366004620022e5565b62000e15565b3480156200028057600080fd5b5062000190630966018081565b3480156200029a57600080fd5b5062000174620002ac36600462002314565b62001178565b348015620002bf57600080fd5b50620001906729a2241af62c000081565b62000174620002e136600462002442565b620012ff565b348015620002f457600080fd5b50620001746200030636600462002176565b620015da565b3480156200031957600080fd5b50620001746200032b366004620024fd565b62001710565b3480156200033e57600080fd5b50620003566200035036600462002176565b620019cf565b604051620001469695949392919062002546565b3480156200037757600080fd5b50600054620001e9906001600160a01b031681565b6000606060006060600080600080620003a58962001aba565b8051602082015160408301516060840151608085015160a086015160c090960151949f939e50919c509a509850919650945092505050565b806000620003eb8262001aba565b606001519050620003fd338262001d2f565b620004755760405162461bcd60e51b815260206004820152602d60248201527f4f6e6c7920706174656e74206c6963656e7365652063616e20706572666f726d60448201527f207468697320616374696f6e2e0000000000000000000000000000000000000060648201526084015b60405180910390fd5b6000620004828462001aba565b905060028160c0015160038111156200049f576200049f6200221e565b14620004e45760405162461bcd60e51b81526020600482015260136024820152722830ba32b73a103737ba1033b930b73a32b21760691b60448201526064016200046c565b620004f34262015180620025b7565b816080015111620005565760405162461bcd60e51b815260206004820152602660248201527f506174656e742077696c6c2065787069726520696e206c657373207468616e2060448201526518903230bc9760d11b60648201526084016200046c565b60008481526001602090815260408083203384529091528082205481517f29e20d5b00000000000000000000000000000000000000000000000000000000815291516001600160a01b039091169283926329e20d5b926004808301939282900301818387803b158015620005c957600080fd5b505af1158015620005de573d6000803e3d6000fd5b50505060008681526001602090815260408083203380855292528083205490519193506001600160a01b03169188917f4be16d196ea0c91556663a891d4a2eab5a2bbb8a0dc8430d276e549e26807cbc9190a45050505050565b8133620006458262001aba565b604001516001600160a01b031614620006b45760405162461bcd60e51b815260206004820152602a60248201527f4f6e6c7920706174656e74206f776e65722063616e20706572666f726d20746860448201526934b99030b1ba34b7b71760b11b60648201526084016200046c565b6000620006c18462001aba565b90506000620006d08562001d9d565b905060028260c001516003811115620006ed57620006ed6200221e565b14620007325760405162461bcd60e51b81526020600482015260136024820152722830ba32b73a103737ba1033b930b73a32b21760691b60448201526064016200046c565b60008581526001602090815260408083206001600160a01b0380891685529252909120541680620007a65760405162461bcd60e51b815260206004820152601f60248201527f526f79616c747920636f6e747261637420646f6573206e6f742065786973740060448201526064016200046c565b80620007b64262015180620025b7565b846080015110806200082a5750806001600160a01b031663a00ce3776040518163ffffffff1660e01b8152600401602060405180830381865afa15801562000802573d6000803e3d6000fd5b505050506040513d601f19601f82011682018060405250810190620008289190620025cd565b155b156200091e57806001600160a01b031663854747286040518163ffffffff1660e01b8152600401600060405180830381600087803b1580156200086c57600080fd5b505af115801562000881573d6000803e3d6000fd5b50505060008881526001602090815260408083206001600160a01b038b168452909152902080546001600160a01b0319169055506060840151620008c6908762001e40565b6060850152620008d7838562001f45565b816001600160a01b0316866001600160a01b0316887f9d6027a530e82351d1b8fcd1d84d64dc5970b753233c5e6c9c339d193cc0729660405160405180910390a462000960565b816001600160a01b0316866001600160a01b0316887f8ceab313e0f6f25256b2fda24fd981578c842fd28aa65d222cc46b42a9f8da3860405160405180910390a45b50505050505050565b60008281526001602090815260408083206001600160a01b038086168552925290912054165b92915050565b6000546001600160a01b03163314620009fd5760405162461bcd60e51b815260206004820152602360248201527f4f6e6c792061646d696e2063616e20706572666f726d2074686973206163746960448201526237b71760e91b60648201526084016200046c565b600062000a0a8362001aba565b9050600062000a198462001d9d565b905060018260a00151600381111562000a365762000a366200221e565b1462000a8f5760405162461bcd60e51b815260206004820152602160248201527f506174656e74206973206e6f7420696e207265717565737465642073746174656044820152601760f91b60648201526084016200046c565b600283600381111562000aa65762000aa66200221e565b0362000b885762000abb4262015180620025b7565b82608001511162000b1e5760405162461bcd60e51b815260206004820152602660248201527f506174656e742077696c6c2065787069726520696e206c657373207468616e2060448201526518903230bc9760d11b60648201526084016200046c565b63096601808260800181815162000b369190620025b7565b905250604080830151608084015191519182526001600160a01b03169085907f6bcbf68bf6f99ade7ea084c126b4e5b40d157224ea57a7d3c916780d8c828d479060200160405180910390a362000bd6565b81604001516001600160a01b0316847f726791534415f84e05ba743be4e62982dcfc5fb795d826d2e48a9ad7a1c33961846080015160405162000bcd91815260200190565b60405180910390a35b60a0820183600381111562000bef5762000bef6200221e565b9081600381111562000c055762000c056200221e565b90525062000c14818362001f45565b50505050565b60606002805480602002602001604051908101604052809291908181526020016000905b8282101562000e0c57838290600052602060002090600602016040518060e00160405290816000820154815260200160018201805462000c7e90620025f8565b80601f016020809104026020016040519081016040528092919081815260200182805462000cac90620025f8565b801562000cfd5780601f1062000cd15761010080835404028352916020019162000cfd565b820191906000526020600020905b81548152906001019060200180831162000cdf57829003601f168201915b505050918352505060028201546001600160a01b0316602080830191909152600383018054604080518285028101850182528281529401939283018282801562000d7157602002820191906000526020600020905b81546001600160a01b0316815260019091019060200180831162000d52575b505050918352505060048201546020820152600582015460409091019060ff16600381111562000da55762000da56200221e565b600381111562000db95762000db96200221e565b81526020016005820160019054906101000a900460ff16600381111562000de45762000de46200221e565b600381111562000df85762000df86200221e565b815250508152602001906001019062000c3e565b50505050905090565b813362000e228262001aba565b604001516001600160a01b03161462000e915760405162461bcd60e51b815260206004820152602a60248201527f4f6e6c7920706174656e74206f776e65722063616e20706572666f726d20746860448201526934b99030b1ba34b7b71760b11b60648201526084016200046c565b600062000e9e8462001aba565b9050600062000ead8562001d9d565b905060028260c00151600381111562000eca5762000eca6200221e565b1462000f0f5760405162461bcd60e51b81526020600482015260136024820152722830ba32b73a103737ba1033b930b73a32b21760691b60448201526064016200046c565b60008581526001602090815260408083206001600160a01b038089168552925290912054168062000f835760405162461bcd60e51b815260206004820152601f60248201527f526f79616c747920636f6e747261637420646f6573206e6f742065786973740060448201526064016200046c565b6000819050806001600160a01b03166328f4ddae6040518163ffffffff1660e01b8152600401602060405180830381865afa15801562000fc7573d6000803e3d6000fd5b505050506040513d601f19601f8201168201806040525081019062000fed9190620025cd565b620010875760405162461bcd60e51b815260206004820152604160248201527f4c6963656e73656520686173206e6f7420617070726f7665642074686520646560448201527f737472756374696f6e206f662074686520726f79616c747920636f6e7472616360648201527f7400000000000000000000000000000000000000000000000000000000000000608482015260a4016200046c565b806001600160a01b031663854747286040518163ffffffff1660e01b8152600401600060405180830381600087803b158015620010c357600080fd5b505af1158015620010d8573d6000803e3d6000fd5b50505060008881526001602090815260408083206001600160a01b038b168452909152902080546001600160a01b03191690555060608401516200111d908762001e40565b60608501526200112e838562001f45565b816001600160a01b0316866001600160a01b0316887f9d6027a530e82351d1b8fcd1d84d64dc5970b753233c5e6c9c339d193cc0729660405160405180910390a450505050505050565b6000546001600160a01b03163314620011e05760405162461bcd60e51b815260206004820152602360248201527f4f6e6c792061646d696e2063616e20706572666f726d2074686973206163746960448201526237b71760e91b60648201526084016200046c565b6000620011ed8362001aba565b90506000620011fc8462001d9d565b905060c082018360038111156200121757620012176200221e565b908160038111156200122d576200122d6200221e565b9052506200123c818362001f45565b60028360038111156200125357620012536200221e565b03620012ac5781604001516001600160a01b0316847fb6c2e5af6df126b1e5cd8151444445747245b128daac3756a2b2d3b6ab59dff884608001516040516200129e91815260200190565b60405180910390a362000c14565b81604001516001600160a01b0316847f4359dd938d1b13dc419fa9142e7a432f7272e1c903f9ea19d9f71b1e576069d48460800151604051620012f191815260200190565b60405180910390a350505050565b6000546001600160a01b03163303620013655760405162461bcd60e51b815260206004820152602160248201527f41646d696e2063616e6e6f74207375626d697420647261667420706174656e746044820152601760f91b60648201526084016200046c565b6729a2241af62c00003414620013be5760405162461bcd60e51b815260206004820152601360248201527f496e636f7272656374206472616674206665650000000000000000000000000060448201526064016200046c565b6040516bffffffffffffffffffffffff193360601b166020820152426034820152600090605401604051602081830303815290604052805190602001209050620014076200208b565b8181526020810183905233604082015262001427632598060042620025b7565b6080820152600160c08201819052600060a08301819052600280549283018155905281517f405787fa12a823e0f2b7631cc41b3ba8828b3321ca811111fa75cd3aa3bb5ace6006909202918201908155602083015183927f405787fa12a823e0f2b7631cc41b3ba8828b3321ca811111fa75cd3aa3bb5acf0190620014ad908262002687565b5060408201516002820180546001600160a01b0319166001600160a01b0390921691909117905560608201518051620014f1916003840191602090910190620020e7565b506080820151600482015560a082015160058201805460ff191660018360038111156200152257620015226200221e565b021790555060c082015160058201805461ff0019166101008360038111156200154f576200154f6200221e565b02179055505050336001600160a01b0316827f0b7e06468bbc1595894d83e9ed1dc240758b3b49ef38665b19d6964d2294f60583608001516040516200159791815260200190565b60405180910390a3600080546040516001600160a01b03909116913480156108fc02929091818181858888f1935050505015801562000c14573d6000803e3d6000fd5b8033620015e78262001aba565b604001516001600160a01b031614620016565760405162461bcd60e51b815260206004820152602a60248201527f4f6e6c7920706174656e74206f776e65722063616e20706572666f726d20746860448201526934b99030b1ba34b7b71760b11b60648201526084016200046c565b6000620016638362001aba565b90506000620016728462001d9d565b905060008260a0015160038111156200168f576200168f6200221e565b14620017045760405162461bcd60e51b815260206004820152602360248201527f506174656e7420657874656e73696f6e20616c7265616479207265717565737460448201527f65642e000000000000000000000000000000000000000000000000000000000060648201526084016200046c565b60a08201600162000bef565b84336200171d8262001aba565b604001516001600160a01b0316146200178c5760405162461bcd60e51b815260206004820152602a60248201527f4f6e6c7920706174656e74206f776e65722063616e20706572666f726d20746860448201526934b99030b1ba34b7b71760b11b60648201526084016200046c565b6000620017998762001aba565b90506000620017a88862001d9d565b905060028260c001516003811115620017c557620017c56200221e565b146200180a5760405162461bcd60e51b81526020600482015260136024820152722830ba32b73a103737ba1033b930b73a32b21760691b60448201526064016200046c565b620018194262015180620025b7565b8260800151116200187c5760405162461bcd60e51b815260206004820152602660248201527f506174656e742077696c6c2065787069726520696e206c657373207468616e2060448201526518903230bc9760d11b60648201526084016200046c565b6000888888888833604051620018929062002151565b9586526001600160a01b0394851660208701526040860193909352606085019190915260808401521660a082015260c001604051809103906000f080158015620018e0573d6000803e3d6000fd5b5060008a81526001602081815260408084206001600160a01b038e81168652925290922080546001600160a01b03191692841692909217909155606085015180519293508a929091620019349190620025b7565b8151811062001947576200194762002754565b60200260200101906001600160a01b031690816001600160a01b03168152505062001973828462001f45565b60408051888152602081018890526001600160a01b03838116828401529151918a169133918c917f614f6ab40eb754638ac2b892c0d2227b00cce60a04a08331e586ceca1dc1c0289181900360600190a4505050505050505050565b60028181548110620019e057600080fd5b6000918252602090912060069091020180546001820180549193509062001a0790620025f8565b80601f016020809104026020016040519081016040528092919081815260200182805462001a3590620025f8565b801562001a865780601f1062001a5a5761010080835404028352916020019162001a86565b820191906000526020600020905b81548152906001019060200180831162001a6857829003601f168201915b505050506002830154600484015460059094015492936001600160a01b039091169290915060ff8082169161010090041686565b62001ac46200208b565b60005b60025481101562001ce557826002828154811062001ae95762001ae962002754565b9060005260206000209060060201600001540362001cd0576002818154811062001b175762001b1762002754565b90600052602060002090600602016040518060e00160405290816000820154815260200160018201805462001b4c90620025f8565b80601f016020809104026020016040519081016040528092919081815260200182805462001b7a90620025f8565b801562001bcb5780601f1062001b9f5761010080835404028352916020019162001bcb565b820191906000526020600020905b81548152906001019060200180831162001bad57829003601f168201915b505050918352505060028201546001600160a01b0316602080830191909152600383018054604080518285028101850182528281529401939283018282801562001c3f57602002820191906000526020600020905b81546001600160a01b0316815260019091019060200180831162001c20575b505050918352505060048201546020820152600582015460409091019060ff16600381111562001c735762001c736200221e565b600381111562001c875762001c876200221e565b81526020016005820160019054906101000a900460ff16600381111562001cb25762001cb26200221e565b600381111562001cc65762001cc66200221e565b9052509392505050565b8062001cdc816200276a565b91505062001ac7565b5060405162461bcd60e51b815260206004820152601060248201527f506174656e74206e6f7420666f756e640000000000000000000000000000000060448201526064016200046c565b6000805b825181101562001d9357836001600160a01b031683828151811062001d5c5762001d5c62002754565b60200260200101516001600160a01b03160362001d7e5760019150506200098f565b8062001d8a816200276a565b91505062001d33565b5060009392505050565b6000805b60025481101562001df657826002828154811062001dc35762001dc362002754565b9060005260206000209060060201600001540362001de15792915050565b8062001ded816200276a565b91505062001da1565b5060405162461bcd60e51b815260206004820152601660248201527f506174656e7420696e646578206e6f7420666f756e640000000000000000000060448201526064016200046c565b60606000805b845181101562001ea457836001600160a01b031685828151811062001e6f5762001e6f62002754565b60200260200101516001600160a01b03160362001e8f5780915062001ea4565b8062001e9b816200276a565b91505062001e46565b50835181101562001f3d57805b6001855162001ec1919062002786565b81101562001f34578462001ed7826001620025b7565b8151811062001eea5762001eea62002754565b602002602001015185828151811062001f075762001f0762002754565b6001600160a01b03909216602092830291909101909101528062001f2b816200276a565b91505062001eb1565b50600184510384525b509192915050565b600254821062001f985760405162461bcd60e51b815260206004820152600d60248201527f496e76616c696420696e6465780000000000000000000000000000000000000060448201526064016200046c565b806002838154811062001faf5762001faf62002754565b906000526020600020906006020160008201518160000155602082015181600101908162001fde919062002687565b5060408201516002820180546001600160a01b0319166001600160a01b039092169190911790556060820151805162002022916003840191602090910190620020e7565b506080820151600482015560a082015160058201805460ff191660018360038111156200205357620020536200221e565b021790555060c082015160058201805461ff0019166101008360038111156200208057620020806200221e565b021790555050505050565b6040518060e00160405280600080191681526020016060815260200160006001600160a01b03168152602001606081526020016000815260200160006003811115620020db57620020db6200221e565b81526020016000905290565b8280548282559060005260206000209081019282156200213f579160200282015b828111156200213f57825182546001600160a01b0319166001600160a01b0390911617825560209092019160019091019062002108565b506200214d9291506200215f565b5090565b610c43806200279d83390190565b5b808211156200214d576000815560010162002160565b6000602082840312156200218957600080fd5b5035919050565b6000815180845260005b81811015620021b8576020818501810151868301820152016200219a565b506000602082860101526020601f19601f83011685010191505092915050565b600081518084526020808501945080840160005b83811015620022135781516001600160a01b031687529582019590820190600101620021ec565b509495945050505050565b634e487b7160e01b600052602160045260246000fd5b600481106200225357634e487b7160e01b600052602160045260246000fd5b9052565b87815260e0602082015260006200227260e083018962002190565b6001600160a01b03881660408401528281036060840152620022958188620021d8565b915050846080830152620022ad60a083018562002234565b620022bc60c083018462002234565b98975050505050505050565b80356001600160a01b0381168114620022e057600080fd5b919050565b60008060408385031215620022f957600080fd5b823591506200230b60208401620022c8565b90509250929050565b600080604083850312156200232857600080fd5b823591506020830135600481106200233f57600080fd5b809150509250929050565b60006020808301818452808551808352604092508286019150828160051b87010184880160005b838110156200241e57603f19898403018552815160e08151855288820151818a870152620023a28287018262002190565b9150506001600160a01b0388830151168886015260608083015186830382880152620023cf8382620021d8565b92505050608080830151818701525060a080830151620023f28288018262002234565b505060c09182015191620024098682018462002234565b50958801959350509086019060010162002371565b509098975050505050505050565b634e487b7160e01b600052604160045260246000fd5b6000602082840312156200245557600080fd5b813567ffffffffffffffff808211156200246e57600080fd5b818401915084601f8301126200248357600080fd5b8135818111156200249857620024986200242c565b604051601f8201601f19908116603f01168101908382118183101715620024c357620024c36200242c565b81604052828152876020848701011115620024dd57600080fd5b826020860160208301376000928101602001929092525095945050505050565b600080600080600060a086880312156200251657600080fd5b853594506200252860208701620022c8565b94979496505050506040830135926060810135926080909101359150565b86815260c0602082015260006200256160c083018862002190565b90506001600160a01b038616604083015284606083015262002587608083018562002234565b6200259660a083018462002234565b979650505050505050565b634e487b7160e01b600052601160045260246000fd5b808201808211156200098f576200098f620025a1565b600060208284031215620025e057600080fd5b81518015158114620025f157600080fd5b9392505050565b600181811c908216806200260d57607f821691505b6020821081036200262e57634e487b7160e01b600052602260045260246000fd5b50919050565b601f8211156200268257600081815260208120601f850160051c810160208610156200265d5750805b601f850160051c820191505b818110156200267e5782815560010162002669565b5050505b505050565b815167ffffffffffffffff811115620026a457620026a46200242c565b620026bc81620026b58454620025f8565b8462002634565b602080601f831160018114620026f45760008415620026db5750858301515b600019600386901b1c1916600185901b1785556200267e565b600085815260208120601f198616915b82811015620027255788860151825594840194600190910190840162002704565b5085821015620027445787850151600019600388901b60f8161c191681555b5050505050600190811b01905550565b634e487b7160e01b600052603260045260246000fd5b6000600182016200277f576200277f620025a1565b5060010190565b818103818111156200098f576200098f620025a156fe608060405234801561001057600080fd5b50604051610c43380380610c4383398101604081905261002f916101da565b6000805460ff19169055610042336100c3565b6008869055600180546001600160a01b0319166001600160a01b03871617905560038490556004839055610076824261023a565b600555610083834261023a565b60065561008e61011c565b6007805460ff19169055600280546001600160a01b0319166001600160a01b0392909216919091179055506102619350505050565b600080546001600160a01b03838116610100818102610100600160a81b0319851617855560405193049190911692909183917f8be0079c531659141344cd1fd0a4f28419497f9722a3daafe3b4186f6b6457e091a35050565b610124610176565b6000805460ff191660011790557f62e78cea01bee320cd4e420270b5ea74000d11b0c9f74754ebdbfc544b05a2586101593390565b6040516001600160a01b03909116815260200160405180910390a1565b60005460ff16156101c05760405162461bcd60e51b815260206004820152601060248201526f14185d5cd8589b194e881c185d5cd95960821b604482015260640160405180910390fd5b565b6001600160a01b03811681146101d757600080fd5b50565b60008060008060008060c087890312156101f357600080fd5b865195506020870151610205816101c2565b8095505060408701519350606087015192506080870151915060a087015161022c816101c2565b809150509295509295509295565b8082018082111561025b57634e487b7160e01b600052601160045260246000fd5b92915050565b6109d3806102706000396000f3fe6080604052600436106101295760003560e01c806385474728116100a55780638f813d6411610074578063a18d8f0311610059578063a18d8f03146102c9578063b8997a97146102de578063f2fde38b146102f457600080fd5b80638f813d641461029a578063a00ce377146102b457600080fd5b806385474728146102365780638654aa341461024b5780638897cad3146102615780638da5cb5b1461027757600080fd5b8063567ad984116100fc5780635e3044cb116100e15780635e3044cb146101eb578063715018a61461020b5780637826a4e41461022057600080fd5b8063567ad9841461019b5780635c975abb146101d357600080fd5b80631cc1cf461461012e578063212d67231461015757806328f4ddae1461016157806329e20d5b14610186575b600080fd5b34801561013a57600080fd5b5061014460045481565b6040519081526020015b60405180910390f35b61015f610314565b005b34801561016d57600080fd5b50610176610520565b604051901515815260200161014e565b34801561019257600080fd5b5061015f61053c565b3480156101a757600080fd5b506002546101bb906001600160a01b031681565b6040516001600160a01b03909116815260200161014e565b3480156101df57600080fd5b5060005460ff16610176565b3480156101f757600080fd5b506001546101bb906001600160a01b031681565b34801561021757600080fd5b5061015f610556565b34801561022c57600080fd5b5061014460065481565b34801561024257600080fd5b5061015f610568565b34801561025757600080fd5b5061014460085481565b34801561026d57600080fd5b5061014460055481565b34801561028357600080fd5b5060005461010090046001600160a01b03166101bb565b3480156102a657600080fd5b506007546101769060ff1681565b3480156102c057600080fd5b50610176610580565b3480156102d557600080fd5b5061015f6105b8565b3480156102ea57600080fd5b5061014460035481565b34801561030057600080fd5b5061015f61030f36600461092d565b610699565b61031c610729565b6001546001600160a01b031633146103a15760405162461bcd60e51b815260206004820152602260248201527f4f6e6c79206c6963656e7365652063616e207061792074686520726f79616c7460448201527f792e00000000000000000000000000000000000000000000000000000000000060648201526084015b60405180910390fd5b60035434146103f25760405162461bcd60e51b815260206004820152601460248201527f496e636f7272656374206665652076616c75652e0000000000000000000000006044820152606401610398565b600554600454600654610405919061095d565b11156104795760405162461bcd60e51b815260206004820152603760248201527f546865207061796d656e7420657874656e73696f6e20696e74657276616c206560448201527f7863656564732065787069726174696f6e20646174652e0000000000000000006064820152608401610398565b6002546040516001600160a01b03909116903480156108fc02916000818181858888f193505050501580156104b2573d6000803e3d6000fd5b506004546006546104c3919061095d565b60068190556001546008546003546040516001600160a01b039093169330937f8df6c78c9e8b798b59502f3ab101992987a00e18af9e99e7ddc005375be490c59261051692908252602082015260400190565b60405180910390a4565b600061052a61077c565b610532610729565b5060075460ff1690565b61054461077c565b61054c6107dc565b61055461082e565b565b61055e61077c565b6105546000610880565b61057061077c565b610578610729565b6105546108f0565b600061058a61077c565b610592610729565b6005544211156105a25750600090565b6006544211156105b25750600090565b50600190565b6105c0610729565b6001546001600160a01b031633146106405760405162461bcd60e51b815260206004820152602660248201527f4f6e6c79206c6963656e7365652063616e20617070726f766520666f7220646560448201527f7374726f792e00000000000000000000000000000000000000000000000000006064820152608401610398565b6007805460ff1916600190811790915560025460085491546040516001600160a01b039182168152309391909216917f8dcee96114f2f589ff7f6bf56545cd0fb370ffadb7596e90bbdd1df53683c2d390602001610516565b6106a161077c565b6001600160a01b03811661071d5760405162461bcd60e51b815260206004820152602660248201527f4f776e61626c653a206e6577206f776e657220697320746865207a65726f206160448201527f64647265737300000000000000000000000000000000000000000000000000006064820152608401610398565b61072681610880565b50565b60005460ff16156105545760405162461bcd60e51b815260206004820152601060248201527f5061757361626c653a20706175736564000000000000000000000000000000006044820152606401610398565b6000546001600160a01b036101009091041633146105545760405162461bcd60e51b815260206004820181905260248201527f4f776e61626c653a2063616c6c6572206973206e6f7420746865206f776e65726044820152606401610398565b60005460ff166105545760405162461bcd60e51b815260206004820152601460248201527f5061757361626c653a206e6f74207061757365640000000000000000000000006044820152606401610398565b6108366107dc565b6000805460ff191690557f5db9ee0a495bf2e6ff9c91a7834c1ba4fdd244a5e8aa4e537bd38aeae4b073aa335b6040516001600160a01b03909116815260200160405180910390a1565b600080546001600160a01b038381166101008181027fffffffffffffffffffffff0000000000000000000000000000000000000000ff851617855560405193049190911692909183917f8be0079c531659141344cd1fd0a4f28419497f9722a3daafe3b4186f6b6457e091a35050565b6108f8610729565b6000805460ff191660011790557f62e78cea01bee320cd4e420270b5ea74000d11b0c9f74754ebdbfc544b05a2586108633390565b60006020828403121561093f57600080fd5b81356001600160a01b038116811461095657600080fd5b9392505050565b80820180821115610997577f4e487b7100000000000000000000000000000000000000000000000000000000600052601160045260246000fd5b9291505056fea2646970667358221220c87d3772b4eea2f260d4a524cdd18137ec66d530a3635a2c3e8c48f1988e91c664736f6c63430008120033a264697066735822122083386214c6be3f797de6ef36d8093575be212adf3cc1dee44583c16676807d5364736f6c63430008120033",
    "linkReferences": {},
    "deployedLinkReferences": {}
}