{
  "_format": "hh-sol-artifact-1",
  "contractName": "PatentManagement",
  "sourceName": "contracts/PatentManagement.sol",
  "abi": [
    {
      "inputs": [],
      "stateMutability": "nonpayable",
      "type": "constructor"
    },
    {
      "anonymous": false,
      "inputs": [
        {
          "indexed": true,
          "internalType": "bytes32",
          "name": "patentId",
          "type": "bytes32"
        },
        {
          "indexed": true,
          "internalType": "address",
          "name": "owner",
          "type": "address"
        },
        {
          "indexed": false,
          "internalType": "uint256",
          "name": "expirationDate",
          "type": "uint256"
        }
      ],
      "name": "PatentDraftSubmitted",
      "type": "event"
    },
    {
      "anonymous": false,
      "inputs": [
        {
          "indexed": true,
          "internalType": "bytes32",
          "name": "patentId",
          "type": "bytes32"
        },
        {
          "indexed": true,
          "internalType": "address",
          "name": "owner",
          "type": "address"
        },
        {
          "indexed": false,
          "internalType": "uint256",
          "name": "expirationDate",
          "type": "uint256"
        }
      ],
      "name": "PatentExtended",
      "type": "event"
    },
    {
      "anonymous": false,
      "inputs": [
        {
          "indexed": true,
          "internalType": "bytes32",
          "name": "patentId",
          "type": "bytes32"
        },
        {
          "indexed": true,
          "internalType": "address",
          "name": "owner",
          "type": "address"
        },
        {
          "indexed": false,
          "internalType": "uint256",
          "name": "expirationDate",
          "type": "uint256"
        }
      ],
      "name": "PatentExtensionApproved",
      "type": "event"
    },
    {
      "anonymous": false,
      "inputs": [
        {
          "indexed": true,
          "internalType": "bytes32",
          "name": "patentId",
          "type": "bytes32"
        },
        {
          "indexed": true,
          "internalType": "address",
          "name": "owner",
          "type": "address"
        },
        {
          "indexed": false,
          "internalType": "uint256",
          "name": "expirationDate",
          "type": "uint256"
        }
      ],
      "name": "PatentExtensionRejected",
      "type": "event"
    },
    {
      "anonymous": false,
      "inputs": [
        {
          "indexed": true,
          "internalType": "bytes32",
          "name": "patentId",
          "type": "bytes32"
        },
        {
          "indexed": true,
          "internalType": "address",
          "name": "owner",
          "type": "address"
        },
        {
          "indexed": false,
          "internalType": "uint256",
          "name": "expirationDate",
          "type": "uint256"
        }
      ],
      "name": "PatentGranted",
      "type": "event"
    },
    {
      "anonymous": false,
      "inputs": [
        {
          "indexed": true,
          "internalType": "bytes32",
          "name": "patentId",
          "type": "bytes32"
        },
        {
          "indexed": true,
          "internalType": "address",
          "name": "owner",
          "type": "address"
        },
        {
          "indexed": false,
          "internalType": "uint256",
          "name": "expirationDate",
          "type": "uint256"
        }
      ],
      "name": "PatentRevoked",
      "type": "event"
    },
    {
      "anonymous": false,
      "inputs": [
        {
          "indexed": true,
          "internalType": "bytes32",
          "name": "patentId",
          "type": "bytes32"
        },
        {
          "indexed": true,
          "internalType": "address",
          "name": "lincesedOrgRoyaltyContract",
          "type": "address"
        },
        {
          "indexed": true,
          "internalType": "address",
          "name": "licensee",
          "type": "address"
        }
      ],
      "name": "RoyaltyContractApproved",
      "type": "event"
    },
    {
      "anonymous": false,
      "inputs": [
        {
          "indexed": true,
          "internalType": "bytes32",
          "name": "patentId",
          "type": "bytes32"
        },
        {
          "indexed": true,
          "internalType": "address",
          "name": "licensor",
          "type": "address"
        },
        {
          "indexed": false,
          "internalType": "uint256",
          "name": "royaltyFee",
          "type": "uint256"
        },
        {
          "indexed": false,
          "internalType": "uint256",
          "name": "paymentInterval",
          "type": "uint256"
        },
        {
          "indexed": true,
          "internalType": "address",
          "name": "licensee",
          "type": "address"
        },
        {
          "indexed": false,
          "internalType": "address",
          "name": "royaltyContractAddress",
          "type": "address"
        }
      ],
      "name": "RoyaltyContractCreated",
      "type": "event"
    },
    {
      "anonymous": false,
      "inputs": [
        {
          "indexed": true,
          "internalType": "bytes32",
          "name": "patentId",
          "type": "bytes32"
        },
        {
          "indexed": true,
          "internalType": "address",
          "name": "licensee",
          "type": "address"
        },
        {
          "indexed": true,
          "internalType": "address",
          "name": "lincesedOrgRoyaltyContract",
          "type": "address"
        }
      ],
      "name": "RoyaltyContractDestroyed",
      "type": "event"
    },
    {
      "anonymous": false,
      "inputs": [
        {
          "indexed": true,
          "internalType": "bytes32",
          "name": "patentId",
          "type": "bytes32"
        },
        {
          "indexed": true,
          "internalType": "address",
          "name": "licensee",
          "type": "address"
        },
        {
          "indexed": true,
          "internalType": "address",
          "name": "lincesedOrgRoyaltyContract",
          "type": "address"
        }
      ],
      "name": "RoyaltyContractVerified",
      "type": "event"
    },
    {
      "inputs": [],
      "name": "DRAFT_FEE",
      "outputs": [
        {
          "internalType": "uint256",
          "name": "",
          "type": "uint256"
        }
      ],
      "stateMutability": "view",
      "type": "function"
    },
    {
      "inputs": [],
      "name": "EXNTENSION_DURATION",
      "outputs": [
        {
          "internalType": "uint256",
          "name": "",
          "type": "uint256"
        }
      ],
      "stateMutability": "view",
      "type": "function"
    },
    {
      "inputs": [],
      "name": "EXPIRATION_DURATION",
      "outputs": [
        {
          "internalType": "uint256",
          "name": "",
          "type": "uint256"
        }
      ],
      "stateMutability": "view",
      "type": "function"
    },
    {
      "inputs": [],
      "name": "admin",
      "outputs": [
        {
          "internalType": "address payable",
          "name": "",
          "type": "address"
        }
      ],
      "stateMutability": "view",
      "type": "function"
    },
    {
      "inputs": [
        {
          "internalType": "bytes32",
          "name": "_patentId",
          "type": "bytes32"
        }
      ],
      "name": "approveRoyaltyContract",
      "outputs": [],
      "stateMutability": "nonpayable",
      "type": "function"
    },
    {
      "inputs": [
        {
          "internalType": "bytes32",
          "name": "_patentId",
          "type": "bytes32"
        },
        {
          "internalType": "address",
          "name": "_licensee",
          "type": "address"
        }
      ],
      "name": "checkValidityOfRoyaltyContract",
      "outputs": [],
      "stateMutability": "nonpayable",
      "type": "function"
    },
    {
      "inputs": [
        {
          "internalType": "bytes32",
          "name": "_patentId",
          "type": "bytes32"
        },
        {
          "internalType": "address",
          "name": "_licensee",
          "type": "address"
        },
        {
          "internalType": "uint256",
          "name": "_royaltyFee",
          "type": "uint256"
        },
        {
          "internalType": "uint256",
          "name": "_paymentInterval",
          "type": "uint256"
        },
        {
          "internalType": "uint256",
          "name": "_contractExpirationDate",
          "type": "uint256"
        }
      ],
      "name": "createRoyaltyContract",
      "outputs": [],
      "stateMutability": "nonpayable",
      "type": "function"
    },
    {
      "inputs": [
        {
          "internalType": "bytes32",
          "name": "_patentId",
          "type": "bytes32"
        },
        {
          "internalType": "address",
          "name": "_licensee",
          "type": "address"
        }
      ],
      "name": "destroyRoyaltyContract",
      "outputs": [],
      "stateMutability": "nonpayable",
      "type": "function"
    },
    {
      "inputs": [
        {
          "internalType": "bytes32",
          "name": "_patentId",
          "type": "bytes32"
        }
      ],
      "name": "getAllContractsForPatent",
      "outputs": [
        {
          "components": [
            {
              "internalType": "bytes32",
              "name": "patentId",
              "type": "bytes32"
            },
            {
              "internalType": "address",
              "name": "contractAddress",
              "type": "address"
            },
            {
              "internalType": "address",
              "name": "patentOwner",
              "type": "address"
            },
            {
              "internalType": "address",
              "name": "licensee",
              "type": "address"
            },
            {
              "internalType": "uint256",
              "name": "royaltyFee",
              "type": "uint256"
            },
            {
              "internalType": "uint256",
              "name": "paymentInterval",
              "type": "uint256"
            },
            {
              "internalType": "uint256",
              "name": "expirationDate",
              "type": "uint256"
            },
            {
              "internalType": "uint256",
              "name": "paidUntil",
              "type": "uint256"
            },
            {
              "internalType": "bool",
              "name": "approvedForDestroy",
              "type": "bool"
            },
            {
              "internalType": "bool",
              "name": "paused",
              "type": "bool"
            }
          ],
          "internalType": "struct PatentManagement.RoyaltyContractData[]",
          "name": "",
          "type": "tuple[]"
        }
      ],
      "stateMutability": "view",
      "type": "function"
    },
    {
      "inputs": [
        {
          "internalType": "bytes32",
          "name": "_patentId",
          "type": "bytes32"
        },
        {
          "internalType": "address",
          "name": "_licensee",
          "type": "address"
        }
      ],
      "name": "getContractForLicensee",
      "outputs": [
        {
          "components": [
            {
              "internalType": "bytes32",
              "name": "patentId",
              "type": "bytes32"
            },
            {
              "internalType": "address",
              "name": "contractAddress",
              "type": "address"
            },
            {
              "internalType": "address",
              "name": "patentOwner",
              "type": "address"
            },
            {
              "internalType": "address",
              "name": "licensee",
              "type": "address"
            },
            {
              "internalType": "uint256",
              "name": "royaltyFee",
              "type": "uint256"
            },
            {
              "internalType": "uint256",
              "name": "paymentInterval",
              "type": "uint256"
            },
            {
              "internalType": "uint256",
              "name": "expirationDate",
              "type": "uint256"
            },
            {
              "internalType": "uint256",
              "name": "paidUntil",
              "type": "uint256"
            },
            {
              "internalType": "bool",
              "name": "approvedForDestroy",
              "type": "bool"
            },
            {
              "internalType": "bool",
              "name": "paused",
              "type": "bool"
            }
          ],
          "internalType": "struct PatentManagement.RoyaltyContractData",
          "name": "",
          "type": "tuple"
        }
      ],
      "stateMutability": "view",
      "type": "function"
    },
    {
      "inputs": [],
      "name": "getContractsForAllPatents",
      "outputs": [
        {
          "components": [
            {
              "internalType": "bytes32",
              "name": "patentId",
              "type": "bytes32"
            },
            {
              "components": [
                {
                  "internalType": "bytes32",
                  "name": "patentId",
                  "type": "bytes32"
                },
                {
                  "internalType": "address",
                  "name": "contractAddress",
                  "type": "address"
                },
                {
                  "internalType": "address",
                  "name": "patentOwner",
                  "type": "address"
                },
                {
                  "internalType": "address",
                  "name": "licensee",
                  "type": "address"
                },
                {
                  "internalType": "uint256",
                  "name": "royaltyFee",
                  "type": "uint256"
                },
                {
                  "internalType": "uint256",
                  "name": "paymentInterval",
                  "type": "uint256"
                },
                {
                  "internalType": "uint256",
                  "name": "expirationDate",
                  "type": "uint256"
                },
                {
                  "internalType": "uint256",
                  "name": "paidUntil",
                  "type": "uint256"
                },
                {
                  "internalType": "bool",
                  "name": "approvedForDestroy",
                  "type": "bool"
                },
                {
                  "internalType": "bool",
                  "name": "paused",
                  "type": "bool"
                }
              ],
              "internalType": "struct PatentManagement.RoyaltyContractData[]",
              "name": "royaltyContractsData",
              "type": "tuple[]"
            }
          ],
          "internalType": "struct PatentManagement.LicenseDataForPatent[]",
          "name": "",
          "type": "tuple[]"
        }
      ],
      "stateMutability": "view",
      "type": "function"
    },
    {
      "inputs": [
        {
          "internalType": "bytes32",
          "name": "_patentId",
          "type": "bytes32"
        }
      ],
      "name": "getPatentData",
      "outputs": [
        {
          "internalType": "bytes32",
          "name": "",
          "type": "bytes32"
        },
        {
          "internalType": "string",
          "name": "",
          "type": "string"
        },
        {
          "internalType": "string",
          "name": "",
          "type": "string"
        },
        {
          "internalType": "address",
          "name": "",
          "type": "address"
        },
        {
          "internalType": "address[]",
          "name": "",
          "type": "address[]"
        },
        {
          "internalType": "uint256",
          "name": "",
          "type": "uint256"
        },
        {
          "internalType": "enum PatentManagement.Status",
          "name": "",
          "type": "uint8"
        },
        {
          "internalType": "enum PatentManagement.Status",
          "name": "",
          "type": "uint8"
        }
      ],
      "stateMutability": "view",
      "type": "function"
    },
    {
      "inputs": [
        {
          "internalType": "bytes32",
          "name": "_patentId",
          "type": "bytes32"
        },
        {
          "internalType": "enum PatentManagement.Status",
          "name": "_newExtensionState",
          "type": "uint8"
        }
      ],
      "name": "handlePatentExtensionRequest",
      "outputs": [],
      "stateMutability": "nonpayable",
      "type": "function"
    },
    {
      "inputs": [
        {
          "internalType": "bytes32",
          "name": "_patentId",
          "type": "bytes32"
        },
        {
          "internalType": "enum PatentManagement.Status",
          "name": "_newPatentStatus",
          "type": "uint8"
        }
      ],
      "name": "handlePatentState",
      "outputs": [],
      "stateMutability": "nonpayable",
      "type": "function"
    },
    {
      "inputs": [
        {
          "internalType": "uint256",
          "name": "",
          "type": "uint256"
        }
      ],
      "name": "patents",
      "outputs": [
        {
          "internalType": "bytes32",
          "name": "id",
          "type": "bytes32"
        },
        {
          "internalType": "string",
          "name": "title",
          "type": "string"
        },
        {
          "internalType": "string",
          "name": "ipfsHash",
          "type": "string"
        },
        {
          "internalType": "address",
          "name": "owner",
          "type": "address"
        },
        {
          "internalType": "uint256",
          "name": "expirationDate",
          "type": "uint256"
        },
        {
          "internalType": "enum PatentManagement.Status",
          "name": "expirationExtension",
          "type": "uint8"
        },
        {
          "internalType": "enum PatentManagement.Status",
          "name": "status",
          "type": "uint8"
        }
      ],
      "stateMutability": "view",
      "type": "function"
    },
    {
      "inputs": [
        {
          "internalType": "bytes32",
          "name": "_patentId",
          "type": "bytes32"
        }
      ],
      "name": "requestExtension",
      "outputs": [],
      "stateMutability": "nonpayable",
      "type": "function"
    },
    {
      "inputs": [
        {
          "internalType": "string",
          "name": "_title",
          "type": "string"
        },
        {
          "internalType": "string",
          "name": "_ipfsHash",
          "type": "string"
        }
      ],
      "name": "submitDraftPatent",
      "outputs": [],
      "stateMutability": "payable",
      "type": "function"
    },
    {
      "inputs": [],
      "name": "viewPatents",
      "outputs": [
        {
          "components": [
            {
              "internalType": "bytes32",
              "name": "id",
              "type": "bytes32"
            },
            {
              "internalType": "string",
              "name": "title",
              "type": "string"
            },
            {
              "internalType": "string",
              "name": "ipfsHash",
              "type": "string"
            },
            {
              "internalType": "address",
              "name": "owner",
              "type": "address"
            },
            {
              "internalType": "address[]",
              "name": "licensees",
              "type": "address[]"
            },
            {
              "internalType": "uint256",
              "name": "expirationDate",
              "type": "uint256"
            },
            {
              "internalType": "enum PatentManagement.Status",
              "name": "expirationExtension",
              "type": "uint8"
            },
            {
              "internalType": "enum PatentManagement.Status",
              "name": "status",
              "type": "uint8"
            }
          ],
          "internalType": "struct PatentManagement.Patent[]",
          "name": "",
          "type": "tuple[]"
        }
      ],
      "stateMutability": "view",
      "type": "function"
    }
  ],
  "bytecode": "0x608060405234801561001057600080fd5b50600080546001600160a01b0319163317905561445e806100326000396000f3fe608060405260043610620001415760003560e01c8063b8794c0911620000b2578063caa6e393116200007d578063eea2c59c1162000060578063eea2c59c1462000398578063f422bc6814620003bd578063f851a44014620003f757600080fd5b8063caa6e3931462000355578063edc4f615146200037357600080fd5b8063b8794c0914620002d8578063c131ffef14620002ff578063c733aeec1462000319578063c8231485146200033057600080fd5b806334edf22811620001105780635992950111620000f35780635992950114620002585780638fa848b7146200027f5780639c6cabb214620002b357600080fd5b806334edf228146200020e5780634bc18671146200023357600080fd5b80631c4b109914620001465780631d78a4df146200018a5780632794a63d14620001b15780632daa85a014620001da575b600080fd5b3480156200015357600080fd5b506200016b6200016536600462002d6e565b62000432565b6040516200018198979695949392919062002e09565b60405180910390f35b3480156200019757600080fd5b50620001af620001a936600462002d6e565b62000492565b005b348015620001be57600080fd5b50620001cb632598060081565b60405190815260200162000181565b348015620001e757600080fd5b50620001ff620001f936600462002d6e565b62000833565b60405162000181919062002f6b565b3480156200021b57600080fd5b50620001af6200022d36600462002fd7565b62000a43565b3480156200024057600080fd5b50620001af620002523660046200300a565b62000d59565b3480156200026557600080fd5b506200027062000fe6565b6040516200018191906200307b565b3480156200028c57600080fd5b50620002a46200029e36600462002fd7565b6200127c565b60405162000181919062003184565b348015620002c057600080fd5b50620001af620002d236600462002fd7565b62001618565b348015620002e557600080fd5b50620002f06200197b565b60405162000181919062003195565b3480156200030c57600080fd5b50620001cb630966018081565b620001af6200032a366004620032f0565b62001ab7565b3480156200033d57600080fd5b50620001af6200034f3660046200300a565b62001db7565b3480156200036257600080fd5b50620001cb6729a2241af62c000081565b3480156200038057600080fd5b50620001af6200039236600462002d6e565b62001f3e565b348015620003a557600080fd5b50620001af620003b73660046200335b565b62002074565b348015620003ca57600080fd5b50620003e2620003dc36600462002d6e565b62002477565b604051620001819796959493929190620033a6565b3480156200040457600080fd5b5060005462000419906001600160a01b031681565b6040516001600160a01b03909116815260200162000181565b6000606080600060606000806000806200044c8a620025f8565b9050806000015181602001518260400151836060015184608001518560a001518660c001518760e001519850985098509850985098509850985050919395975091939597565b806000620004a082620025f8565b608001519050620004b2338262002908565b6200052a5760405162461bcd60e51b815260206004820152602d60248201527f4f6e6c7920706174656e74206c6963656e7365652063616e20706572666f726d60448201527f207468697320616374696f6e2e0000000000000000000000000000000000000060648201526084015b60405180910390fd5b60006200053784620025f8565b905060028160e00151600381111562000554576200055462002dd0565b14620005995760405162461bcd60e51b81526020600482015260136024820152722830ba32b73a103737ba1033b930b73a32b21760691b604482015260640162000521565b620005a842620151806200342d565b8160a00151116200060b5760405162461bcd60e51b815260206004820152602660248201527f506174656e742077696c6c2065787069726520696e206c657373207468616e2060448201526518903230bc9760d11b606482015260840162000521565b60008481526001602090815260408083203384528252918290205482517fa00ce37700000000000000000000000000000000000000000000000000000000815292516001600160a01b0390911692839263a00ce377926004808401938290030181865afa15801562000681573d6000803e3d6000fd5b505050506040513d601f19601f82011682018060405250810190620006a7919062003459565b8015620007145750806001600160a01b031663f2a6f2156040518163ffffffff1660e01b8152600401602060405180830381865afa158015620006ee573d6000803e3d6000fd5b505050506040513d601f19601f8201168201806040525081019062000714919062003459565b620007885760405162461bcd60e51b815260206004820152603660248201527f526f79616c747920636f6e7472616374206973206e6f7420696e2070656e646960448201527f6e6720666f7220617070726f76616c2073746174652e00000000000000000000606482015260840162000521565b806001600160a01b03166329e20d5b6040518163ffffffff1660e01b8152600401600060405180830381600087803b158015620007c457600080fd5b505af1158015620007d9573d6000803e3d6000fd5b50505060008681526001602090815260408083203380855292528083205490519193506001600160a01b03169188917f4be16d196ea0c91556663a891d4a2eab5a2bbb8a0dc8430d276e549e26807cbc9190a45050505050565b606060006200084283620025f8565b905060028160e0015160038111156200085f576200085f62002dd0565b14620008a45760405162461bcd60e51b81526020600482015260136024820152722830ba32b73a103737ba1033b930b73a32b21760691b604482015260640162000521565b60808101518051600003620009355760408051600080825260208201909252906200092c565b604080516101408101825260008082526020808301829052928201819052606082018190526080820181905260a0820181905260c0820181905260e0820181905261010082018190526101208201528252600019909201910181620008ca5790505b50949350505050565b6000815167ffffffffffffffff81111562000954576200095462003245565b604051908082528060200260200182016040528015620009d557816020015b604080516101408101825260008082526020808301829052928201819052606082018190526080820181905260a0820181905260c0820181905260e0820181905261010082018190526101208201528252600019909201910181620009735790505b50905060005b82518110156200092c5762000a0d86848381518110620009ff57620009ff6200347e565b60200260200101516200127c565b82828151811062000a225762000a226200347e565b6020026020010181905250808062000a3a9062003494565b915050620009db565b813362000a5082620025f8565b606001516001600160a01b03161462000abf5760405162461bcd60e51b815260206004820152602a60248201527f4f6e6c7920706174656e74206f776e65722063616e20706572666f726d20746860448201526934b99030b1ba34b7b71760b11b606482015260840162000521565b600062000acc84620025f8565b9050600062000adb8562002976565b905060028260e00151600381111562000af85762000af862002dd0565b1462000b3d5760405162461bcd60e51b81526020600482015260136024820152722830ba32b73a103737ba1033b930b73a32b21760691b604482015260640162000521565b60008581526001602090815260408083206001600160a01b038089168552925290912054168062000bb15760405162461bcd60e51b815260206004820152601f60248201527f526f79616c747920636f6e747261637420646f6573206e6f7420657869737400604482015260640162000521565b6000819050806001600160a01b031663a00ce3776040518163ffffffff1660e01b8152600401602060405180830381865afa15801562000bf5573d6000803e3d6000fd5b505050506040513d601f19601f8201168201806040525081019062000c1b919062003459565b62000d0e57806001600160a01b031663854747286040518163ffffffff1660e01b8152600401600060405180830381600087803b15801562000c5c57600080fd5b505af115801562000c71573d6000803e3d6000fd5b50505060008881526001602090815260408083206001600160a01b038b168452909152902080546001600160a01b031916905550608084015162000cb6908762002a19565b608085015262000cc7838562002b1e565b816001600160a01b0316866001600160a01b0316887f9d6027a530e82351d1b8fcd1d84d64dc5970b753233c5e6c9c339d193cc0729660405160405180910390a462000d50565b816001600160a01b0316866001600160a01b0316887f8ceab313e0f6f25256b2fda24fd981578c842fd28aa65d222cc46b42a9f8da3860405160405180910390a45b50505050505050565b6000546001600160a01b0316331462000dc15760405162461bcd60e51b815260206004820152602360248201527f4f6e6c792061646d696e2063616e20706572666f726d2074686973206163746960448201526237b71760e91b606482015260840162000521565b600062000dce83620025f8565b9050600062000ddd8462002976565b905060018260c00151600381111562000dfa5762000dfa62002dd0565b1462000e535760405162461bcd60e51b815260206004820152602160248201527f506174656e74206973206e6f7420696e207265717565737465642073746174656044820152601760f91b606482015260840162000521565b600283600381111562000e6a5762000e6a62002dd0565b0362000f545762000e7f42620151806200342d565b8260a001511162000ee25760405162461bcd60e51b815260206004820152602660248201527f506174656e742077696c6c2065787069726520696e206c657373207468616e2060448201526518903230bc9760d11b606482015260840162000521565b63096601808260a00181815162000efa91906200342d565b9150818152505081606001516001600160a01b0316847f6bcbf68bf6f99ade7ea084c126b4e5b40d157224ea57a7d3c916780d8c828d478460a0015160405162000f4691815260200190565b60405180910390a362000fa2565b81606001516001600160a01b0316847f726791534415f84e05ba743be4e62982dcfc5fb795d826d2e48a9ad7a1c339618460a0015160405162000f9991815260200190565b60405180910390a35b60c0820183600381111562000fbb5762000fbb62002dd0565b9081600381111562000fd15762000fd162002dd0565b90525062000fe0818362002b1e565b50505050565b60606002805480602002602001604051908101604052809291908181526020016000905b8282101562001273578382906000526020600020906007020160405180610100016040529081600082015481526020016001820180546200104b90620034b0565b80601f01602080910402602001604051908101604052809291908181526020018280546200107990620034b0565b8015620010ca5780601f106200109e57610100808354040283529160200191620010ca565b820191906000526020600020905b815481529060010190602001808311620010ac57829003601f168201915b50505050508152602001600282018054620010e590620034b0565b80601f01602080910402602001604051908101604052809291908181526020018280546200111390620034b0565b8015620011645780601f10620011385761010080835404028352916020019162001164565b820191906000526020600020905b8154815290600101906020018083116200114657829003601f168201915b505050918352505060038201546001600160a01b03166020808301919091526004830180546040805182850281018501825282815294019392830182828015620011d857602002820191906000526020600020905b81546001600160a01b03168152600190910190602001808311620011b9575b505050918352505060058201546020820152600682015460409091019060ff1660038111156200120c576200120c62002dd0565b600381111562001220576200122062002dd0565b81526020016006820160019054906101000a900460ff1660038111156200124b576200124b62002dd0565b60038111156200125f576200125f62002dd0565b81525050815260200190600101906200100a565b50505050905090565b6040805161014081018252600080825260208201819052918101829052606081018290526080810182905260a0810182905260c0810182905260e081018290526101008101829052610120810191909152620012e782620012dd85620025f8565b6080015162002908565b6200135b5760405162461bcd60e51b815260206004820152602360248201527f4c6963656e736565206e6f7420666f756e6420666f722074686973207061746560448201527f6e742e0000000000000000000000000000000000000000000000000000000000606482015260840162000521565b60008381526001602090815260408083206001600160a01b03868116855292529091205416620013ce5760405162461bcd60e51b815260206004820181905260248201527f526f79616c747920636f6e747261637420646f6573206e6f742065786973742e604482015260640162000521565b60008381526001602090815260408083206001600160a01b03808716855292528083205481517f7cc1f867000000000000000000000000000000000000000000000000000000008152915192169291829182918291829182918291829182918b91637cc1f867916004808301926101209291908290030181865afa1580156200145b573d6000803e3d6000fd5b505050506040513d601f19601f82011682018060405250810190620014819190620034e6565b9850985098509850985098509850985098506200150c6040518061014001604052806000801916815260200160006001600160a01b0316815260200160006001600160a01b0316815260200160006001600160a01b03168152602001600081526020016000815260200160008152602001600081526020016000151581526020016000151581525090565b89816000018181525050600160008f815260200190815260200160002060008e6001600160a01b03166001600160a01b0316815260200190815260200160002060009054906101000a90046001600160a01b031681602001906001600160a01b031690816001600160a01b0316815250508881604001906001600160a01b031690816001600160a01b0316815250508781606001906001600160a01b031690816001600160a01b03168152505086816080018181525050858160a0018181525050848160c0018181525050838160e001818152505082816101000190151590811515815250508181610120019015159081151581525050809b5050505050505050505050505b92915050565b81336200162582620025f8565b606001516001600160a01b031614620016945760405162461bcd60e51b815260206004820152602a60248201527f4f6e6c7920706174656e74206f776e65722063616e20706572666f726d20746860448201526934b99030b1ba34b7b71760b11b606482015260840162000521565b6000620016a184620025f8565b90506000620016b08562002976565b905060028260e001516003811115620016cd57620016cd62002dd0565b14620017125760405162461bcd60e51b81526020600482015260136024820152722830ba32b73a103737ba1033b930b73a32b21760691b604482015260640162000521565b60008581526001602090815260408083206001600160a01b0380891685529252909120541680620017865760405162461bcd60e51b815260206004820152601f60248201527f526f79616c747920636f6e747261637420646f6573206e6f7420657869737400604482015260640162000521565b6000819050806001600160a01b03166328f4ddae6040518163ffffffff1660e01b8152600401602060405180830381865afa158015620017ca573d6000803e3d6000fd5b505050506040513d601f19601f82011682018060405250810190620017f0919062003459565b6200188a5760405162461bcd60e51b815260206004820152604160248201527f4c6963656e73656520686173206e6f7420617070726f7665642074686520646560448201527f737472756374696f6e206f662074686520726f79616c747920636f6e7472616360648201527f7400000000000000000000000000000000000000000000000000000000000000608482015260a40162000521565b806001600160a01b031663854747286040518163ffffffff1660e01b8152600401600060405180830381600087803b158015620018c657600080fd5b505af1158015620018db573d6000803e3d6000fd5b50505060008881526001602090815260408083206001600160a01b038b168452909152902080546001600160a01b031916905550608084015162001920908762002a19565b608085015262001931838562002b1e565b816001600160a01b0316866001600160a01b0316887f9d6027a530e82351d1b8fcd1d84d64dc5970b753233c5e6c9c339d193cc0729660405160405180910390a450505050505050565b60025460609060009067ffffffffffffffff8111156200199f576200199f62003245565b604051908082528060200260200182016040528015620019e757816020015b604080518082019091526000815260606020820152815260200190600190039081620019be5790505b50905060005b60025481101562001ab1576002818154811062001a0e5762001a0e6200347e565b90600052602060002090600702016000015482828151811062001a355762001a356200347e565b6020026020010151600001818152505062001a776002828154811062001a5f5762001a5f6200347e565b90600052602060002090600702016000015462000833565b82828151811062001a8c5762001a8c6200347e565b602002602001015160200181905250808062001aa89062003494565b915050620019ed565b50919050565b6000546001600160a01b0316330362001b1d5760405162461bcd60e51b815260206004820152602160248201527f41646d696e2063616e6e6f74207375626d697420647261667420706174656e746044820152601760f91b606482015260840162000521565b6729a2241af62c0000341462001b765760405162461bcd60e51b815260206004820152601360248201527f496e636f72726563742064726166742066656500000000000000000000000000604482015260640162000521565b6040516bffffffffffffffffffffffff193360601b16602082015242603482015260009060540160405160208183030381529060405280519060200120905062001bbf62002c7b565b818152604081018390526020810184905233606082015262001be66325980600426200342d565b60a0820152600160e08201819052600060c08301819052600280549283018155905281517f405787fa12a823e0f2b7631cc41b3ba8828b3321ca811111fa75cd3aa3bb5ace6007909202918201908155602083015183927f405787fa12a823e0f2b7631cc41b3ba8828b3321ca811111fa75cd3aa3bb5acf019062001c6c9082620035ce565b506040820151600282019062001c839082620035ce565b5060608201516003820180546001600160a01b0319166001600160a01b039092169190911790556080820151805162001cc791600484019160209091019062002cdf565b5060a0820151600582015560c082015160068201805460ff1916600183600381111562001cf85762001cf862002dd0565b021790555060e082015160068201805461ff00191661010083600381111562001d255762001d2562002dd0565b02179055505050336001600160a01b0316827f0b7e06468bbc1595894d83e9ed1dc240758b3b49ef38665b19d6964d2294f6058360a0015160405162001d6d91815260200190565b60405180910390a3600080546040516001600160a01b03909116913480156108fc02929091818181858888f1935050505015801562001db0573d6000803e3d6000fd5b5050505050565b6000546001600160a01b0316331462001e1f5760405162461bcd60e51b815260206004820152602360248201527f4f6e6c792061646d696e2063616e20706572666f726d2074686973206163746960448201526237b71760e91b606482015260840162000521565b600062001e2c83620025f8565b9050600062001e3b8462002976565b905060e0820183600381111562001e565762001e5662002dd0565b9081600381111562001e6c5762001e6c62002dd0565b90525062001e7b818362002b1e565b600283600381111562001e925762001e9262002dd0565b0362001eeb5781606001516001600160a01b0316847fb6c2e5af6df126b1e5cd8151444445747245b128daac3756a2b2d3b6ab59dff88460a0015160405162001edd91815260200190565b60405180910390a362000fe0565b81606001516001600160a01b0316847f4359dd938d1b13dc419fa9142e7a432f7272e1c903f9ea19d9f71b1e576069d48460a0015160405162001f3091815260200190565b60405180910390a350505050565b803362001f4b82620025f8565b606001516001600160a01b03161462001fba5760405162461bcd60e51b815260206004820152602a60248201527f4f6e6c7920706174656e74206f776e65722063616e20706572666f726d20746860448201526934b99030b1ba34b7b71760b11b606482015260840162000521565b600062001fc783620025f8565b9050600062001fd68462002976565b905060008260c00151600381111562001ff35762001ff362002dd0565b14620020685760405162461bcd60e51b815260206004820152602360248201527f506174656e7420657874656e73696f6e20616c7265616479207265717565737460448201527f65642e0000000000000000000000000000000000000000000000000000000000606482015260840162000521565b60c08201600162000fbb565b84336200208182620025f8565b606001516001600160a01b031614620020f05760405162461bcd60e51b815260206004820152602a60248201527f4f6e6c7920706174656e74206f776e65722063616e20706572666f726d20746860448201526934b99030b1ba34b7b71760b11b606482015260840162000521565b6000620020fd87620025f8565b905060006200210c8862002976565b905060028260e00151600381111562002129576200212962002dd0565b146200216e5760405162461bcd60e51b81526020600482015260136024820152722830ba32b73a103737ba1033b930b73a32b21760691b604482015260640162000521565b6200217d42620151806200342d565b8260a0015111620021e05760405162461bcd60e51b815260206004820152602660248201527f506174656e742077696c6c2065787069726520696e206c657373207468616e2060448201526518903230bc9760d11b606482015260840162000521565b620021f087836080015162002908565b15620022655760405162461bcd60e51b815260206004820152602860248201527f4c6963656e73656520616c72656164792065786973747320666f72207468697360448201527f20706174656e742e000000000000000000000000000000000000000000000000606482015260840162000521565b60008888888888336040516200227b9062002d49565b9586526001600160a01b0394851660208701526040860193909352606085019190915260808401521660a082015260c001604051809103906000f080158015620022c9573d6000803e3d6000fd5b5060008a81526001602081815260408084206001600160a01b038e811686529252832080546001600160a01b031916918516919091179055608086015151929350909162002317916200342d565b67ffffffffffffffff81111562002332576200233262003245565b6040519080825280602002602001820160405280156200235c578160200160208202803683370190505b50905060005b846080015151811015620023d357846080015181815181106200238957620023896200347e565b6020026020010151828281518110620023a657620023a66200347e565b6001600160a01b039092166020928302919091019091015280620023ca8162003494565b91505062002362565b50888185608001515181518110620023ef57620023ef6200347e565b6001600160a01b0390921660209283029190910190910152608084018190526200241a838562002b1e565b60408051898152602081018990526001600160a01b03848116828401529151918b169133918d917f614f6ab40eb754638ac2b892c0d2227b00cce60a04a08331e586ceca1dc1c0289181900360600190a450505050505050505050565b600281815481106200248857600080fd5b60009182526020909120600790910201805460018201805491935090620024af90620034b0565b80601f0160208091040260200160405190810160405280929190818152602001828054620024dd90620034b0565b80156200252e5780601f1062002502576101008083540402835291602001916200252e565b820191906000526020600020905b8154815290600101906020018083116200251057829003601f168201915b5050505050908060020180546200254590620034b0565b80601f01602080910402602001604051908101604052809291908181526020018280546200257390620034b0565b8015620025c45780601f106200259857610100808354040283529160200191620025c4565b820191906000526020600020905b815481529060010190602001808311620025a657829003601f168201915b505050506003830154600584015460069094015492936001600160a01b039091169290915060ff8082169161010090041687565b6200260262002c7b565b60005b600254811015620028be5782600282815481106200262757620026276200347e565b90600052602060002090600702016000015403620028a957600281815481106200265557620026556200347e565b906000526020600020906007020160405180610100016040529081600082015481526020016001820180546200268b90620034b0565b80601f0160208091040260200160405190810160405280929190818152602001828054620026b990620034b0565b80156200270a5780601f10620026de576101008083540402835291602001916200270a565b820191906000526020600020905b815481529060010190602001808311620026ec57829003601f168201915b505050505081526020016002820180546200272590620034b0565b80601f01602080910402602001604051908101604052809291908181526020018280546200275390620034b0565b8015620027a45780601f106200277857610100808354040283529160200191620027a4565b820191906000526020600020905b8154815290600101906020018083116200278657829003601f168201915b505050918352505060038201546001600160a01b031660208083019190915260048301805460408051828502810185018252828152940193928301828280156200281857602002820191906000526020600020905b81546001600160a01b03168152600190910190602001808311620027f9575b505050918352505060058201546020820152600682015460409091019060ff1660038111156200284c576200284c62002dd0565b600381111562002860576200286062002dd0565b81526020016006820160019054906101000a900460ff1660038111156200288b576200288b62002dd0565b60038111156200289f576200289f62002dd0565b9052509392505050565b80620028b58162003494565b91505062002605565b5060405162461bcd60e51b815260206004820152601060248201527f506174656e74206e6f7420666f756e6400000000000000000000000000000000604482015260640162000521565b6000805b82518110156200296c57836001600160a01b03168382815181106200293557620029356200347e565b60200260200101516001600160a01b0316036200295757600191505062001612565b80620029638162003494565b9150506200290c565b5060009392505050565b6000805b600254811015620029cf5782600282815481106200299c576200299c6200347e565b90600052602060002090600702016000015403620029ba5792915050565b80620029c68162003494565b9150506200297a565b5060405162461bcd60e51b815260206004820152601660248201527f506174656e7420696e646578206e6f7420666f756e6400000000000000000000604482015260640162000521565b60606000805b845181101562002a7d57836001600160a01b031685828151811062002a485762002a486200347e565b60200260200101516001600160a01b03160362002a685780915062002a7d565b8062002a748162003494565b91505062002a1f565b50835181101562002b1657805b6001855162002a9a91906200369b565b81101562002b0d578462002ab08260016200342d565b8151811062002ac35762002ac36200347e565b602002602001015185828151811062002ae05762002ae06200347e565b6001600160a01b03909216602092830291909101909101528062002b048162003494565b91505062002a8a565b50600184510384525b509192915050565b600254821062002b715760405162461bcd60e51b815260206004820152600d60248201527f496e76616c696420696e64657800000000000000000000000000000000000000604482015260640162000521565b806002838154811062002b885762002b886200347e565b906000526020600020906007020160008201518160000155602082015181600101908162002bb79190620035ce565b506040820151600282019062002bce9082620035ce565b5060608201516003820180546001600160a01b0319166001600160a01b039092169190911790556080820151805162002c1291600484019160209091019062002cdf565b5060a0820151600582015560c082015160068201805460ff1916600183600381111562002c435762002c4362002dd0565b021790555060e082015160068201805461ff00191661010083600381111562002c705762002c7062002dd0565b021790555050505050565b60405180610100016040528060008019168152602001606081526020016060815260200160006001600160a01b0316815260200160608152602001600081526020016000600381111562002cd35762002cd362002dd0565b81526020016000905290565b82805482825590600052602060002090810192821562002d37579160200282015b8281111562002d3757825182546001600160a01b0319166001600160a01b0390911617825560209092019160019091019062002d00565b5062002d4592915062002d57565b5090565b610d7780620036b283390190565b5b8082111562002d45576000815560010162002d58565b60006020828403121562002d8157600080fd5b5035919050565b6000815180845260005b8181101562002db05760208185018101518683018201520162002d92565b506000602082860101526020601f19601f83011685010191505092915050565b634e487b7160e01b600052602160045260246000fd5b6004811062002e0557634e487b7160e01b600052602160045260246000fd5b9052565b60006101008a83526020818185015262002e268285018c62002d88565b9150838203604085015262002e3c828b62002d88565b6001600160a01b038a8116606087015285820360808701528951808352838b019450909183019060005b8181101562002e8657855184168352948401949184019160010162002e66565b5050809450505050508460a083015262002ea460c083018562002de6565b62002eb360e083018462002de6565b9998505050505050505050565b80518252602081015162002edf60208401826001600160a01b03169052565b50604081015162002efb60408401826001600160a01b03169052565b50606081015162002f1760608401826001600160a01b03169052565b506080810151608083015260a081015160a083015260c081015160c083015260e081015160e08301526101008082015162002f558285018215159052565b5050610120818101518015158483015262000fe0565b6020808252825182820181905260009190848201906040850190845b8181101562002fb25762002f9d83855162002ec0565b92840192610140929092019160010162002f87565b50909695505050505050565b6001600160a01b038116811462002fd457600080fd5b50565b6000806040838503121562002feb57600080fd5b82359150602083013562002fff8162002fbe565b809150509250929050565b600080604083850312156200301e57600080fd5b8235915060208301356004811062002fff57600080fd5b600081518084526020808501945080840160005b83811015620030705781516001600160a01b03168752958201959082019060010162003049565b509495945050505050565b60006020808301818452808551808352604092508286019150828160051b87010184880160005b838110156200317657603f1989840301855281516101008151855288820151818a870152620030d48287018262002d88565b9150508782015185820389870152620030ee828262002d88565b9150506060808301516200310c828801826001600160a01b03169052565b50506080808301518683038288015262003127838262003035565b9250505060a080830151818701525060c0808301516200314a8288018262002de6565b505060e09182015191620031618682018462002de6565b509588019593505090860190600101620030a2565b509098975050505050505050565b610140810162001612828462002ec0565b60006020808301818452808551808352604092508286019150828160051b8701018488016000805b848110156200323657898403603f19018652825180518552880151888501889052805188860181905290890190839060608701905b8083101562003220576200320882855162002ec0565b610140820191508b84019350600183019250620031f2565b50978a01979550505091870191600101620031bd565b50919998505050505050505050565b634e487b7160e01b600052604160045260246000fd5b600082601f8301126200326d57600080fd5b813567ffffffffffffffff808211156200328b576200328b62003245565b604051601f8301601f19908116603f01168101908282118183101715620032b657620032b662003245565b81604052838152866020858801011115620032d057600080fd5b836020870160208301376000602085830101528094505050505092915050565b600080604083850312156200330457600080fd5b823567ffffffffffffffff808211156200331d57600080fd5b6200332b868387016200325b565b935060208501359150808211156200334257600080fd5b5062003351858286016200325b565b9150509250929050565b600080600080600060a086880312156200337457600080fd5b853594506020860135620033888162002fbe565b94979496505050506040830135926060810135926080909101359150565b87815260e060208201526000620033c160e083018962002d88565b8281036040840152620033d5818962002d88565b9150506001600160a01b0386166060830152846080830152620033fc60a083018562002de6565b6200340b60c083018462002de6565b98975050505050505050565b634e487b7160e01b600052601160045260246000fd5b8082018082111562001612576200161262003417565b805180151581146200345457600080fd5b919050565b6000602082840312156200346c57600080fd5b620034778262003443565b9392505050565b634e487b7160e01b600052603260045260246000fd5b600060018201620034a957620034a962003417565b5060010190565b600181811c90821680620034c557607f821691505b60208210810362001ab157634e487b7160e01b600052602260045260246000fd5b60008060008060008060008060006101208a8c0312156200350657600080fd5b8951985060208a01516200351a8162002fbe565b60408b01519098506200352d8162002fbe565b8097505060608a0151955060808a0151945060a08a0151935060c08a015192506200355b60e08b0162003443565b91506200356c6101008b0162003443565b90509295985092959850929598565b601f821115620035c957600081815260208120601f850160051c81016020861015620035a45750805b601f850160051c820191505b81811015620035c557828155600101620035b0565b5050505b505050565b815167ffffffffffffffff811115620035eb57620035eb62003245565b6200360381620035fc8454620034b0565b846200357b565b602080601f8311600181146200363b5760008415620036225750858301515b600019600386901b1c1916600185901b178555620035c5565b600085815260208120601f198616915b828110156200366c578886015182559484019460019091019084016200364b565b50858210156200368b5787850151600019600388901b60f8161c191681555b5050505050600190811b01905550565b818103818111156200161257620016126200341756fe608060405234801561001057600080fd5b50604051610d77380380610d7783398101604081905261002f916101d2565b6000805460ff19169055610042336100bb565b6008869055600180546001600160a01b0319166001600160a01b03871617905560038490556004839055600582905561007b8342610232565b600655610086610114565b6007805460ff19169055600280546001600160a01b0319166001600160a01b0392909216919091179055506102599350505050565b600080546001600160a01b03838116610100818102610100600160a81b0319851617855560405193049190911692909183917f8be0079c531659141344cd1fd0a4f28419497f9722a3daafe3b4186f6b6457e091a35050565b61011c61016e565b6000805460ff191660011790557f62e78cea01bee320cd4e420270b5ea74000d11b0c9f74754ebdbfc544b05a2586101513390565b6040516001600160a01b03909116815260200160405180910390a1565b60005460ff16156101b85760405162461bcd60e51b815260206004820152601060248201526f14185d5cd8589b194e881c185d5cd95960821b604482015260640160405180910390fd5b565b6001600160a01b03811681146101cf57600080fd5b50565b60008060008060008060c087890312156101eb57600080fd5b8651955060208701516101fd816101ba565b8095505060408701519350606087015192506080870151915060a0870151610224816101ba565b809150509295509295509295565b8082018082111561025357634e487b7160e01b600052601160045260246000fd5b92915050565b610b0f806102686000396000f3fe6080604052600436106101635760003560e01c806385474728116100c0578063a00ce37711610074578063b8997a9711610059578063b8997a971461038e578063f2a6f215146103a4578063f2fde38b146103b957600080fd5b8063a00ce37714610364578063a18d8f031461037957600080fd5b80638da5cb5b116100a55780638da5cb5b146103115780638f620487146103345780638f813d641461034a57600080fd5b806385474728146102e65780638654aa34146102fb57600080fd5b80635c975abb11610117578063715018a6116100fc578063715018a6146102525780637826a4e4146102675780637cc1f8671461027d57600080fd5b80635c975abb1461021a5780635e3044cb1461023257600080fd5b806328f4ddae1161014857806328f4ddae146101a857806329e20d5b146101cd578063567ad984146101e257600080fd5b80631cc1cf4614610177578063212d6723146101a057600080fd5b36610172576101706103d9565b005b600080fd5b34801561018357600080fd5b5061018d60045481565b6040519081526020015b60405180910390f35b6101706103d9565b3480156101b457600080fd5b506101bd6105e5565b6040519015158152602001610197565b3480156101d957600080fd5b50610170610601565b3480156101ee57600080fd5b50600254610202906001600160a01b031681565b6040516001600160a01b039091168152602001610197565b34801561022657600080fd5b5060005460ff166101bd565b34801561023e57600080fd5b50600154610202906001600160a01b031681565b34801561025e57600080fd5b5061017061061b565b34801561027357600080fd5b5061018d60065481565b34801561028957600080fd5b5061029261062d565b60408051998a526001600160a01b0398891660208b015296909716958801959095526060870193909352608086019190915260a085015260c0840152151560e0830152151561010082015261012001610197565b3480156102f257600080fd5b50610170610698565b34801561030757600080fd5b5061018d60085481565b34801561031d57600080fd5b5060005461010090046001600160a01b0316610202565b34801561034057600080fd5b5061018d60055481565b34801561035657600080fd5b506007546101bd9060ff1681565b34801561037057600080fd5b506101bd6106b0565b34801561038557600080fd5b506101706106e0565b34801561039a57600080fd5b5061018d60035481565b3480156103b057600080fd5b506101bd6107c1565b3480156103c557600080fd5b506101706103d4366004610a69565b6107d5565b6103e1610865565b6001546001600160a01b031633146104665760405162461bcd60e51b815260206004820152602260248201527f4f6e6c79206c6963656e7365652063616e207061792074686520726f79616c7460448201527f792e00000000000000000000000000000000000000000000000000000000000060648201526084015b60405180910390fd5b60035434146104b75760405162461bcd60e51b815260206004820152601460248201527f496e636f7272656374206665652076616c75652e000000000000000000000000604482015260640161045d565b6005546004546006546104ca9190610a99565b111561053e5760405162461bcd60e51b815260206004820152603760248201527f546865207061796d656e7420657874656e73696f6e20696e74657276616c206560448201527f7863656564732065787069726174696f6e20646174652e000000000000000000606482015260840161045d565b6002546040516001600160a01b03909116903480156108fc02916000818181858888f19350505050158015610577573d6000803e3d6000fd5b506004546006546105889190610a99565b60068190556001546008546003546040516001600160a01b039093169330937f8df6c78c9e8b798b59502f3ab101992987a00e18af9e99e7ddc005375be490c5926105db92908252602082015260400190565b60405180910390a4565b60006105ef6108b8565b6105f7610865565b5060075460ff1690565b6106096108b8565b610611610918565b61061961096a565b565b6106236108b8565b61061960006109bc565b60008060008060008060008060006106436108b8565b6008546002546001546003546004546005546006546007546001600160a01b0396871696959095169460ff1661067b60005460ff1690565b985098509850985098509850985098509850909192939495969798565b6106a06108b8565b6106a8610865565b610619610a2c565b60006106ba6108b8565b6005544211156106ca5750600090565b6006544211156106da5750600090565b50600190565b6106e8610865565b6001546001600160a01b031633146107685760405162461bcd60e51b815260206004820152602660248201527f4f6e6c79206c6963656e7365652063616e20617070726f766520666f7220646560448201527f7374726f792e0000000000000000000000000000000000000000000000000000606482015260840161045d565b6007805460ff1916600190811790915560025460085491546040516001600160a01b039182168152309391909216917f8dcee96114f2f589ff7f6bf56545cd0fb370ffadb7596e90bbdd1df53683c2d3906020016105db565b60006107cb6108b8565b5060005460ff1690565b6107dd6108b8565b6001600160a01b0381166108595760405162461bcd60e51b815260206004820152602660248201527f4f776e61626c653a206e6577206f776e657220697320746865207a65726f206160448201527f6464726573730000000000000000000000000000000000000000000000000000606482015260840161045d565b610862816109bc565b50565b60005460ff16156106195760405162461bcd60e51b815260206004820152601060248201527f5061757361626c653a2070617573656400000000000000000000000000000000604482015260640161045d565b6000546001600160a01b036101009091041633146106195760405162461bcd60e51b815260206004820181905260248201527f4f776e61626c653a2063616c6c6572206973206e6f7420746865206f776e6572604482015260640161045d565b60005460ff166106195760405162461bcd60e51b815260206004820152601460248201527f5061757361626c653a206e6f7420706175736564000000000000000000000000604482015260640161045d565b610972610918565b6000805460ff191690557f5db9ee0a495bf2e6ff9c91a7834c1ba4fdd244a5e8aa4e537bd38aeae4b073aa335b6040516001600160a01b03909116815260200160405180910390a1565b600080546001600160a01b038381166101008181027fffffffffffffffffffffff0000000000000000000000000000000000000000ff851617855560405193049190911692909183917f8be0079c531659141344cd1fd0a4f28419497f9722a3daafe3b4186f6b6457e091a35050565b610a34610865565b6000805460ff191660011790557f62e78cea01bee320cd4e420270b5ea74000d11b0c9f74754ebdbfc544b05a25861099f3390565b600060208284031215610a7b57600080fd5b81356001600160a01b0381168114610a9257600080fd5b9392505050565b80820180821115610ad3577f4e487b7100000000000000000000000000000000000000000000000000000000600052601160045260246000fd5b9291505056fea2646970667358221220922ed2c3ebe9460c7a37f7ab8b6963197547f8cc2cd9d090695f41735b6ddfae64736f6c63430008120033a26469706673582212204952844ab8a36e6b44448d71a435f2b67f55012909e4b08e27a17f68218996ae64736f6c63430008120033",
  "linkReferences": {},
  "deployedLinkReferences": {}
}