{
  "_format": "hh-sol-artifact-1",
  "contractName": "PatentManagement",
  "sourceName": "contracts/PatentManagement.sol",
  "abi": [
    {
      "inputs": [],
      "stateMutability": "nonpayable",
      "type": "constructor"
    },
    {
      "anonymous": false,
      "inputs": [
        {
          "indexed": true,
          "internalType": "bytes32",
          "name": "patentId",
          "type": "bytes32"
        },
        {
          "indexed": true,
          "internalType": "address",
          "name": "owner",
          "type": "address"
        },
        {
          "indexed": false,
          "internalType": "uint256",
          "name": "expirationDate",
          "type": "uint256"
        }
      ],
      "name": "PatentDraftSubmitted",
      "type": "event"
    },
    {
      "anonymous": false,
      "inputs": [
        {
          "indexed": true,
          "internalType": "bytes32",
          "name": "patentId",
          "type": "bytes32"
        },
        {
          "indexed": true,
          "internalType": "address",
          "name": "owner",
          "type": "address"
        },
        {
          "indexed": false,
          "internalType": "uint256",
          "name": "expirationDate",
          "type": "uint256"
        }
      ],
      "name": "PatentExtended",
      "type": "event"
    },
    {
      "anonymous": false,
      "inputs": [
        {
          "indexed": true,
          "internalType": "bytes32",
          "name": "patentId",
          "type": "bytes32"
        },
        {
          "indexed": true,
          "internalType": "address",
          "name": "owner",
          "type": "address"
        },
        {
          "indexed": false,
          "internalType": "uint256",
          "name": "expirationDate",
          "type": "uint256"
        }
      ],
      "name": "PatentExtensionApproved",
      "type": "event"
    },
    {
      "anonymous": false,
      "inputs": [
        {
          "indexed": true,
          "internalType": "bytes32",
          "name": "patentId",
          "type": "bytes32"
        },
        {
          "indexed": true,
          "internalType": "address",
          "name": "owner",
          "type": "address"
        },
        {
          "indexed": false,
          "internalType": "uint256",
          "name": "expirationDate",
          "type": "uint256"
        }
      ],
      "name": "PatentExtensionRejected",
      "type": "event"
    },
    {
      "anonymous": false,
      "inputs": [
        {
          "indexed": true,
          "internalType": "bytes32",
          "name": "patentId",
          "type": "bytes32"
        },
        {
          "indexed": true,
          "internalType": "address",
          "name": "owner",
          "type": "address"
        },
        {
          "indexed": false,
          "internalType": "uint256",
          "name": "expirationDate",
          "type": "uint256"
        }
      ],
      "name": "PatentGranted",
      "type": "event"
    },
    {
      "anonymous": false,
      "inputs": [
        {
          "indexed": true,
          "internalType": "bytes32",
          "name": "patentId",
          "type": "bytes32"
        },
        {
          "indexed": true,
          "internalType": "address",
          "name": "owner",
          "type": "address"
        },
        {
          "indexed": false,
          "internalType": "uint256",
          "name": "expirationDate",
          "type": "uint256"
        }
      ],
      "name": "PatentRevoked",
      "type": "event"
    },
    {
      "anonymous": false,
      "inputs": [
        {
          "indexed": true,
          "internalType": "bytes32",
          "name": "patentId",
          "type": "bytes32"
        },
        {
          "indexed": true,
          "internalType": "address",
          "name": "lincesedOrgRoyaltyContract",
          "type": "address"
        },
        {
          "indexed": true,
          "internalType": "address",
          "name": "licensee",
          "type": "address"
        }
      ],
      "name": "RoyaltyContractApproved",
      "type": "event"
    },
    {
      "anonymous": false,
      "inputs": [
        {
          "indexed": true,
          "internalType": "bytes32",
          "name": "patentId",
          "type": "bytes32"
        },
        {
          "indexed": true,
          "internalType": "address",
          "name": "licensor",
          "type": "address"
        },
        {
          "indexed": false,
          "internalType": "uint256",
          "name": "royaltyFee",
          "type": "uint256"
        },
        {
          "indexed": false,
          "internalType": "uint256",
          "name": "paymentInterval",
          "type": "uint256"
        },
        {
          "indexed": true,
          "internalType": "address",
          "name": "licensee",
          "type": "address"
        },
        {
          "indexed": false,
          "internalType": "address",
          "name": "royaltyContractAddress",
          "type": "address"
        }
      ],
      "name": "RoyaltyContractCreated",
      "type": "event"
    },
    {
      "anonymous": false,
      "inputs": [
        {
          "indexed": true,
          "internalType": "bytes32",
          "name": "patentId",
          "type": "bytes32"
        },
        {
          "indexed": true,
          "internalType": "address",
          "name": "licensee",
          "type": "address"
        },
        {
          "indexed": true,
          "internalType": "address",
          "name": "lincesedOrgRoyaltyContract",
          "type": "address"
        }
      ],
      "name": "RoyaltyContractDestroyed",
      "type": "event"
    },
    {
      "anonymous": false,
      "inputs": [
        {
          "indexed": true,
          "internalType": "bytes32",
          "name": "patentId",
          "type": "bytes32"
        },
        {
          "indexed": true,
          "internalType": "address",
          "name": "licensee",
          "type": "address"
        },
        {
          "indexed": true,
          "internalType": "address",
          "name": "lincesedOrgRoyaltyContract",
          "type": "address"
        }
      ],
      "name": "RoyaltyContractVerified",
      "type": "event"
    },
    {
      "inputs": [],
      "name": "DRAFT_FEE",
      "outputs": [
        {
          "internalType": "uint256",
          "name": "",
          "type": "uint256"
        }
      ],
      "stateMutability": "view",
      "type": "function"
    },
    {
      "inputs": [],
      "name": "EXNTENSION_DURATION",
      "outputs": [
        {
          "internalType": "uint256",
          "name": "",
          "type": "uint256"
        }
      ],
      "stateMutability": "view",
      "type": "function"
    },
    {
      "inputs": [],
      "name": "EXPIRATION_DURATION",
      "outputs": [
        {
          "internalType": "uint256",
          "name": "",
          "type": "uint256"
        }
      ],
      "stateMutability": "view",
      "type": "function"
    },
    {
      "inputs": [],
      "name": "admin",
      "outputs": [
        {
          "internalType": "address payable",
          "name": "",
          "type": "address"
        }
      ],
      "stateMutability": "view",
      "type": "function"
    },
    {
      "inputs": [
        {
          "internalType": "bytes32",
          "name": "_patentId",
          "type": "bytes32"
        }
      ],
      "name": "approveRoyaltyContract",
      "outputs": [],
      "stateMutability": "nonpayable",
      "type": "function"
    },
    {
      "inputs": [
        {
          "internalType": "bytes32",
          "name": "_patentId",
          "type": "bytes32"
        }
      ],
      "name": "checkPatentExpExtensionStatus",
      "outputs": [
        {
          "internalType": "enum PatentManagement.Status",
          "name": "",
          "type": "uint8"
        }
      ],
      "stateMutability": "view",
      "type": "function"
    },
    {
      "inputs": [
        {
          "internalType": "bytes32",
          "name": "_patentId",
          "type": "bytes32"
        }
      ],
      "name": "checkPatentStatus",
      "outputs": [
        {
          "internalType": "enum PatentManagement.Status",
          "name": "",
          "type": "uint8"
        }
      ],
      "stateMutability": "view",
      "type": "function"
    },
    {
      "inputs": [
        {
          "internalType": "bytes32",
          "name": "_patentId",
          "type": "bytes32"
        },
        {
          "internalType": "address",
          "name": "_licensee",
          "type": "address"
        }
      ],
      "name": "checkValidityOfRoyaltyContract",
      "outputs": [],
      "stateMutability": "nonpayable",
      "type": "function"
    },
    {
      "inputs": [
        {
          "internalType": "bytes32",
          "name": "_patentId",
          "type": "bytes32"
        },
        {
          "internalType": "address",
          "name": "_licensee",
          "type": "address"
        },
        {
          "internalType": "uint256",
          "name": "_royaltyFee",
          "type": "uint256"
        },
        {
          "internalType": "uint256",
          "name": "_paymentInterval",
          "type": "uint256"
        },
        {
          "internalType": "uint256",
          "name": "_contractExpirationPeriod",
          "type": "uint256"
        }
      ],
      "name": "createRoyaltyContract",
      "outputs": [],
      "stateMutability": "nonpayable",
      "type": "function"
    },
    {
      "inputs": [
        {
          "internalType": "bytes32",
          "name": "_patentId",
          "type": "bytes32"
        },
        {
          "internalType": "address",
          "name": "_licensee",
          "type": "address"
        }
      ],
      "name": "destroyRoyaltyContract",
      "outputs": [],
      "stateMutability": "nonpayable",
      "type": "function"
    },
    {
      "inputs": [
        {
          "internalType": "bytes32",
          "name": "_patentId",
          "type": "bytes32"
        }
      ],
      "name": "extendExpirationDateOfPatent",
      "outputs": [],
      "stateMutability": "nonpayable",
      "type": "function"
    },
    {
      "inputs": [
        {
          "internalType": "bytes32",
          "name": "_patentId",
          "type": "bytes32"
        },
        {
          "internalType": "address",
          "name": "_licensee",
          "type": "address"
        }
      ],
      "name": "getContractAddressForLicensee",
      "outputs": [
        {
          "internalType": "address",
          "name": "",
          "type": "address"
        }
      ],
      "stateMutability": "view",
      "type": "function"
    },
    {
      "inputs": [
        {
          "internalType": "bytes32",
          "name": "_patentId",
          "type": "bytes32"
        }
      ],
      "name": "getPatentData",
      "outputs": [
        {
          "internalType": "address",
          "name": "",
          "type": "address"
        },
        {
          "internalType": "address[]",
          "name": "",
          "type": "address[]"
        },
        {
          "internalType": "uint256",
          "name": "",
          "type": "uint256"
        },
        {
          "internalType": "enum PatentManagement.Status",
          "name": "",
          "type": "uint8"
        },
        {
          "internalType": "enum PatentManagement.Status",
          "name": "",
          "type": "uint8"
        }
      ],
      "stateMutability": "view",
      "type": "function"
    },
    {
      "inputs": [
        {
          "internalType": "address",
          "name": "owner",
          "type": "address"
        }
      ],
      "name": "getPatentsByOwner",
      "outputs": [
        {
          "internalType": "bytes32[]",
          "name": "",
          "type": "bytes32[]"
        }
      ],
      "stateMutability": "view",
      "type": "function"
    },
    {
      "inputs": [
        {
          "internalType": "bytes32",
          "name": "_patentId",
          "type": "bytes32"
        },
        {
          "internalType": "enum PatentManagement.Status",
          "name": "_newExtensionState",
          "type": "uint8"
        }
      ],
      "name": "handlePatentExtensionRequest",
      "outputs": [],
      "stateMutability": "nonpayable",
      "type": "function"
    },
    {
      "inputs": [
        {
          "internalType": "bytes32",
          "name": "_patentId",
          "type": "bytes32"
        },
        {
          "internalType": "enum PatentManagement.Status",
          "name": "_newPatentStatus",
          "type": "uint8"
        }
      ],
      "name": "handlePatentState",
      "outputs": [],
      "stateMutability": "nonpayable",
      "type": "function"
    },
    {
      "inputs": [
        {
          "internalType": "address",
          "name": "",
          "type": "address"
        },
        {
          "internalType": "uint256",
          "name": "",
          "type": "uint256"
        }
      ],
      "name": "licenseePatents",
      "outputs": [
        {
          "internalType": "bytes32",
          "name": "",
          "type": "bytes32"
        }
      ],
      "stateMutability": "view",
      "type": "function"
    },
    {
      "inputs": [
        {
          "internalType": "address",
          "name": "",
          "type": "address"
        },
        {
          "internalType": "uint256",
          "name": "",
          "type": "uint256"
        }
      ],
      "name": "ownerPatents",
      "outputs": [
        {
          "internalType": "bytes32",
          "name": "",
          "type": "bytes32"
        }
      ],
      "stateMutability": "view",
      "type": "function"
    },
    {
      "inputs": [
        {
          "internalType": "bytes32",
          "name": "",
          "type": "bytes32"
        }
      ],
      "name": "patents",
      "outputs": [
        {
          "internalType": "address",
          "name": "owner",
          "type": "address"
        },
        {
          "internalType": "uint256",
          "name": "expirationDate",
          "type": "uint256"
        },
        {
          "internalType": "enum PatentManagement.Status",
          "name": "expirationExtension",
          "type": "uint8"
        },
        {
          "internalType": "enum PatentManagement.Status",
          "name": "status",
          "type": "uint8"
        }
      ],
      "stateMutability": "view",
      "type": "function"
    },
    {
      "inputs": [
        {
          "internalType": "bytes32",
          "name": "_patentId",
          "type": "bytes32"
        }
      ],
      "name": "requestExtension",
      "outputs": [],
      "stateMutability": "nonpayable",
      "type": "function"
    },
    {
      "inputs": [],
      "name": "submitDraftPatent",
      "outputs": [],
      "stateMutability": "payable",
      "type": "function"
    }
  ],
  "bytecode": "0x608060405234801561001057600080fd5b50600080546001600160a01b03191633179055612eef806100326000396000f3fe608060405260043610620001875760003560e01c80639d9854f311620000db578063caa6e3931162000089578063ef5eccc91162000060578063ef5eccc914620004cb578063f851a44014620004d5578063fc8f39f514620004f757600080fd5b8063caa6e3931462000463578063edc4f6151462000481578063eea2c59c14620004a657600080fd5b8063b4a8964811620000be578063b4a8964814620003ff578063c131ffef1462000424578063c8231485146200043e57600080fd5b80639d9854f3146200039e578063ab5b5cb014620003da57600080fd5b806347d8a87911620001395780635d4881dd116200011c5780635d4881dd14620002ca57806368347e1814620003105780639c6cabb2146200037957600080fd5b806347d8a87914620002805780634bc1867114620002a557600080fd5b80632794a63d116200016e5780632794a63d14620001f457806334edf228146200021d57806342fc1ffb146200024257600080fd5b80631c4b1099146200018c5780631d78a4df14620001cd575b600080fd5b3480156200019957600080fd5b50620001b1620001ab36600462001f45565b6200052b565b604051620001c495949392919062001f98565b60405180910390f35b348015620001da57600080fd5b50620001f2620001ec36600462001f45565b62000669565b005b3480156200020157600080fd5b506200020e632598060081565b604051908152602001620001c4565b3480156200022a57600080fd5b50620001f26200023c3660046200203b565b620008c6565b3480156200024f57600080fd5b5062000267620002613660046200203b565b62000c0c565b6040516001600160a01b039091168152602001620001c4565b3480156200028d57600080fd5b506200020e6200029f3660046200206a565b62000c38565b348015620002b257600080fd5b50620001f2620002c436600462002097565b62000c6a565b348015620002d757600080fd5b5062000301620002e936600462001f45565b60009081526002602052604090206003015460ff1690565b604051620001c49190620020cd565b3480156200031d57600080fd5b50620003676200032f36600462001f45565b60026020819052600091825260409091208054918101546003909101546001600160a01b039092169160ff8082169161010090041684565b604051620001c49493929190620020dd565b3480156200038657600080fd5b50620001f2620003983660046200203b565b62000e5b565b348015620003ab57600080fd5b5062000301620003bd36600462001f45565b600090815260026020526040902060030154610100900460ff1690565b348015620003e757600080fd5b506200020e620003f93660046200206a565b620011c5565b3480156200040c57600080fd5b50620001f26200041e36600462001f45565b620011e2565b3480156200043157600080fd5b506200020e630966018081565b3480156200044b57600080fd5b50620001f26200045d36600462002097565b62001465565b3480156200047057600080fd5b506200020e6729a2241af62c000081565b3480156200048e57600080fd5b50620001f2620004a036600462001f45565b6200164c565b348015620004b357600080fd5b50620001f2620004c53660046200211b565b6200177c565b620001f262001a15565b348015620004e257600080fd5b5060005462000267906001600160a01b031681565b3480156200050457600080fd5b506200051c6200051636600462002164565b62001bf1565b604051620001c4919062002182565b6000818152600260209081526040808320815160a08101835281546001600160a01b03168152600182018054845181870281018701909552808552606095879586958695869590949193858101939290830182828015620005b657602002820191906000526020600020905b81546001600160a01b0316815260019091019060200180831162000597575b50505091835250506002820154602082015260038083015460409092019160ff1690811115620005ea57620005ea62001f5f565b6003811115620005fe57620005fe62001f5f565b81526020016003820160019054906101000a900460ff16600381111562000629576200062962001f5f565b60038111156200063d576200063d62001f5f565b9052508051602082015160408301516060840151608090940151929b919a509850919650945092505050565b80620006783360048362001c5f565b620006f05760405162461bcd60e51b815260206004820152602d60248201527f4f6e6c7920706174656e74206c6963656e7365652063616e20706572666f726d60448201527f207468697320616374696f6e2e0000000000000000000000000000000000000060648201526084015b60405180910390fd5b60026000838152600260205260409020600390810154610100900460ff169081111562000721576200072162001f5f565b14620007665760405162461bcd60e51b81526020600482015260136024820152722830ba32b73a103737ba1033b930b73a32b21760691b6044820152606401620006e7565b620007754262015180620021de565b6000838152600260208190526040909120015411620007e65760405162461bcd60e51b815260206004820152602660248201527f506174656e742077696c6c2065787069726520696e206c657373207468616e2060448201526518903230bc9760d11b6064820152608401620006e7565b60008281526001602090815260408083203384529091528082205481517f29e20d5b00000000000000000000000000000000000000000000000000000000815291516001600160a01b039091169283926329e20d5b926004808301939282900301818387803b1580156200085957600080fd5b505af11580156200086e573d6000803e3d6000fd5b50505060008481526001602090815260408083203380855292528083205490519193506001600160a01b03169186917f4be16d196ea0c91556663a891d4a2eab5a2bbb8a0dc8430d276e549e26807cbc9190a4505050565b81620008d53360038362001c5f565b620009365760405162461bcd60e51b815260206004820152602a60248201527f4f6e6c7920706174656e74206f776e65722063616e20706572666f726d20746860448201526934b99030b1ba34b7b71760b11b6064820152608401620006e7565b60026000848152600260205260409020600390810154610100900460ff169081111562000967576200096762001f5f565b14620009ac5760405162461bcd60e51b81526020600482015260136024820152722830ba32b73a103737ba1033b930b73a32b21760691b6044820152606401620006e7565b60008381526001602090815260408083206001600160a01b038087168552925290912054168062000a205760405162461bcd60e51b815260206004820152601f60248201527f526f79616c747920636f6e747261637420646f6573206e6f74206578697374006044820152606401620006e7565b8062000a304262015180620021de565b60008681526002602081905260409091200154108062000ab25750806001600160a01b031663a00ce3776040518163ffffffff1660e01b8152600401602060405180830381865afa15801562000a8a573d6000803e3d6000fd5b505050506040513d601f19601f8201168201806040525081019062000ab09190620021f4565b155b1562000bc357806001600160a01b031663854747286040518163ffffffff1660e01b8152600401600060405180830381600087803b15801562000af457600080fd5b505af115801562000b09573d6000803e3d6000fd5b50505060008681526001602081815260408084206001600160a01b038a168552825280842080546001600160a01b03191690558984526002909152909120915062000b579082018662001d23565b6001600160a01b038516600090815260046020526040902062000b7b908762001e57565b826001600160a01b0316856001600160a01b0316877f9d6027a530e82351d1b8fcd1d84d64dc5970b753233c5e6c9c339d193cc0729660405160405180910390a45062000c05565b816001600160a01b0316846001600160a01b0316867f8ceab313e0f6f25256b2fda24fd981578c842fd28aa65d222cc46b42a9f8da3860405160405180910390a45b5050505050565b60008281526001602090815260408083206001600160a01b038086168552925290912054165b92915050565b6003602052816000526040600020818154811062000c5557600080fd5b90600052602060002001600091509150505481565b6000546001600160a01b0316331462000cd25760405162461bcd60e51b815260206004820152602360248201527f4f6e6c792061646d696e2063616e20706572666f726d2074686973206163746960448201526237b71760e91b6064820152608401620006e7565b6001600083815260026020526040902060039081015460ff169081111562000cfe5762000cfe62001f5f565b1462000d575760405162461bcd60e51b815260206004820152602160248201527f506174656e74206973206e6f7420696e207265717565737465642073746174656044820152601760f91b6064820152608401620006e7565b600082815260026020526040902060039081018054839260ff1990911690600190849081111562000d8c5762000d8c62001f5f565b0217905550600281600381111562000da85762000da862001f5f565b0362000e0857600082815260026020818152604092839020805492015492519283526001600160a01b039091169184917f6bcbf68bf6f99ade7ea084c126b4e5b40d157224ea57a7d3c916780d8c828d4791015b60405180910390a35050565b600082815260026020818152604092839020805492015492519283526001600160a01b039091169184917f726791534415f84e05ba743be4e62982dcfc5fb795d826d2e48a9ad7a1c33961910162000dfc565b8162000e6a3360038362001c5f565b62000ecb5760405162461bcd60e51b815260206004820152602a60248201527f4f6e6c7920706174656e74206f776e65722063616e20706572666f726d20746860448201526934b99030b1ba34b7b71760b11b6064820152608401620006e7565b60026000848152600260205260409020600390810154610100900460ff169081111562000efc5762000efc62001f5f565b1462000f415760405162461bcd60e51b81526020600482015260136024820152722830ba32b73a103737ba1033b930b73a32b21760691b6044820152606401620006e7565b60008381526001602090815260408083206001600160a01b038087168552925290912054168062000fb55760405162461bcd60e51b815260206004820152601f60248201527f526f79616c747920636f6e747261637420646f6573206e6f74206578697374006044820152606401620006e7565b6000819050806001600160a01b03166328f4ddae6040518163ffffffff1660e01b8152600401602060405180830381865afa15801562000ff9573d6000803e3d6000fd5b505050506040513d601f19601f820116820180604052508101906200101f9190620021f4565b620010b95760405162461bcd60e51b815260206004820152604160248201527f4c6963656e73656520686173206e6f7420617070726f7665642074686520646560448201527f737472756374696f6e206f662074686520726f79616c747920636f6e7472616360648201527f7400000000000000000000000000000000000000000000000000000000000000608482015260a401620006e7565b806001600160a01b031663854747286040518163ffffffff1660e01b8152600401600060405180830381600087803b158015620010f557600080fd5b505af11580156200110a573d6000803e3d6000fd5b50505060008681526001602081815260408084206001600160a01b038a168552825280842080546001600160a01b031916905589845260029091529091209150620011589082018662001d23565b6001600160a01b03851660009081526004602052604090206200117c908762001e57565b826001600160a01b0316856001600160a01b0316877f9d6027a530e82351d1b8fcd1d84d64dc5970b753233c5e6c9c339d193cc0729660405160405180910390a4505050505050565b6004602052816000526040600020818154811062000c5557600080fd5b6000546001600160a01b031633146200124a5760405162461bcd60e51b815260206004820152602360248201527f4f6e6c792061646d696e2063616e20706572666f726d2074686973206163746960448201526237b71760e91b6064820152608401620006e7565b60026000828152600260205260409020600390810154610100900460ff16908111156200127b576200127b62001f5f565b14620012c05760405162461bcd60e51b81526020600482015260136024820152722830ba32b73a103737ba1033b930b73a32b21760691b6044820152606401620006e7565b6001600082815260026020526040902060039081015460ff1690811115620012ec57620012ec62001f5f565b14620013615760405162461bcd60e51b815260206004820152602660248201527f506174656e7420657874656e73696f6e206e6f7420696e2050656e64696e672060448201527f73746174652e00000000000000000000000000000000000000000000000000006064820152608401620006e7565b620013704262015180620021de565b6000828152600260208190526040909120015411620013e15760405162461bcd60e51b815260206004820152602660248201527f506174656e742077696c6c2065787069726520696e206c657373207468616e2060448201526518903230bc9760d11b6064820152608401620006e7565b600081815260026020819052604082200180546309660180929062001408908490620021de565b9091555050600081815260026020818152604092839020805492015492519283526001600160a01b039091169183917ff98eed706510d9a1701d066e60f7a5cab98976e98aca8cc5b0498fe2cf89272a910160405180910390a350565b6000546001600160a01b03163314620014cd5760405162461bcd60e51b815260206004820152602360248201527f4f6e6c792061646d696e2063616e20706572666f726d2074686973206163746960448201526237b71760e91b6064820152608401620006e7565b60016000838152600260205260409020600390810154610100900460ff1690811115620014fe57620014fe62001f5f565b146200154d5760405162461bcd60e51b815260206004820152601f60248201527f506174656e74206973206e6f7420696e2050656e64696e672073746174652e006044820152606401620006e7565b600082815260026020526040902060039081018054839261ff00199091169061010090849081111562001584576200158462001f5f565b02179055506002816003811115620015a057620015a062001f5f565b03620015f957600082815260026020818152604092839020805492015492519283526001600160a01b039091169184917fb6c2e5af6df126b1e5cd8151444445747245b128daac3756a2b2d3b6ab59dff8910162000dfc565b600082815260026020818152604092839020805492015492519283526001600160a01b039091169184917f4359dd938d1b13dc419fa9142e7a432f7272e1c903f9ea19d9f71b1e576069d4910162000dfc565b806200165b3360038362001c5f565b620016bc5760405162461bcd60e51b815260206004820152602a60248201527f4f6e6c7920706174656e74206f776e65722063616e20706572666f726d20746860448201526934b99030b1ba34b7b71760b11b6064820152608401620006e7565b600082815260026020526040812060039081015460ff1690811115620016e657620016e662001f5f565b146200175b5760405162461bcd60e51b815260206004820152602360248201527f506174656e7420657874656e73696f6e20616c7265616479207265717565737460448201527f65642e00000000000000000000000000000000000000000000000000000000006064820152608401620006e7565b506000908152600260205260409020600301805461ff001916610100179055565b846200178b3360038362001c5f565b620017ec5760405162461bcd60e51b815260206004820152602a60248201527f4f6e6c7920706174656e74206f776e65722063616e20706572666f726d20746860448201526934b99030b1ba34b7b71760b11b6064820152608401620006e7565b60026000878152600260205260409020600390810154610100900460ff16908111156200181d576200181d62001f5f565b14620018625760405162461bcd60e51b81526020600482015260136024820152722830ba32b73a103737ba1033b930b73a32b21760691b6044820152606401620006e7565b620018714262015180620021de565b6000878152600260208190526040909120015411620018e25760405162461bcd60e51b815260206004820152602660248201527f506174656e742077696c6c2065787069726520696e206c657373207468616e2060448201526518903230bc9760d11b6064820152608401620006e7565b6000868686868633604051620018f89062001f37565b9586526001600160a01b0394851660208701526040860193909352606085019190915260808401521660a082015260c001604051809103906000f08015801562001946573d6000803e3d6000fd5b5060008881526001602081815260408084206001600160a01b038c811680875291845282862080549188166001600160a01b031992831681179091558e87526002855283872080870180548089018255908952868920018054909316841790925582875260048552838720805496870181558752958490209094018d905581518b81529283018a9052908201939093529293509133908a907f614f6ab40eb754638ac2b892c0d2227b00cce60a04a08331e586ceca1dc1c0289060600160405180910390a45050505050505050565b6000546001600160a01b0316330362001a7b5760405162461bcd60e51b815260206004820152602160248201527f41646d696e2063616e6e6f74207375626d697420647261667420706174656e746044820152601760f91b6064820152608401620006e7565b6729a2241af62c0000341462001ad45760405162461bcd60e51b815260206004820152601360248201527f496e636f727265637420647261667420666565000000000000000000000000006044820152606401620006e7565b6040516bffffffffffffffffffffffff193360601b16602082015242603482015260009060540160408051601f198184030181529181528151602092830120600081815260028452828120338083526003865293822080546001810182559083529490912090930181905582546001600160a01b0319169091178255915062001b62632598060042620021de565b6002820181905560038201805461ffff1916610100179055604051908152339083907f0b7e06468bbc1595894d83e9ed1dc240758b3b49ef38665b19d6964d2294f6059060200160405180910390a3600080546040516001600160a01b03909116913480156108fc02929091818181858888f1935050505015801562001bec573d6000803e3d6000fd5b505050565b6001600160a01b03811660009081526003602090815260409182902080548351818402810184019094528084526060939283018282801562001c5357602002820191906000526020600020905b81548152602001906001019080831162001c3e575b50505050509050919050565b6001600160a01b0383166000908152602083815260408083208054825181850281018501909352808352849383018282801562001cbc57602002820191906000526020600020905b81548152602001906001019080831162001ca7575b5050505050905060005b815181101562001d15578382828151811062001ce65762001ce662002218565b60200260200101510362001d005760019250505062001d1c565b8062001d0c816200222e565b91505062001cc6565b5060009150505b9392505050565b60005b825481101562001bec57816001600160a01b031683828154811062001d4f5762001d4f62002218565b6000918252602090912001546001600160a01b03160362001e4257825462001d7a906001906200224a565b811462001e08578254839062001d93906001906200224a565b8154811062001da65762001da662002218565b9060005260206000200160009054906101000a90046001600160a01b031683828154811062001dd95762001dd962002218565b9060005260206000200160006101000a8154816001600160a01b0302191690836001600160a01b031602179055505b8280548062001e1b5762001e1b62002260565b600082815260209020810160001990810180546001600160a01b0319169055019055505050565b8062001e4e816200222e565b91505062001d26565b60005b825481101562001bec578183828154811062001e7a5762001e7a62002218565b90600052602060002001540362001f2257825462001e9b906001906200224a565b811462001ef4578254839062001eb4906001906200224a565b8154811062001ec75762001ec762002218565b906000526020600020015483828154811062001ee75762001ee762002218565b6000918252602090912001555b8280548062001f075762001f0762002260565b60019003818190600052602060002001600090559055505050565b8062001f2e816200222e565b91505062001e5a565b610c43806200227783390190565b60006020828403121562001f5857600080fd5b5035919050565b634e487b7160e01b600052602160045260246000fd5b6004811062001f9457634e487b7160e01b600052602160045260246000fd5b9052565b600060a082016001600160a01b038089168452602060a08186015282895180855260c087019150828b01945060005b8181101562001fe757855185168352948301949183019160010162001fc7565b50508094505050505084604083015262002005606083018562001f75565b62002014608083018462001f75565b9695505050505050565b80356001600160a01b03811681146200203657600080fd5b919050565b600080604083850312156200204f57600080fd5b8235915062002061602084016200201e565b90509250929050565b600080604083850312156200207e57600080fd5b62002089836200201e565b946020939093013593505050565b60008060408385031215620020ab57600080fd5b82359150602083013560048110620020c257600080fd5b809150509250929050565b6020810162000c32828462001f75565b6001600160a01b0385168152602081018490526080810162002103604083018562001f75565b62002112606083018462001f75565b95945050505050565b600080600080600060a086880312156200213457600080fd5b8535945062002146602087016200201e565b94979496505050506040830135926060810135926080909101359150565b6000602082840312156200217757600080fd5b62001d1c826200201e565b6020808252825182820181905260009190848201906040850190845b81811015620021bc578351835292840192918401916001016200219e565b50909695505050505050565b634e487b7160e01b600052601160045260246000fd5b8082018082111562000c325762000c32620021c8565b6000602082840312156200220757600080fd5b8151801515811462001d1c57600080fd5b634e487b7160e01b600052603260045260246000fd5b600060018201620022435762002243620021c8565b5060010190565b8181038181111562000c325762000c32620021c8565b634e487b7160e01b600052603160045260246000fdfe608060405234801561001057600080fd5b50604051610c43380380610c4383398101604081905261002f916101da565b6000805460ff19169055610042336100c3565b6008869055600180546001600160a01b0319166001600160a01b03871617905560038490556004839055610076824261023a565b600555610083834261023a565b60065561008e61011c565b6007805460ff19169055600280546001600160a01b0319166001600160a01b0392909216919091179055506102619350505050565b600080546001600160a01b03838116610100818102610100600160a81b0319851617855560405193049190911692909183917f8be0079c531659141344cd1fd0a4f28419497f9722a3daafe3b4186f6b6457e091a35050565b610124610176565b6000805460ff191660011790557f62e78cea01bee320cd4e420270b5ea74000d11b0c9f74754ebdbfc544b05a2586101593390565b6040516001600160a01b03909116815260200160405180910390a1565b60005460ff16156101c05760405162461bcd60e51b815260206004820152601060248201526f14185d5cd8589b194e881c185d5cd95960821b604482015260640160405180910390fd5b565b6001600160a01b03811681146101d757600080fd5b50565b60008060008060008060c087890312156101f357600080fd5b865195506020870151610205816101c2565b8095505060408701519350606087015192506080870151915060a087015161022c816101c2565b809150509295509295509295565b8082018082111561025b57634e487b7160e01b600052601160045260246000fd5b92915050565b6109d3806102706000396000f3fe6080604052600436106101295760003560e01c806385474728116100a55780638f813d6411610074578063a18d8f0311610059578063a18d8f03146102c9578063b8997a97146102de578063f2fde38b146102f457600080fd5b80638f813d641461029a578063a00ce377146102b457600080fd5b806385474728146102365780638654aa341461024b5780638897cad3146102615780638da5cb5b1461027757600080fd5b8063567ad984116100fc5780635e3044cb116100e15780635e3044cb146101eb578063715018a61461020b5780637826a4e41461022057600080fd5b8063567ad9841461019b5780635c975abb146101d357600080fd5b80631cc1cf461461012e578063212d67231461015757806328f4ddae1461016157806329e20d5b14610186575b600080fd5b34801561013a57600080fd5b5061014460045481565b6040519081526020015b60405180910390f35b61015f610314565b005b34801561016d57600080fd5b50610176610520565b604051901515815260200161014e565b34801561019257600080fd5b5061015f61053c565b3480156101a757600080fd5b506002546101bb906001600160a01b031681565b6040516001600160a01b03909116815260200161014e565b3480156101df57600080fd5b5060005460ff16610176565b3480156101f757600080fd5b506001546101bb906001600160a01b031681565b34801561021757600080fd5b5061015f610556565b34801561022c57600080fd5b5061014460065481565b34801561024257600080fd5b5061015f610568565b34801561025757600080fd5b5061014460085481565b34801561026d57600080fd5b5061014460055481565b34801561028357600080fd5b5060005461010090046001600160a01b03166101bb565b3480156102a657600080fd5b506007546101769060ff1681565b3480156102c057600080fd5b50610176610580565b3480156102d557600080fd5b5061015f6105b8565b3480156102ea57600080fd5b5061014460035481565b34801561030057600080fd5b5061015f61030f36600461092d565b610699565b61031c610729565b6001546001600160a01b031633146103a15760405162461bcd60e51b815260206004820152602260248201527f4f6e6c79206c6963656e7365652063616e207061792074686520726f79616c7460448201527f792e00000000000000000000000000000000000000000000000000000000000060648201526084015b60405180910390fd5b60035434146103f25760405162461bcd60e51b815260206004820152601460248201527f496e636f7272656374206665652076616c75652e0000000000000000000000006044820152606401610398565b600554600454600654610405919061095d565b11156104795760405162461bcd60e51b815260206004820152603760248201527f546865207061796d656e7420657874656e73696f6e20696e74657276616c206560448201527f7863656564732065787069726174696f6e20646174652e0000000000000000006064820152608401610398565b6002546040516001600160a01b03909116903480156108fc02916000818181858888f193505050501580156104b2573d6000803e3d6000fd5b506004546006546104c3919061095d565b60068190556001546008546003546040516001600160a01b039093169330937f8df6c78c9e8b798b59502f3ab101992987a00e18af9e99e7ddc005375be490c59261051692908252602082015260400190565b60405180910390a4565b600061052a61077c565b610532610729565b5060075460ff1690565b61054461077c565b61054c6107dc565b61055461082e565b565b61055e61077c565b6105546000610880565b61057061077c565b610578610729565b6105546108f0565b600061058a61077c565b610592610729565b6005544211156105a25750600090565b6006544211156105b25750600090565b50600190565b6105c0610729565b6001546001600160a01b031633146106405760405162461bcd60e51b815260206004820152602660248201527f4f6e6c79206c6963656e7365652063616e20617070726f766520666f7220646560448201527f7374726f792e00000000000000000000000000000000000000000000000000006064820152608401610398565b6007805460ff1916600190811790915560025460085491546040516001600160a01b039182168152309391909216917f8dcee96114f2f589ff7f6bf56545cd0fb370ffadb7596e90bbdd1df53683c2d390602001610516565b6106a161077c565b6001600160a01b03811661071d5760405162461bcd60e51b815260206004820152602660248201527f4f776e61626c653a206e6577206f776e657220697320746865207a65726f206160448201527f64647265737300000000000000000000000000000000000000000000000000006064820152608401610398565b61072681610880565b50565b60005460ff16156105545760405162461bcd60e51b815260206004820152601060248201527f5061757361626c653a20706175736564000000000000000000000000000000006044820152606401610398565b6000546001600160a01b036101009091041633146105545760405162461bcd60e51b815260206004820181905260248201527f4f776e61626c653a2063616c6c6572206973206e6f7420746865206f776e65726044820152606401610398565b60005460ff166105545760405162461bcd60e51b815260206004820152601460248201527f5061757361626c653a206e6f74207061757365640000000000000000000000006044820152606401610398565b6108366107dc565b6000805460ff191690557f5db9ee0a495bf2e6ff9c91a7834c1ba4fdd244a5e8aa4e537bd38aeae4b073aa335b6040516001600160a01b03909116815260200160405180910390a1565b600080546001600160a01b038381166101008181027fffffffffffffffffffffff0000000000000000000000000000000000000000ff851617855560405193049190911692909183917f8be0079c531659141344cd1fd0a4f28419497f9722a3daafe3b4186f6b6457e091a35050565b6108f8610729565b6000805460ff191660011790557f62e78cea01bee320cd4e420270b5ea74000d11b0c9f74754ebdbfc544b05a2586108633390565b60006020828403121561093f57600080fd5b81356001600160a01b038116811461095657600080fd5b9392505050565b80820180821115610997577f4e487b7100000000000000000000000000000000000000000000000000000000600052601160045260246000fd5b9291505056fea2646970667358221220c87d3772b4eea2f260d4a524cdd18137ec66d530a3635a2c3e8c48f1988e91c664736f6c63430008120033a26469706673582212201a38ede1f603dfc343007b93b7a8f8b622f52a9e82f33e5587a6ff1269d587e864736f6c63430008120033",
  "linkReferences": {},
  "deployedLinkReferences": {}
}