{
    "_format": "hh-sol-artifact-1",
    "contractName": "Royalty",
    "sourceName": "contracts/Royalty.sol",
    "abi": [
        {
            "inputs": [
                {
                    "internalType": "bytes32",
                    "name": "_patentId",
                    "type": "bytes32"
                },
                {
                    "internalType": "address",
                    "name": "_licensee",
                    "type": "address"
                },
                {
                    "internalType": "uint256",
                    "name": "_royaltyFee",
                    "type": "uint256"
                },
                {
                    "internalType": "uint256",
                    "name": "_paymentInterval",
                    "type": "uint256"
                },
                {
                    "internalType": "uint256",
                    "name": "_expirationDate",
                    "type": "uint256"
                },
                {
                    "internalType": "address payable",
                    "name": "_patentOwner",
                    "type": "address"
                }
            ],
            "stateMutability": "nonpayable",
            "type": "constructor"
        },
        {
            "anonymous": false,
            "inputs": [
                {
                    "indexed": true,
                    "internalType": "address",
                    "name": "previousOwner",
                    "type": "address"
                },
                {
                    "indexed": true,
                    "internalType": "address",
                    "name": "newOwner",
                    "type": "address"
                }
            ],
            "name": "OwnershipTransferred",
            "type": "event"
        },
        {
            "anonymous": false,
            "inputs": [
                {
                    "indexed": false,
                    "internalType": "address",
                    "name": "account",
                    "type": "address"
                }
            ],
            "name": "Paused",
            "type": "event"
        },
        {
            "anonymous": false,
            "inputs": [
                {
                    "indexed": true,
                    "internalType": "bytes32",
                    "name": "patentId",
                    "type": "bytes32"
                },
                {
                    "indexed": true,
                    "internalType": "address",
                    "name": "owner",
                    "type": "address"
                },
                {
                    "indexed": false,
                    "internalType": "address",
                    "name": "licensee",
                    "type": "address"
                },
                {
                    "indexed": true,
                    "internalType": "address",
                    "name": "contractAddress",
                    "type": "address"
                }
            ],
            "name": "RoyaltyContractApprovedForDestroy",
            "type": "event"
        },
        {
            "anonymous": false,
            "inputs": [
                {
                    "indexed": true,
                    "internalType": "bytes32",
                    "name": "patentId",
                    "type": "bytes32"
                },
                {
                    "indexed": true,
                    "internalType": "address",
                    "name": "contractAddress",
                    "type": "address"
                },
                {
                    "indexed": true,
                    "internalType": "address",
                    "name": "licensee",
                    "type": "address"
                },
                {
                    "indexed": false,
                    "internalType": "uint256",
                    "name": "royaltyFee",
                    "type": "uint256"
                },
                {
                    "indexed": false,
                    "internalType": "uint256",
                    "name": "paidUntil",
                    "type": "uint256"
                }
            ],
            "name": "RoyaltyPaid",
            "type": "event"
        },
        {
            "anonymous": false,
            "inputs": [
                {
                    "indexed": false,
                    "internalType": "address",
                    "name": "account",
                    "type": "address"
                }
            ],
            "name": "Unpaused",
            "type": "event"
        },
        {
            "inputs": [],
            "name": "approveForRoyalty",
            "outputs": [],
            "stateMutability": "nonpayable",
            "type": "function"
        },
        {
            "inputs": [],
            "name": "approvedForDestroy",
            "outputs": [
                {
                    "internalType": "bool",
                    "name": "",
                    "type": "bool"
                }
            ],
            "stateMutability": "view",
            "type": "function"
        },
        {
            "inputs": [],
            "name": "destroySmartContract",
            "outputs": [],
            "stateMutability": "nonpayable",
            "type": "function"
        },
        {
            "inputs": [],
            "name": "expirationDate",
            "outputs": [
                {
                    "internalType": "uint256",
                    "name": "",
                    "type": "uint256"
                }
            ],
            "stateMutability": "view",
            "type": "function"
        },
        {
            "inputs": [],
            "name": "getContractInfo",
            "outputs": [
                {
                    "internalType": "bytes32",
                    "name": "",
                    "type": "bytes32"
                },
                {
                    "internalType": "address",
                    "name": "",
                    "type": "address"
                },
                {
                    "internalType": "address",
                    "name": "",
                    "type": "address"
                },
                {
                    "internalType": "uint256",
                    "name": "",
                    "type": "uint256"
                },
                {
                    "internalType": "uint256",
                    "name": "",
                    "type": "uint256"
                },
                {
                    "internalType": "uint256",
                    "name": "",
                    "type": "uint256"
                },
                {
                    "internalType": "uint256",
                    "name": "",
                    "type": "uint256"
                },
                {
                    "internalType": "bool",
                    "name": "",
                    "type": "bool"
                },
                {
                    "internalType": "bool",
                    "name": "",
                    "type": "bool"
                }
            ],
            "stateMutability": "view",
            "type": "function"
        },
        {
            "inputs": [],
            "name": "getIsContractValid",
            "outputs": [
                {
                    "internalType": "bool",
                    "name": "",
                    "type": "bool"
                }
            ],
            "stateMutability": "view",
            "type": "function"
        },
        {
            "inputs": [],
            "name": "getIsPaused",
            "outputs": [
                {
                    "internalType": "bool",
                    "name": "",
                    "type": "bool"
                }
            ],
            "stateMutability": "view",
            "type": "function"
        },
        {
            "inputs": [],
            "name": "licensee",
            "outputs": [
                {
                    "internalType": "address",
                    "name": "",
                    "type": "address"
                }
            ],
            "stateMutability": "view",
            "type": "function"
        },
        {
            "inputs": [],
            "name": "owner",
            "outputs": [
                {
                    "internalType": "address",
                    "name": "",
                    "type": "address"
                }
            ],
            "stateMutability": "view",
            "type": "function"
        },
        {
            "inputs": [],
            "name": "paidUntil",
            "outputs": [
                {
                    "internalType": "uint256",
                    "name": "",
                    "type": "uint256"
                }
            ],
            "stateMutability": "view",
            "type": "function"
        },
        {
            "inputs": [],
            "name": "patentId",
            "outputs": [
                {
                    "internalType": "bytes32",
                    "name": "",
                    "type": "bytes32"
                }
            ],
            "stateMutability": "view",
            "type": "function"
        },
        {
            "inputs": [],
            "name": "patentOwner",
            "outputs": [
                {
                    "internalType": "address payable",
                    "name": "",
                    "type": "address"
                }
            ],
            "stateMutability": "view",
            "type": "function"
        },
        {
            "inputs": [],
            "name": "paused",
            "outputs": [
                {
                    "internalType": "bool",
                    "name": "",
                    "type": "bool"
                }
            ],
            "stateMutability": "view",
            "type": "function"
        },
        {
            "inputs": [],
            "name": "payRoyalty",
            "outputs": [],
            "stateMutability": "payable",
            "type": "function"
        },
        {
            "inputs": [],
            "name": "paymentInterval",
            "outputs": [
                {
                    "internalType": "uint256",
                    "name": "",
                    "type": "uint256"
                }
            ],
            "stateMutability": "view",
            "type": "function"
        },
        {
            "inputs": [],
            "name": "renounceOwnership",
            "outputs": [],
            "stateMutability": "nonpayable",
            "type": "function"
        },
        {
            "inputs": [],
            "name": "royaltyFee",
            "outputs": [
                {
                    "internalType": "uint256",
                    "name": "",
                    "type": "uint256"
                }
            ],
            "stateMutability": "view",
            "type": "function"
        },
        {
            "inputs": [
                {
                    "internalType": "address",
                    "name": "newOwner",
                    "type": "address"
                }
            ],
            "name": "transferOwnership",
            "outputs": [],
            "stateMutability": "nonpayable",
            "type": "function"
        },
        {
            "stateMutability": "payable",
            "type": "receive"
        }
    ],
    "bytecode": "0x608060405234801561001057600080fd5b50604051610c16380380610c1683398101604081905261002f916101d2565b6000805460ff19169055610042336100bb565b6008869055600180546001600160a01b0319166001600160a01b03871617905560038490556004839055600582905561007b8342610232565b600655610086610114565b6007805460ff19169055600280546001600160a01b0319166001600160a01b0392909216919091179055506102599350505050565b600080546001600160a01b03838116610100818102610100600160a81b0319851617855560405193049190911692909183917f8be0079c531659141344cd1fd0a4f28419497f9722a3daafe3b4186f6b6457e091a35050565b61011c61016e565b6000805460ff191660011790557f62e78cea01bee320cd4e420270b5ea74000d11b0c9f74754ebdbfc544b05a2586101513390565b6040516001600160a01b03909116815260200160405180910390a1565b60005460ff16156101b85760405162461bcd60e51b815260206004820152601060248201526f14185d5cd8589b194e881c185d5cd95960821b604482015260640160405180910390fd5b565b6001600160a01b03811681146101cf57600080fd5b50565b60008060008060008060c087890312156101eb57600080fd5b8651955060208701516101fd816101ba565b8095505060408701519350606087015192506080870151915060a0870151610224816101ba565b809150509295509295509295565b8082018082111561025357634e487b7160e01b600052601160045260246000fd5b92915050565b6109ae806102686000396000f3fe60806040526004361061012d5760003560e01c806385474728116100a55780638f813d6411610074578063b8997a9711610059578063b8997a971461032a578063f2a6f21514610340578063f2fde38b1461035557600080fd5b80638f813d64146102fb578063a00ce3771461031557600080fd5b806385474728146102975780638654aa34146102ac5780638da5cb5b146102c25780638f620487146102e557600080fd5b80635c975abb116100fc578063715018a6116100e1578063715018a6146102035780637826a4e4146102185780637cc1f8671461022e57600080fd5b80635c975abb146101bf5780635e3044cb146101e357600080fd5b80631cc1cf4614610141578063212d67231461016a57806329e20d5b14610172578063567ad9841461018757600080fd5b3661013c5761013a610375565b005b600080fd5b34801561014d57600080fd5b5061015760045481565b6040519081526020015b60405180910390f35b61013a610375565b34801561017e57600080fd5b5061013a610581565b34801561019357600080fd5b506002546101a7906001600160a01b031681565b6040516001600160a01b039091168152602001610161565b3480156101cb57600080fd5b5060005460ff165b6040519015158152602001610161565b3480156101ef57600080fd5b506001546101a7906001600160a01b031681565b34801561020f57600080fd5b5061013a61059b565b34801561022457600080fd5b5061015760065481565b34801561023a57600080fd5b506102436105ad565b60408051998a526001600160a01b0398891660208b015296909716958801959095526060870193909352608086019190915260a085015260c0840152151560e0830152151561010082015261012001610161565b3480156102a357600080fd5b5061013a610618565b3480156102b857600080fd5b5061015760085481565b3480156102ce57600080fd5b5060005461010090046001600160a01b03166101a7565b3480156102f157600080fd5b5061015760055481565b34801561030757600080fd5b506007546101d39060ff1681565b34801561032157600080fd5b506101d3610630565b34801561033657600080fd5b5061015760035481565b34801561034c57600080fd5b506101d3610660565b34801561036157600080fd5b5061013a610370366004610908565b610674565b61037d610704565b6001546001600160a01b031633146104025760405162461bcd60e51b815260206004820152602260248201527f4f6e6c79206c6963656e7365652063616e207061792074686520726f79616c7460448201527f792e00000000000000000000000000000000000000000000000000000000000060648201526084015b60405180910390fd5b60035434146104535760405162461bcd60e51b815260206004820152601460248201527f496e636f7272656374206665652076616c75652e00000000000000000000000060448201526064016103f9565b6005546004546006546104669190610938565b11156104da5760405162461bcd60e51b815260206004820152603760248201527f546865207061796d656e7420657874656e73696f6e20696e74657276616c206560448201527f7863656564732065787069726174696f6e20646174652e00000000000000000060648201526084016103f9565b6002546040516001600160a01b03909116903480156108fc02916000818181858888f19350505050158015610513573d6000803e3d6000fd5b506004546006546105249190610938565b60068190556001546008546003546040516001600160a01b039093169330937f8df6c78c9e8b798b59502f3ab101992987a00e18af9e99e7ddc005375be490c59261057792908252602082015260400190565b60405180910390a4565b610589610757565b6105916107b7565b610599610809565b565b6105a3610757565b610599600061085b565b60008060008060008060008060006105c3610757565b6008546002546001546003546004546005546006546007546001600160a01b0396871696959095169460ff166105fb60005460ff1690565b985098509850985098509850985098509850909192939495969798565b610620610757565b610628610704565b6105996108cb565b600061063a610757565b60055442111561064a5750600090565b60065442111561065a5750600090565b50600190565b600061066a610757565b5060005460ff1690565b61067c610757565b6001600160a01b0381166106f85760405162461bcd60e51b815260206004820152602660248201527f4f776e61626c653a206e6577206f776e657220697320746865207a65726f206160448201527f646472657373000000000000000000000000000000000000000000000000000060648201526084016103f9565b6107018161085b565b50565b60005460ff16156105995760405162461bcd60e51b815260206004820152601060248201527f5061757361626c653a207061757365640000000000000000000000000000000060448201526064016103f9565b6000546001600160a01b036101009091041633146105995760405162461bcd60e51b815260206004820181905260248201527f4f776e61626c653a2063616c6c6572206973206e6f7420746865206f776e657260448201526064016103f9565b60005460ff166105995760405162461bcd60e51b815260206004820152601460248201527f5061757361626c653a206e6f742070617573656400000000000000000000000060448201526064016103f9565b6108116107b7565b6000805460ff191690557f5db9ee0a495bf2e6ff9c91a7834c1ba4fdd244a5e8aa4e537bd38aeae4b073aa335b6040516001600160a01b03909116815260200160405180910390a1565b600080546001600160a01b038381166101008181027fffffffffffffffffffffff0000000000000000000000000000000000000000ff851617855560405193049190911692909183917f8be0079c531659141344cd1fd0a4f28419497f9722a3daafe3b4186f6b6457e091a35050565b6108d3610704565b6000805460ff191660011790557f62e78cea01bee320cd4e420270b5ea74000d11b0c9f74754ebdbfc544b05a25861083e3390565b60006020828403121561091a57600080fd5b81356001600160a01b038116811461093157600080fd5b9392505050565b80820180821115610972577f4e487b7100000000000000000000000000000000000000000000000000000000600052601160045260246000fd5b9291505056fea26469706673582212206abfa231417b384efcdd17e06e891d4d76eda09ee810d13d23815a79f9c3abf264736f6c63430008120033",
    "linkReferences": {},
    "deployedLinkReferences": {}
}