{
  "_format": "hh-sol-artifact-1",
  "contractName": "Royalty",
  "sourceName": "contracts/Royalty.sol",
  "abi": [
    {
      "inputs": [
        {
          "internalType": "bytes32",
          "name": "_patentId",
          "type": "bytes32"
        },
        {
          "internalType": "address",
          "name": "_licensee",
          "type": "address"
        },
        {
          "internalType": "uint256",
          "name": "_royaltyFee",
          "type": "uint256"
        },
        {
          "internalType": "uint256",
          "name": "_paymentInterval",
          "type": "uint256"
        },
        {
          "internalType": "uint256",
          "name": "_expirationDate",
          "type": "uint256"
        },
        {
          "internalType": "address payable",
          "name": "_patentOwner",
          "type": "address"
        }
      ],
      "stateMutability": "nonpayable",
      "type": "constructor"
    },
    {
      "anonymous": false,
      "inputs": [
        {
          "indexed": true,
          "internalType": "address",
          "name": "previousOwner",
          "type": "address"
        },
        {
          "indexed": true,
          "internalType": "address",
          "name": "newOwner",
          "type": "address"
        }
      ],
      "name": "OwnershipTransferred",
      "type": "event"
    },
    {
      "anonymous": false,
      "inputs": [
        {
          "indexed": false,
          "internalType": "address",
          "name": "account",
          "type": "address"
        }
      ],
      "name": "Paused",
      "type": "event"
    },
    {
      "anonymous": false,
      "inputs": [
        {
          "indexed": true,
          "internalType": "bytes32",
          "name": "patentId",
          "type": "bytes32"
        },
        {
          "indexed": true,
          "internalType": "address",
          "name": "owner",
          "type": "address"
        },
        {
          "indexed": false,
          "internalType": "address",
          "name": "licensee",
          "type": "address"
        },
        {
          "indexed": true,
          "internalType": "address",
          "name": "contractAddress",
          "type": "address"
        }
      ],
      "name": "RoyaltyContractApprovedForDestroy",
      "type": "event"
    },
    {
      "anonymous": false,
      "inputs": [
        {
          "indexed": true,
          "internalType": "bytes32",
          "name": "patentId",
          "type": "bytes32"
        },
        {
          "indexed": true,
          "internalType": "address",
          "name": "contractAddress",
          "type": "address"
        },
        {
          "indexed": true,
          "internalType": "address",
          "name": "licensee",
          "type": "address"
        },
        {
          "indexed": false,
          "internalType": "uint256",
          "name": "royaltyFee",
          "type": "uint256"
        },
        {
          "indexed": false,
          "internalType": "uint256",
          "name": "paidUntil",
          "type": "uint256"
        }
      ],
      "name": "RoyaltyPaid",
      "type": "event"
    },
    {
      "anonymous": false,
      "inputs": [
        {
          "indexed": false,
          "internalType": "address",
          "name": "account",
          "type": "address"
        }
      ],
      "name": "Unpaused",
      "type": "event"
    },
    {
      "inputs": [],
      "name": "approveForDestroy",
      "outputs": [],
      "stateMutability": "nonpayable",
      "type": "function"
    },
    {
      "inputs": [],
      "name": "approveForRoyalty",
      "outputs": [],
      "stateMutability": "nonpayable",
      "type": "function"
    },
    {
      "inputs": [],
      "name": "approvedForDestroy",
      "outputs": [
        {
          "internalType": "bool",
          "name": "",
          "type": "bool"
        }
      ],
      "stateMutability": "view",
      "type": "function"
    },
    {
      "inputs": [],
      "name": "destroySmartContract",
      "outputs": [],
      "stateMutability": "nonpayable",
      "type": "function"
    },
    {
      "inputs": [],
      "name": "expirationDate",
      "outputs": [
        {
          "internalType": "uint256",
          "name": "",
          "type": "uint256"
        }
      ],
      "stateMutability": "view",
      "type": "function"
    },
    {
      "inputs": [],
      "name": "getContractInfo",
      "outputs": [
        {
          "internalType": "bytes32",
          "name": "",
          "type": "bytes32"
        },
        {
          "internalType": "address",
          "name": "",
          "type": "address"
        },
        {
          "internalType": "address",
          "name": "",
          "type": "address"
        },
        {
          "internalType": "uint256",
          "name": "",
          "type": "uint256"
        },
        {
          "internalType": "uint256",
          "name": "",
          "type": "uint256"
        },
        {
          "internalType": "uint256",
          "name": "",
          "type": "uint256"
        },
        {
          "internalType": "uint256",
          "name": "",
          "type": "uint256"
        },
        {
          "internalType": "bool",
          "name": "",
          "type": "bool"
        },
        {
          "internalType": "bool",
          "name": "",
          "type": "bool"
        }
      ],
      "stateMutability": "view",
      "type": "function"
    },
    {
      "inputs": [],
      "name": "getIsContractValid",
      "outputs": [
        {
          "internalType": "bool",
          "name": "",
          "type": "bool"
        }
      ],
      "stateMutability": "view",
      "type": "function"
    },
    {
      "inputs": [],
      "name": "getIsPaused",
      "outputs": [
        {
          "internalType": "bool",
          "name": "",
          "type": "bool"
        }
      ],
      "stateMutability": "view",
      "type": "function"
    },
    {
      "inputs": [],
      "name": "getLicenseeApprovalForDestroy",
      "outputs": [
        {
          "internalType": "bool",
          "name": "",
          "type": "bool"
        }
      ],
      "stateMutability": "view",
      "type": "function"
    },
    {
      "inputs": [],
      "name": "licensee",
      "outputs": [
        {
          "internalType": "address",
          "name": "",
          "type": "address"
        }
      ],
      "stateMutability": "view",
      "type": "function"
    },
    {
      "inputs": [],
      "name": "owner",
      "outputs": [
        {
          "internalType": "address",
          "name": "",
          "type": "address"
        }
      ],
      "stateMutability": "view",
      "type": "function"
    },
    {
      "inputs": [],
      "name": "paidUntil",
      "outputs": [
        {
          "internalType": "uint256",
          "name": "",
          "type": "uint256"
        }
      ],
      "stateMutability": "view",
      "type": "function"
    },
    {
      "inputs": [],
      "name": "patentId",
      "outputs": [
        {
          "internalType": "bytes32",
          "name": "",
          "type": "bytes32"
        }
      ],
      "stateMutability": "view",
      "type": "function"
    },
    {
      "inputs": [],
      "name": "patentOwner",
      "outputs": [
        {
          "internalType": "address payable",
          "name": "",
          "type": "address"
        }
      ],
      "stateMutability": "view",
      "type": "function"
    },
    {
      "inputs": [],
      "name": "paused",
      "outputs": [
        {
          "internalType": "bool",
          "name": "",
          "type": "bool"
        }
      ],
      "stateMutability": "view",
      "type": "function"
    },
    {
      "inputs": [],
      "name": "payRoyalty",
      "outputs": [],
      "stateMutability": "payable",
      "type": "function"
    },
    {
      "inputs": [],
      "name": "paymentInterval",
      "outputs": [
        {
          "internalType": "uint256",
          "name": "",
          "type": "uint256"
        }
      ],
      "stateMutability": "view",
      "type": "function"
    },
    {
      "inputs": [],
      "name": "renounceOwnership",
      "outputs": [],
      "stateMutability": "nonpayable",
      "type": "function"
    },
    {
      "inputs": [],
      "name": "royaltyFee",
      "outputs": [
        {
          "internalType": "uint256",
          "name": "",
          "type": "uint256"
        }
      ],
      "stateMutability": "view",
      "type": "function"
    },
    {
      "inputs": [
        {
          "internalType": "address",
          "name": "newOwner",
          "type": "address"
        }
      ],
      "name": "transferOwnership",
      "outputs": [],
      "stateMutability": "nonpayable",
      "type": "function"
    },
    {
      "stateMutability": "payable",
      "type": "receive"
    }
  ],
  "bytecode": "0x608060405234801561001057600080fd5b50604051610d77380380610d7783398101604081905261002f916101d2565b6000805460ff19169055610042336100bb565b6008869055600180546001600160a01b0319166001600160a01b03871617905560038490556004839055600582905561007b8342610232565b600655610086610114565b6007805460ff19169055600280546001600160a01b0319166001600160a01b0392909216919091179055506102599350505050565b600080546001600160a01b03838116610100818102610100600160a81b0319851617855560405193049190911692909183917f8be0079c531659141344cd1fd0a4f28419497f9722a3daafe3b4186f6b6457e091a35050565b61011c61016e565b6000805460ff191660011790557f62e78cea01bee320cd4e420270b5ea74000d11b0c9f74754ebdbfc544b05a2586101513390565b6040516001600160a01b03909116815260200160405180910390a1565b60005460ff16156101b85760405162461bcd60e51b815260206004820152601060248201526f14185d5cd8589b194e881c185d5cd95960821b604482015260640160405180910390fd5b565b6001600160a01b03811681146101cf57600080fd5b50565b60008060008060008060c087890312156101eb57600080fd5b8651955060208701516101fd816101ba565b8095505060408701519350606087015192506080870151915060a0870151610224816101ba565b809150509295509295509295565b8082018082111561025357634e487b7160e01b600052601160045260246000fd5b92915050565b610b0f806102686000396000f3fe6080604052600436106101635760003560e01c806385474728116100c0578063a00ce37711610074578063b8997a9711610059578063b8997a971461038e578063f2a6f215146103a4578063f2fde38b146103b957600080fd5b8063a00ce37714610364578063a18d8f031461037957600080fd5b80638da5cb5b116100a55780638da5cb5b146103115780638f620487146103345780638f813d641461034a57600080fd5b806385474728146102e65780638654aa34146102fb57600080fd5b80635c975abb11610117578063715018a6116100fc578063715018a6146102525780637826a4e4146102675780637cc1f8671461027d57600080fd5b80635c975abb1461021a5780635e3044cb1461023257600080fd5b806328f4ddae1161014857806328f4ddae146101a857806329e20d5b146101cd578063567ad984146101e257600080fd5b80631cc1cf4614610177578063212d6723146101a057600080fd5b36610172576101706103d9565b005b600080fd5b34801561018357600080fd5b5061018d60045481565b6040519081526020015b60405180910390f35b6101706103d9565b3480156101b457600080fd5b506101bd6105e5565b6040519015158152602001610197565b3480156101d957600080fd5b50610170610601565b3480156101ee57600080fd5b50600254610202906001600160a01b031681565b6040516001600160a01b039091168152602001610197565b34801561022657600080fd5b5060005460ff166101bd565b34801561023e57600080fd5b50600154610202906001600160a01b031681565b34801561025e57600080fd5b5061017061061b565b34801561027357600080fd5b5061018d60065481565b34801561028957600080fd5b5061029261062d565b60408051998a526001600160a01b0398891660208b015296909716958801959095526060870193909352608086019190915260a085015260c0840152151560e0830152151561010082015261012001610197565b3480156102f257600080fd5b50610170610698565b34801561030757600080fd5b5061018d60085481565b34801561031d57600080fd5b5060005461010090046001600160a01b0316610202565b34801561034057600080fd5b5061018d60055481565b34801561035657600080fd5b506007546101bd9060ff1681565b34801561037057600080fd5b506101bd6106b0565b34801561038557600080fd5b506101706106e0565b34801561039a57600080fd5b5061018d60035481565b3480156103b057600080fd5b506101bd6107c1565b3480156103c557600080fd5b506101706103d4366004610a69565b6107d5565b6103e1610865565b6001546001600160a01b031633146104665760405162461bcd60e51b815260206004820152602260248201527f4f6e6c79206c6963656e7365652063616e207061792074686520726f79616c7460448201527f792e00000000000000000000000000000000000000000000000000000000000060648201526084015b60405180910390fd5b60035434146104b75760405162461bcd60e51b815260206004820152601460248201527f496e636f7272656374206665652076616c75652e000000000000000000000000604482015260640161045d565b6005546004546006546104ca9190610a99565b111561053e5760405162461bcd60e51b815260206004820152603760248201527f546865207061796d656e7420657874656e73696f6e20696e74657276616c206560448201527f7863656564732065787069726174696f6e20646174652e000000000000000000606482015260840161045d565b6002546040516001600160a01b03909116903480156108fc02916000818181858888f19350505050158015610577573d6000803e3d6000fd5b506004546006546105889190610a99565b60068190556001546008546003546040516001600160a01b039093169330937f8df6c78c9e8b798b59502f3ab101992987a00e18af9e99e7ddc005375be490c5926105db92908252602082015260400190565b60405180910390a4565b60006105ef6108b8565b6105f7610865565b5060075460ff1690565b6106096108b8565b610611610918565b61061961096a565b565b6106236108b8565b61061960006109bc565b60008060008060008060008060006106436108b8565b6008546002546001546003546004546005546006546007546001600160a01b0396871696959095169460ff1661067b60005460ff1690565b985098509850985098509850985098509850909192939495969798565b6106a06108b8565b6106a8610865565b610619610a2c565b60006106ba6108b8565b6005544211156106ca5750600090565b6006544211156106da5750600090565b50600190565b6106e8610865565b6001546001600160a01b031633146107685760405162461bcd60e51b815260206004820152602660248201527f4f6e6c79206c6963656e7365652063616e20617070726f766520666f7220646560448201527f7374726f792e0000000000000000000000000000000000000000000000000000606482015260840161045d565b6007805460ff1916600190811790915560025460085491546040516001600160a01b039182168152309391909216917f8dcee96114f2f589ff7f6bf56545cd0fb370ffadb7596e90bbdd1df53683c2d3906020016105db565b60006107cb6108b8565b5060005460ff1690565b6107dd6108b8565b6001600160a01b0381166108595760405162461bcd60e51b815260206004820152602660248201527f4f776e61626c653a206e6577206f776e657220697320746865207a65726f206160448201527f6464726573730000000000000000000000000000000000000000000000000000606482015260840161045d565b610862816109bc565b50565b60005460ff16156106195760405162461bcd60e51b815260206004820152601060248201527f5061757361626c653a2070617573656400000000000000000000000000000000604482015260640161045d565b6000546001600160a01b036101009091041633146106195760405162461bcd60e51b815260206004820181905260248201527f4f776e61626c653a2063616c6c6572206973206e6f7420746865206f776e6572604482015260640161045d565b60005460ff166106195760405162461bcd60e51b815260206004820152601460248201527f5061757361626c653a206e6f7420706175736564000000000000000000000000604482015260640161045d565b610972610918565b6000805460ff191690557f5db9ee0a495bf2e6ff9c91a7834c1ba4fdd244a5e8aa4e537bd38aeae4b073aa335b6040516001600160a01b03909116815260200160405180910390a1565b600080546001600160a01b038381166101008181027fffffffffffffffffffffff0000000000000000000000000000000000000000ff851617855560405193049190911692909183917f8be0079c531659141344cd1fd0a4f28419497f9722a3daafe3b4186f6b6457e091a35050565b610a34610865565b6000805460ff191660011790557f62e78cea01bee320cd4e420270b5ea74000d11b0c9f74754ebdbfc544b05a25861099f3390565b600060208284031215610a7b57600080fd5b81356001600160a01b0381168114610a9257600080fd5b9392505050565b80820180821115610ad3577f4e487b7100000000000000000000000000000000000000000000000000000000600052601160045260246000fd5b9291505056fea2646970667358221220922ed2c3ebe9460c7a37f7ab8b6963197547f8cc2cd9d090695f41735b6ddfae64736f6c63430008120033",
  "linkReferences": {},
  "deployedLinkReferences": {}
}