{
  "_format": "hh-sol-artifact-1",
  "contractName": "Royalty",
  "sourceName": "contracts/Royalty.sol",
  "abi": [
    {
      "inputs": [
        {
          "internalType": "bytes32",
          "name": "_patentId",
          "type": "bytes32"
        },
        {
          "internalType": "address",
          "name": "_licensee",
          "type": "address"
        },
        {
          "internalType": "uint256",
          "name": "_royaltyFee",
          "type": "uint256"
        },
        {
          "internalType": "uint256",
          "name": "_paymentInterval",
          "type": "uint256"
        },
        {
          "internalType": "uint256",
          "name": "_expirationPeriod",
          "type": "uint256"
        },
        {
          "internalType": "address payable",
          "name": "_patentOwner",
          "type": "address"
        }
      ],
      "stateMutability": "nonpayable",
      "type": "constructor"
    },
    {
      "anonymous": false,
      "inputs": [
        {
          "indexed": true,
          "internalType": "address",
          "name": "previousOwner",
          "type": "address"
        },
        {
          "indexed": true,
          "internalType": "address",
          "name": "newOwner",
          "type": "address"
        }
      ],
      "name": "OwnershipTransferred",
      "type": "event"
    },
    {
      "anonymous": false,
      "inputs": [
        {
          "indexed": false,
          "internalType": "address",
          "name": "account",
          "type": "address"
        }
      ],
      "name": "Paused",
      "type": "event"
    },
    {
      "anonymous": false,
      "inputs": [
        {
          "indexed": true,
          "internalType": "bytes32",
          "name": "patentId",
          "type": "bytes32"
        },
        {
          "indexed": true,
          "internalType": "address",
          "name": "owner",
          "type": "address"
        },
        {
          "indexed": false,
          "internalType": "address",
          "name": "licensee",
          "type": "address"
        },
        {
          "indexed": true,
          "internalType": "address",
          "name": "contractAddress",
          "type": "address"
        }
      ],
      "name": "RoyaltyContractApprovedForDestroy",
      "type": "event"
    },
    {
      "anonymous": false,
      "inputs": [
        {
          "indexed": true,
          "internalType": "bytes32",
          "name": "patentId",
          "type": "bytes32"
        },
        {
          "indexed": true,
          "internalType": "address",
          "name": "contractAddress",
          "type": "address"
        },
        {
          "indexed": true,
          "internalType": "address",
          "name": "licensee",
          "type": "address"
        },
        {
          "indexed": false,
          "internalType": "uint256",
          "name": "royaltyFee",
          "type": "uint256"
        },
        {
          "indexed": false,
          "internalType": "uint256",
          "name": "paidUntil",
          "type": "uint256"
        }
      ],
      "name": "RoyaltyPaid",
      "type": "event"
    },
    {
      "anonymous": false,
      "inputs": [
        {
          "indexed": false,
          "internalType": "address",
          "name": "account",
          "type": "address"
        }
      ],
      "name": "Unpaused",
      "type": "event"
    },
    {
      "inputs": [],
      "name": "approveForDestroy",
      "outputs": [],
      "stateMutability": "nonpayable",
      "type": "function"
    },
    {
      "inputs": [],
      "name": "approveForRoyalty",
      "outputs": [],
      "stateMutability": "nonpayable",
      "type": "function"
    },
    {
      "inputs": [],
      "name": "approvedForDestroy",
      "outputs": [
        {
          "internalType": "bool",
          "name": "",
          "type": "bool"
        }
      ],
      "stateMutability": "view",
      "type": "function"
    },
    {
      "inputs": [],
      "name": "destroySmartContract",
      "outputs": [],
      "stateMutability": "nonpayable",
      "type": "function"
    },
    {
      "inputs": [],
      "name": "expirationPeriod",
      "outputs": [
        {
          "internalType": "uint256",
          "name": "",
          "type": "uint256"
        }
      ],
      "stateMutability": "view",
      "type": "function"
    },
    {
      "inputs": [],
      "name": "getIsContractValid",
      "outputs": [
        {
          "internalType": "bool",
          "name": "",
          "type": "bool"
        }
      ],
      "stateMutability": "view",
      "type": "function"
    },
    {
      "inputs": [],
      "name": "getLicenseeApprovalForDestroy",
      "outputs": [
        {
          "internalType": "bool",
          "name": "",
          "type": "bool"
        }
      ],
      "stateMutability": "view",
      "type": "function"
    },
    {
      "inputs": [],
      "name": "licensee",
      "outputs": [
        {
          "internalType": "address",
          "name": "",
          "type": "address"
        }
      ],
      "stateMutability": "view",
      "type": "function"
    },
    {
      "inputs": [],
      "name": "owner",
      "outputs": [
        {
          "internalType": "address",
          "name": "",
          "type": "address"
        }
      ],
      "stateMutability": "view",
      "type": "function"
    },
    {
      "inputs": [],
      "name": "paidUntil",
      "outputs": [
        {
          "internalType": "uint256",
          "name": "",
          "type": "uint256"
        }
      ],
      "stateMutability": "view",
      "type": "function"
    },
    {
      "inputs": [],
      "name": "patentId",
      "outputs": [
        {
          "internalType": "bytes32",
          "name": "",
          "type": "bytes32"
        }
      ],
      "stateMutability": "view",
      "type": "function"
    },
    {
      "inputs": [],
      "name": "patentOwner",
      "outputs": [
        {
          "internalType": "address payable",
          "name": "",
          "type": "address"
        }
      ],
      "stateMutability": "view",
      "type": "function"
    },
    {
      "inputs": [],
      "name": "paused",
      "outputs": [
        {
          "internalType": "bool",
          "name": "",
          "type": "bool"
        }
      ],
      "stateMutability": "view",
      "type": "function"
    },
    {
      "inputs": [],
      "name": "payRoyalty",
      "outputs": [],
      "stateMutability": "payable",
      "type": "function"
    },
    {
      "inputs": [],
      "name": "paymentInterval",
      "outputs": [
        {
          "internalType": "uint256",
          "name": "",
          "type": "uint256"
        }
      ],
      "stateMutability": "view",
      "type": "function"
    },
    {
      "inputs": [],
      "name": "renounceOwnership",
      "outputs": [],
      "stateMutability": "nonpayable",
      "type": "function"
    },
    {
      "inputs": [],
      "name": "royaltyFee",
      "outputs": [
        {
          "internalType": "uint256",
          "name": "",
          "type": "uint256"
        }
      ],
      "stateMutability": "view",
      "type": "function"
    },
    {
      "inputs": [
        {
          "internalType": "address",
          "name": "newOwner",
          "type": "address"
        }
      ],
      "name": "transferOwnership",
      "outputs": [],
      "stateMutability": "nonpayable",
      "type": "function"
    }
  ],
  "bytecode": "0x608060405234801561001057600080fd5b50604051610c43380380610c4383398101604081905261002f916101da565b6000805460ff19169055610042336100c3565b6008869055600180546001600160a01b0319166001600160a01b03871617905560038490556004839055610076824261023a565b600555610083834261023a565b60065561008e61011c565b6007805460ff19169055600280546001600160a01b0319166001600160a01b0392909216919091179055506102619350505050565b600080546001600160a01b03838116610100818102610100600160a81b0319851617855560405193049190911692909183917f8be0079c531659141344cd1fd0a4f28419497f9722a3daafe3b4186f6b6457e091a35050565b610124610176565b6000805460ff191660011790557f62e78cea01bee320cd4e420270b5ea74000d11b0c9f74754ebdbfc544b05a2586101593390565b6040516001600160a01b03909116815260200160405180910390a1565b60005460ff16156101c05760405162461bcd60e51b815260206004820152601060248201526f14185d5cd8589b194e881c185d5cd95960821b604482015260640160405180910390fd5b565b6001600160a01b03811681146101d757600080fd5b50565b60008060008060008060c087890312156101f357600080fd5b865195506020870151610205816101c2565b8095505060408701519350606087015192506080870151915060a087015161022c816101c2565b809150509295509295509295565b8082018082111561025b57634e487b7160e01b600052601160045260246000fd5b92915050565b6109d3806102706000396000f3fe6080604052600436106101295760003560e01c806385474728116100a55780638f813d6411610074578063a18d8f0311610059578063a18d8f03146102c9578063b8997a97146102de578063f2fde38b146102f457600080fd5b80638f813d641461029a578063a00ce377146102b457600080fd5b806385474728146102365780638654aa341461024b5780638897cad3146102615780638da5cb5b1461027757600080fd5b8063567ad984116100fc5780635e3044cb116100e15780635e3044cb146101eb578063715018a61461020b5780637826a4e41461022057600080fd5b8063567ad9841461019b5780635c975abb146101d357600080fd5b80631cc1cf461461012e578063212d67231461015757806328f4ddae1461016157806329e20d5b14610186575b600080fd5b34801561013a57600080fd5b5061014460045481565b6040519081526020015b60405180910390f35b61015f610314565b005b34801561016d57600080fd5b50610176610520565b604051901515815260200161014e565b34801561019257600080fd5b5061015f61053c565b3480156101a757600080fd5b506002546101bb906001600160a01b031681565b6040516001600160a01b03909116815260200161014e565b3480156101df57600080fd5b5060005460ff16610176565b3480156101f757600080fd5b506001546101bb906001600160a01b031681565b34801561021757600080fd5b5061015f610556565b34801561022c57600080fd5b5061014460065481565b34801561024257600080fd5b5061015f610568565b34801561025757600080fd5b5061014460085481565b34801561026d57600080fd5b5061014460055481565b34801561028357600080fd5b5060005461010090046001600160a01b03166101bb565b3480156102a657600080fd5b506007546101769060ff1681565b3480156102c057600080fd5b50610176610580565b3480156102d557600080fd5b5061015f6105b8565b3480156102ea57600080fd5b5061014460035481565b34801561030057600080fd5b5061015f61030f36600461092d565b610699565b61031c610729565b6001546001600160a01b031633146103a15760405162461bcd60e51b815260206004820152602260248201527f4f6e6c79206c6963656e7365652063616e207061792074686520726f79616c7460448201527f792e00000000000000000000000000000000000000000000000000000000000060648201526084015b60405180910390fd5b60035434146103f25760405162461bcd60e51b815260206004820152601460248201527f496e636f7272656374206665652076616c75652e0000000000000000000000006044820152606401610398565b600554600454600654610405919061095d565b11156104795760405162461bcd60e51b815260206004820152603760248201527f546865207061796d656e7420657874656e73696f6e20696e74657276616c206560448201527f7863656564732065787069726174696f6e20646174652e0000000000000000006064820152608401610398565b6002546040516001600160a01b03909116903480156108fc02916000818181858888f193505050501580156104b2573d6000803e3d6000fd5b506004546006546104c3919061095d565b60068190556001546008546003546040516001600160a01b039093169330937f8df6c78c9e8b798b59502f3ab101992987a00e18af9e99e7ddc005375be490c59261051692908252602082015260400190565b60405180910390a4565b600061052a61077c565b610532610729565b5060075460ff1690565b61054461077c565b61054c6107dc565b61055461082e565b565b61055e61077c565b6105546000610880565b61057061077c565b610578610729565b6105546108f0565b600061058a61077c565b610592610729565b6005544211156105a25750600090565b6006544211156105b25750600090565b50600190565b6105c0610729565b6001546001600160a01b031633146106405760405162461bcd60e51b815260206004820152602660248201527f4f6e6c79206c6963656e7365652063616e20617070726f766520666f7220646560448201527f7374726f792e00000000000000000000000000000000000000000000000000006064820152608401610398565b6007805460ff1916600190811790915560025460085491546040516001600160a01b039182168152309391909216917f8dcee96114f2f589ff7f6bf56545cd0fb370ffadb7596e90bbdd1df53683c2d390602001610516565b6106a161077c565b6001600160a01b03811661071d5760405162461bcd60e51b815260206004820152602660248201527f4f776e61626c653a206e6577206f776e657220697320746865207a65726f206160448201527f64647265737300000000000000000000000000000000000000000000000000006064820152608401610398565b61072681610880565b50565b60005460ff16156105545760405162461bcd60e51b815260206004820152601060248201527f5061757361626c653a20706175736564000000000000000000000000000000006044820152606401610398565b6000546001600160a01b036101009091041633146105545760405162461bcd60e51b815260206004820181905260248201527f4f776e61626c653a2063616c6c6572206973206e6f7420746865206f776e65726044820152606401610398565b60005460ff166105545760405162461bcd60e51b815260206004820152601460248201527f5061757361626c653a206e6f74207061757365640000000000000000000000006044820152606401610398565b6108366107dc565b6000805460ff191690557f5db9ee0a495bf2e6ff9c91a7834c1ba4fdd244a5e8aa4e537bd38aeae4b073aa335b6040516001600160a01b03909116815260200160405180910390a1565b600080546001600160a01b038381166101008181027fffffffffffffffffffffff0000000000000000000000000000000000000000ff851617855560405193049190911692909183917f8be0079c531659141344cd1fd0a4f28419497f9722a3daafe3b4186f6b6457e091a35050565b6108f8610729565b6000805460ff191660011790557f62e78cea01bee320cd4e420270b5ea74000d11b0c9f74754ebdbfc544b05a2586108633390565b60006020828403121561093f57600080fd5b81356001600160a01b038116811461095657600080fd5b9392505050565b80820180821115610997577f4e487b7100000000000000000000000000000000000000000000000000000000600052601160045260246000fd5b9291505056fea2646970667358221220c87d3772b4eea2f260d4a524cdd18137ec66d530a3635a2c3e8c48f1988e91c664736f6c63430008120033",
  "linkReferences": {},
  "deployedLinkReferences": {}
}